{
	"con.sol": {
		"sol": {
			"abi": [
				{
					"inputs": [],
					"name": "check",
					"outputs": [
						{
							"internalType": "uint256",
							"name": "",
							"type": "uint256"
						}
					],
					"stateMutability": "view",
					"type": "function"
				}
			],
			"devdoc": {
				"kind": "dev",
				"methods": {},
				"version": 1
			},
			"evm": {
				"assembly": "    /* \"con.sol\":70:213  contract sol {... */\n  mstore(0x40, 0x80)\n    /* \"con.sol\":102:108  2000e8 */\n  0x2e90edd000\n    /* \"con.sol\":89:108  uint value = 2000e8 */\n  0x00\n  sstore\n    /* \"con.sol\":70:213  contract sol {... */\n  callvalue\n  dup1\n  iszero\n  tag_1\n  jumpi\n  0x00\n  dup1\n  revert\ntag_1:\n  pop\n  dataSize(sub_0)\n  dup1\n  dataOffset(sub_0)\n  0x00\n  codecopy\n  0x00\n  return\nstop\n\nsub_0: assembly {\n        /* \"con.sol\":70:213  contract sol {... */\n      mstore(0x40, 0x80)\n      callvalue\n      dup1\n      iszero\n      tag_1\n      jumpi\n      0x00\n      dup1\n      revert\n    tag_1:\n      pop\n      jumpi(tag_2, lt(calldatasize, 0x04))\n      shr(0xe0, calldataload(0x00))\n      dup1\n      0x919840ad\n      eq\n      tag_3\n      jumpi\n    tag_2:\n      0x00\n      dup1\n      revert\n        /* \"con.sol\":115:211  function check() public view returns(uint) {... */\n    tag_3:\n      tag_4\n      tag_5\n      jump\t// in\n    tag_4:\n      mload(0x40)\n      tag_6\n      swap2\n      swap1\n      tag_7\n      jump\t// in\n    tag_6:\n      mload(0x40)\n      dup1\n      swap2\n      sub\n      swap1\n      return\n    tag_5:\n        /* \"con.sol\":152:156  uint */\n      0x00\n        /* \"con.sol\":198:203  value */\n      dup1\n      sload\n        /* \"con.sol\":191:203  return value */\n      swap1\n      pop\n        /* \"con.sol\":115:211  function check() public view returns(uint) {... */\n      swap1\n      jump\t// out\n        /* \"#utility.yul\":7:84   */\n    tag_9:\n        /* \"#utility.yul\":44:51   */\n      0x00\n        /* \"#utility.yul\":73:78   */\n      dup2\n        /* \"#utility.yul\":62:78   */\n      swap1\n      pop\n        /* \"#utility.yul\":7:84   */\n      swap2\n      swap1\n      pop\n      jump\t// out\n        /* \"#utility.yul\":90:208   */\n    tag_10:\n        /* \"#utility.yul\":177:201   */\n      tag_14\n        /* \"#utility.yul\":195:200   */\n      dup2\n        /* \"#utility.yul\":177:201   */\n      tag_9\n      jump\t// in\n    tag_14:\n        /* \"#utility.yul\":172:175   */\n      dup3\n        /* \"#utility.yul\":165:202   */\n      mstore\n        /* \"#utility.yul\":90:208   */\n      pop\n      pop\n      jump\t// out\n        /* \"#utility.yul\":214:436   */\n    tag_7:\n        /* \"#utility.yul\":307:311   */\n      0x00\n        /* \"#utility.yul\":345:347   */\n      0x20\n        /* \"#utility.yul\":334:343   */\n      dup3\n        /* \"#utility.yul\":330:348   */\n      add\n        /* \"#utility.yul\":322:348   */\n      swap1\n      pop\n        /* \"#utility.yul\":358:429   */\n      tag_16\n        /* \"#utility.yul\":426:427   */\n      0x00\n        /* \"#utility.yul\":415:424   */\n      dup4\n        /* \"#utility.yul\":411:428   */\n      add\n        /* \"#utility.yul\":402:408   */\n      dup5\n        /* \"#utility.yul\":358:429   */\n      tag_10\n      jump\t// in\n    tag_16:\n        /* \"#utility.yul\":214:436   */\n      swap3\n      swap2\n      pop\n      pop\n      jump\t// out\n\n    auxdata: 0xa26469706673582212200eed5b1baf4e4bf38d376b1a7595f8ca084090b8e78a3584a364d325d9eb4af064736f6c63430008170033\n}\n",
				"bytecode": {
					"linkReferences": {},
					"object": "6080604052642e90edd0005f55348015610017575f80fd5b5060af806100245f395ff3fe6080604052348015600e575f80fd5b50600436106026575f3560e01c8063919840ad14602a575b5f80fd5b60306044565b604051603b91906062565b60405180910390f35b5f8054905090565b5f819050919050565b605c81604c565b82525050565b5f60208201905060735f8301846055565b9291505056fea26469706673582212200eed5b1baf4e4bf38d376b1a7595f8ca084090b8e78a3584a364d325d9eb4af064736f6c63430008170033",
					"opcodes": "PUSH1 0x80 PUSH1 0x40 MSTORE PUSH5 0x2E90EDD000 PUSH0 SSTORE CALLVALUE DUP1 ISZERO PUSH2 0x17 JUMPI PUSH0 DUP1 REVERT JUMPDEST POP PUSH1 0xAF DUP1 PUSH2 0x24 PUSH0 CODECOPY PUSH0 RETURN INVALID PUSH1 0x80 PUSH1 0x40 MSTORE CALLVALUE DUP1 ISZERO PUSH1 0xE JUMPI PUSH0 DUP1 REVERT JUMPDEST POP PUSH1 0x4 CALLDATASIZE LT PUSH1 0x26 JUMPI PUSH0 CALLDATALOAD PUSH1 0xE0 SHR DUP1 PUSH4 0x919840AD EQ PUSH1 0x2A JUMPI JUMPDEST PUSH0 DUP1 REVERT JUMPDEST PUSH1 0x30 PUSH1 0x44 JUMP JUMPDEST PUSH1 0x40 MLOAD PUSH1 0x3B SWAP2 SWAP1 PUSH1 0x62 JUMP JUMPDEST PUSH1 0x40 MLOAD DUP1 SWAP2 SUB SWAP1 RETURN JUMPDEST PUSH0 DUP1 SLOAD SWAP1 POP SWAP1 JUMP JUMPDEST PUSH0 DUP2 SWAP1 POP SWAP2 SWAP1 POP JUMP JUMPDEST PUSH1 0x5C DUP2 PUSH1 0x4C JUMP JUMPDEST DUP3 MSTORE POP POP JUMP JUMPDEST PUSH0 PUSH1 0x20 DUP3 ADD SWAP1 POP PUSH1 0x73 PUSH0 DUP4 ADD DUP5 PUSH1 0x55 JUMP JUMPDEST SWAP3 SWAP2 POP POP JUMP INVALID LOG2 PUSH5 0x6970667358 0x22 SLT KECCAK256 0xE 0xED JUMPDEST SHL 0xAF 0x4E 0x4B RETURN DUP14 CALLDATACOPY PUSH12 0x1A7595F8CA084090B8E78A35 DUP5 LOG3 PUSH5 0xD325D9EB4A CREATE PUSH5 0x736F6C6343 STOP ADDMOD OR STOP CALLER "
				},
				"gasEstimates": {
					"creation": {
						"codeDepositCost": "35000",
						"executionCost": "22190",
						"totalCost": "57190"
					},
					"external": {
						"check()": "2410"
					}
				},
				"methodIdentifiers": {
					"check()": "919840ad"
				}
			},
			"storageLayout": {
				"storage": [
					{
						"astId": 4,
						"contract": "con.sol:sol",
						"label": "value",
						"offset": 0,
						"slot": "0",
						"type": "t_uint256"
					}
				],
				"types": {
					"t_uint256": {
						"encoding": "inplace",
						"label": "uint256",
						"numberOfBytes": "32"
					}
				}
			},
			"userdoc": {
				"kind": "user",
				"methods": {},
				"version": 1
			}
		}
	}
}