{
	"timepass.sol": {
		"yo": {
			"abi": [
				{
					"inputs": [],
					"name": "a",
					"outputs": [],
					"stateMutability": "nonpayable",
					"type": "function"
				},
				{
					"inputs": [],
					"name": "b",
					"outputs": [],
					"stateMutability": "nonpayable",
					"type": "function"
				},
				{
					"inputs": [],
					"name": "c",
					"outputs": [],
					"stateMutability": "nonpayable",
					"type": "function"
				},
				{
					"inputs": [],
					"name": "x",
					"outputs": [
						{
							"internalType": "uint256",
							"name": "",
							"type": "uint256"
						}
					],
					"stateMutability": "view",
					"type": "function"
				}
			],
			"devdoc": {
				"kind": "dev",
				"methods": {},
				"version": 1
			},
			"evm": {
				"assembly": "    /* \"timepass.sol\":70:380  contract yo {... */\n  mstore(0x40, 0x80)\n    /* \"timepass.sol\":108:110  10 */\n  0x0a\n    /* \"timepass.sol\":89:110  uint256 public x = 10 */\n  0x00\n  sstore\n    /* \"timepass.sol\":70:380  contract yo {... */\n  callvalue\n  dup1\n  iszero\n  tag_1\n  jumpi\n  0x00\n  dup1\n  revert\ntag_1:\n  pop\n  dataSize(sub_0)\n  dup1\n  dataOffset(sub_0)\n  0x00\n  codecopy\n  0x00\n  return\nstop\n\nsub_0: assembly {\n        /* \"timepass.sol\":70:380  contract yo {... */\n      mstore(0x40, 0x80)\n      callvalue\n      dup1\n      iszero\n      tag_1\n      jumpi\n      0x00\n      dup1\n      revert\n    tag_1:\n      pop\n      jumpi(tag_2, lt(calldatasize, 0x04))\n      shr(0xe0, calldataload(0x00))\n      dup1\n      0x0c55699c\n      eq\n      tag_3\n      jumpi\n      dup1\n      0x0dbe671f\n      eq\n      tag_4\n      jumpi\n      dup1\n      0x4df7e3d0\n      eq\n      tag_5\n      jumpi\n      dup1\n      0xc3da42b8\n      eq\n      tag_6\n      jumpi\n    tag_2:\n      0x00\n      dup1\n      revert\n        /* \"timepass.sol\":89:110  uint256 public x = 10 */\n    tag_3:\n      tag_7\n      tag_8\n      jump\t// in\n    tag_7:\n      mload(0x40)\n      tag_9\n      swap2\n      swap1\n      tag_10\n      jump\t// in\n    tag_9:\n      mload(0x40)\n      dup1\n      swap2\n      sub\n      swap1\n      return\n        /* \"timepass.sol\":189:249  function a() public modifierA {... */\n    tag_4:\n      tag_11\n      tag_12\n      jump\t// in\n    tag_11:\n      stop\n        /* \"timepass.sol\":323:378  function b() public  {... */\n    tag_5:\n      tag_13\n      tag_14\n      jump\t// in\n    tag_13:\n      stop\n        /* \"timepass.sol\":255:313  function c() public  {... */\n    tag_6:\n      tag_15\n      tag_16\n      jump\t// in\n    tag_15:\n      stop\n        /* \"timepass.sol\":89:110  uint256 public x = 10 */\n    tag_8:\n      sload(0x00)\n      dup2\n      jump\t// out\n        /* \"timepass.sol\":189:249  function a() public modifierA {... */\n    tag_12:\n        /* \"timepass.sol\":154:156  10 */\n      0x0a\n        /* \"timepass.sol\":151:152  x */\n      sload(0x00)\n        /* \"timepass.sol\":151:156  x==10 */\n      sub\n        /* \"timepass.sol\":148:165  if(x==10) return; */\n      iszero\n        /* \"timepass.sol\":158:165  return; */\n      tag_17\n        /* \"timepass.sol\":148:165  if(x==10) return; */\n      jumpi\n        /* \"timepass.sol\":231:233  20 */\n      0x14\n        /* \"timepass.sol\":229:230  x */\n      0x00\n        /* \"timepass.sol\":229:233  x=20 */\n      dup2\n      swap1\n      sstore\n      pop\n        /* \"timepass.sol\":189:249  function a() public modifierA {... */\n    tag_17:\n      jump\t// out\n        /* \"timepass.sol\":323:378  function b() public  {... */\n    tag_14:\n        /* \"timepass.sol\":354:357  c() */\n      tag_21\n        /* \"timepass.sol\":354:355  c */\n      tag_16\n        /* \"timepass.sol\":354:357  c() */\n      jump\t// in\n    tag_21:\n        /* \"timepass.sol\":369:371  30 */\n      0x1e\n        /* \"timepass.sol\":367:368  x */\n      0x00\n        /* \"timepass.sol\":367:371  x=30 */\n      dup2\n      swap1\n      sstore\n      pop\n        /* \"timepass.sol\":323:378  function b() public  {... */\n      jump\t// out\n        /* \"timepass.sol\":255:313  function c() public  {... */\n    tag_16:\n        /* \"timepass.sol\":288:290  20 */\n      0x14\n        /* \"timepass.sol\":286:287  x */\n      0x00\n        /* \"timepass.sol\":286:290  x=20 */\n      dup2\n      swap1\n      sstore\n      pop\n        /* \"timepass.sol\":255:313  function c() public  {... */\n      jump\t// out\n        /* \"#utility.yul\":7:84   */\n    tag_23:\n        /* \"#utility.yul\":44:51   */\n      0x00\n        /* \"#utility.yul\":73:78   */\n      dup2\n        /* \"#utility.yul\":62:78   */\n      swap1\n      pop\n        /* \"#utility.yul\":7:84   */\n      swap2\n      swap1\n      pop\n      jump\t// out\n        /* \"#utility.yul\":90:208   */\n    tag_24:\n        /* \"#utility.yul\":177:201   */\n      tag_28\n        /* \"#utility.yul\":195:200   */\n      dup2\n        /* \"#utility.yul\":177:201   */\n      tag_23\n      jump\t// in\n    tag_28:\n        /* \"#utility.yul\":172:175   */\n      dup3\n        /* \"#utility.yul\":165:202   */\n      mstore\n        /* \"#utility.yul\":90:208   */\n      pop\n      pop\n      jump\t// out\n        /* \"#utility.yul\":214:436   */\n    tag_10:\n        /* \"#utility.yul\":307:311   */\n      0x00\n        /* \"#utility.yul\":345:347   */\n      0x20\n        /* \"#utility.yul\":334:343   */\n      dup3\n        /* \"#utility.yul\":330:348   */\n      add\n        /* \"#utility.yul\":322:348   */\n      swap1\n      pop\n        /* \"#utility.yul\":358:429   */\n      tag_30\n        /* \"#utility.yul\":426:427   */\n      0x00\n        /* \"#utility.yul\":415:424   */\n      dup4\n        /* \"#utility.yul\":411:428   */\n      add\n        /* \"#utility.yul\":402:408   */\n      dup5\n        /* \"#utility.yul\":358:429   */\n      tag_24\n      jump\t// in\n    tag_30:\n        /* \"#utility.yul\":214:436   */\n      swap3\n      swap2\n      pop\n      pop\n      jump\t// out\n\n    auxdata: 0xa2646970667358221220473dca190c2bc4347af4aac82cc73aaecb9f4a64250e99770a98e40a0ad24e9064736f6c63430008140033\n}\n",
				"bytecode": {
					"linkReferences": {},
					"object": "6080604052600a5f55348015610013575f80fd5b5061010d806100215f395ff3fe6080604052348015600e575f80fd5b50600436106044575f3560e01c80630c55699c1460485780630dbe671f1460625780634df7e3d014606a578063c3da42b8146072575b5f80fd5b604e607a565b6040516059919060c0565b60405180910390f35b6068607f565b005b60706092565b005b607860a1565b005b5f5481565b600a5f54031560905760145f819055505b565b609860a1565b601e5f81905550565b60145f81905550565b5f819050919050565b60ba8160aa565b82525050565b5f60208201905060d15f83018460b3565b9291505056fea2646970667358221220473dca190c2bc4347af4aac82cc73aaecb9f4a64250e99770a98e40a0ad24e9064736f6c63430008140033",
					"opcodes": "PUSH1 0x80 PUSH1 0x40 MSTORE PUSH1 0xA PUSH0 SSTORE CALLVALUE DUP1 ISZERO PUSH2 0x13 JUMPI PUSH0 DUP1 REVERT JUMPDEST POP PUSH2 0x10D DUP1 PUSH2 0x21 PUSH0 CODECOPY PUSH0 RETURN INVALID PUSH1 0x80 PUSH1 0x40 MSTORE CALLVALUE DUP1 ISZERO PUSH1 0xE JUMPI PUSH0 DUP1 REVERT JUMPDEST POP PUSH1 0x4 CALLDATASIZE LT PUSH1 0x44 JUMPI PUSH0 CALLDATALOAD PUSH1 0xE0 SHR DUP1 PUSH4 0xC55699C EQ PUSH1 0x48 JUMPI DUP1 PUSH4 0xDBE671F EQ PUSH1 0x62 JUMPI DUP1 PUSH4 0x4DF7E3D0 EQ PUSH1 0x6A JUMPI DUP1 PUSH4 0xC3DA42B8 EQ PUSH1 0x72 JUMPI JUMPDEST PUSH0 DUP1 REVERT JUMPDEST PUSH1 0x4E PUSH1 0x7A JUMP JUMPDEST PUSH1 0x40 MLOAD PUSH1 0x59 SWAP2 SWAP1 PUSH1 0xC0 JUMP JUMPDEST PUSH1 0x40 MLOAD DUP1 SWAP2 SUB SWAP1 RETURN JUMPDEST PUSH1 0x68 PUSH1 0x7F JUMP JUMPDEST STOP JUMPDEST PUSH1 0x70 PUSH1 0x92 JUMP JUMPDEST STOP JUMPDEST PUSH1 0x78 PUSH1 0xA1 JUMP JUMPDEST STOP JUMPDEST PUSH0 SLOAD DUP2 JUMP JUMPDEST PUSH1 0xA PUSH0 SLOAD SUB ISZERO PUSH1 0x90 JUMPI PUSH1 0x14 PUSH0 DUP2 SWAP1 SSTORE POP JUMPDEST JUMP JUMPDEST PUSH1 0x98 PUSH1 0xA1 JUMP JUMPDEST PUSH1 0x1E PUSH0 DUP2 SWAP1 SSTORE POP JUMP JUMPDEST PUSH1 0x14 PUSH0 DUP2 SWAP1 SSTORE POP JUMP JUMPDEST PUSH0 DUP2 SWAP1 POP SWAP2 SWAP1 POP JUMP JUMPDEST PUSH1 0xBA DUP2 PUSH1 0xAA JUMP JUMPDEST DUP3 MSTORE POP POP JUMP JUMPDEST PUSH0 PUSH1 0x20 DUP3 ADD SWAP1 POP PUSH1 0xD1 PUSH0 DUP4 ADD DUP5 PUSH1 0xB3 JUMP JUMPDEST SWAP3 SWAP2 POP POP JUMP INVALID LOG2 PUSH5 0x6970667358 0x22 SLT KECCAK256 SELFBALANCE RETURNDATASIZE 0xCA NOT 0xC 0x2B 0xC4 CALLVALUE PUSH27 0xF4AAC82CC73AAECB9F4A64250E99770A98E40A0AD24E9064736F6C PUSH4 0x43000814 STOP CALLER "
				},
				"gasEstimates": {
					"creation": {
						"codeDepositCost": "53800",
						"executionCost": "22208",
						"totalCost": "76008"
					},
					"external": {
						"a()": "24381",
						"b()": "27315",
						"c()": "22300",
						"x()": "2402"
					}
				},
				"methodIdentifiers": {
					"a()": "0dbe671f",
					"b()": "4df7e3d0",
					"c()": "c3da42b8",
					"x()": "0c55699c"
				}
			},
			"storageLayout": {
				"storage": [
					{
						"astId": 4,
						"contract": "timepass.sol:yo",
						"label": "x",
						"offset": 0,
						"slot": "0",
						"type": "t_uint256"
					}
				],
				"types": {
					"t_uint256": {
						"encoding": "inplace",
						"label": "uint256",
						"numberOfBytes": "32"
					}
				}
			},
			"userdoc": {
				"kind": "user",
				"methods": {},
				"version": 1
			}
		}
	}
}