{
	"Sweepstake.sol": {
		"Sweepstake": {
			"abi": [
				{
					"inputs": [
						{
							"internalType": "address",
							"name": "ProtocolMaintainanceFeeAddress",
							"type": "address"
						},
						{
							"internalType": "address",
							"name": "charityDonationFeeAddress",
							"type": "address"
						},
						{
							"internalType": "uint256",
							"name": "interval",
							"type": "uint256"
						},
						{
							"internalType": "address",
							"name": "vrfCoordinatorV2",
							"type": "address"
						},
						{
							"internalType": "bytes32",
							"name": "keyHash",
							"type": "bytes32"
						},
						{
							"internalType": "uint64",
							"name": "subId",
							"type": "uint64"
						},
						{
							"internalType": "uint32",
							"name": "callbackGasLimit",
							"type": "uint32"
						}
					],
					"stateMutability": "nonpayable",
					"type": "constructor"
				},
				{
					"inputs": [],
					"name": "Not_ProtocolMaintainanceFeeAddress",
					"type": "error"
				},
				{
					"inputs": [
						{
							"internalType": "address",
							"name": "have",
							"type": "address"
						},
						{
							"internalType": "address",
							"name": "want",
							"type": "address"
						}
					],
					"name": "OnlyCoordinatorCanFulfill",
					"type": "error"
				},
				{
					"inputs": [],
					"name": "Sweepstake__CannotRefund",
					"type": "error"
				},
				{
					"inputs": [],
					"name": "Sweepstake__DuplicatePlayer",
					"type": "error"
				},
				{
					"inputs": [],
					"name": "Sweepstake__NotEnoughFeeToEnterSweepstake",
					"type": "error"
				},
				{
					"inputs": [],
					"name": "Sweepstake__OnlyPlayerCanRefund",
					"type": "error"
				},
				{
					"inputs": [],
					"name": "Sweepstake__PlayerAddressInvalid",
					"type": "error"
				},
				{
					"inputs": [],
					"name": "Sweepstake__PriceAlreadyDistributed",
					"type": "error"
				},
				{
					"inputs": [],
					"name": "Sweepstake__SweepstakeNotOpen",
					"type": "error"
				},
				{
					"inputs": [],
					"name": "Sweepstake__SweepstakeNotOver",
					"type": "error"
				},
				{
					"inputs": [],
					"name": "Sweepstake__TransferFailed",
					"type": "error"
				},
				{
					"inputs": [
						{
							"internalType": "uint256",
							"name": "sweepstakeState",
							"type": "uint256"
						},
						{
							"internalType": "uint256",
							"name": "numPlayers",
							"type": "uint256"
						},
						{
							"internalType": "uint256",
							"name": "currentBal",
							"type": "uint256"
						}
					],
					"name": "Sweepstake__UpkeepNotNeeded",
					"type": "error"
				},
				{
					"anonymous": false,
					"inputs": [
						{
							"indexed": false,
							"internalType": "address",
							"name": "newFeeAddress",
							"type": "address"
						}
					],
					"name": "FeeAddressChanged",
					"type": "event"
				},
				{
					"anonymous": false,
					"inputs": [
						{
							"indexed": true,
							"internalType": "address",
							"name": "refunded",
							"type": "address"
						}
					],
					"name": "RefundAddress",
					"type": "event"
				},
				{
					"anonymous": false,
					"inputs": [
						{
							"indexed": true,
							"internalType": "uint256",
							"name": "requestId",
							"type": "uint256"
						}
					],
					"name": "RequestedSweepstakeWinner",
					"type": "event"
				},
				{
					"anonymous": false,
					"inputs": [
						{
							"indexed": true,
							"internalType": "address[]",
							"name": "newPlayer",
							"type": "address[]"
						}
					],
					"name": "SweepstakeEntered",
					"type": "event"
				},
				{
					"anonymous": false,
					"inputs": [
						{
							"indexed": false,
							"internalType": "address",
							"name": "player",
							"type": "address"
						}
					],
					"name": "SweepstakeRefunded",
					"type": "event"
				},
				{
					"anonymous": false,
					"inputs": [
						{
							"indexed": false,
							"internalType": "address",
							"name": "winner",
							"type": "address"
						}
					],
					"name": "SweepstakeWinnerPicked",
					"type": "event"
				},
				{
					"inputs": [
						{
							"internalType": "address",
							"name": "",
							"type": "address"
						}
					],
					"name": "addressToSweepsatkeId",
					"outputs": [
						{
							"internalType": "uint256",
							"name": "",
							"type": "uint256"
						}
					],
					"stateMutability": "view",
					"type": "function"
				},
				{
					"inputs": [],
					"name": "charityDonation",
					"outputs": [
						{
							"internalType": "uint256",
							"name": "",
							"type": "uint256"
						}
					],
					"stateMutability": "view",
					"type": "function"
				},
				{
					"inputs": [
						{
							"internalType": "bytes",
							"name": "",
							"type": "bytes"
						}
					],
					"name": "checkUpkeep",
					"outputs": [
						{
							"internalType": "bool",
							"name": "upkeepNeeded",
							"type": "bool"
						},
						{
							"internalType": "bytes",
							"name": "",
							"type": "bytes"
						}
					],
					"stateMutability": "view",
					"type": "function"
				},
				{
					"inputs": [
						{
							"internalType": "address[]",
							"name": "newPlayers",
							"type": "address[]"
						}
					],
					"name": "enterSweepstake",
					"outputs": [],
					"stateMutability": "payable",
					"type": "function"
				},
				{
					"inputs": [
						{
							"internalType": "address",
							"name": "player",
							"type": "address"
						}
					],
					"name": "getActivePlayerIndex",
					"outputs": [
						{
							"internalType": "uint256",
							"name": "",
							"type": "uint256"
						}
					],
					"stateMutability": "view",
					"type": "function"
				},
				{
					"inputs": [
						{
							"internalType": "uint256",
							"name": "playerIndex",
							"type": "uint256"
						}
					],
					"name": "getRefund",
					"outputs": [],
					"stateMutability": "nonpayable",
					"type": "function"
				},
				{
					"inputs": [],
					"name": "getState",
					"outputs": [
						{
							"internalType": "enum Sweepstake.SweepstakeState",
							"name": "",
							"type": "uint8"
						}
					],
					"stateMutability": "view",
					"type": "function"
				},
				{
					"inputs": [],
					"name": "i_entranceFee",
					"outputs": [
						{
							"internalType": "uint256",
							"name": "",
							"type": "uint256"
						}
					],
					"stateMutability": "view",
					"type": "function"
				},
				{
					"inputs": [],
					"name": "i_interval",
					"outputs": [
						{
							"internalType": "uint256",
							"name": "",
							"type": "uint256"
						}
					],
					"stateMutability": "view",
					"type": "function"
				},
				{
					"inputs": [
						{
							"internalType": "bytes",
							"name": "",
							"type": "bytes"
						}
					],
					"name": "performUpkeep",
					"outputs": [],
					"stateMutability": "nonpayable",
					"type": "function"
				},
				{
					"inputs": [],
					"name": "protocolMaintainance",
					"outputs": [
						{
							"internalType": "uint256",
							"name": "",
							"type": "uint256"
						}
					],
					"stateMutability": "view",
					"type": "function"
				},
				{
					"inputs": [
						{
							"internalType": "uint256",
							"name": "requestId",
							"type": "uint256"
						},
						{
							"internalType": "uint256[]",
							"name": "randomWords",
							"type": "uint256[]"
						}
					],
					"name": "rawFulfillRandomWords",
					"outputs": [],
					"stateMutability": "nonpayable",
					"type": "function"
				},
				{
					"inputs": [],
					"name": "s_ProtocolMaintainanceFeeAddress",
					"outputs": [
						{
							"internalType": "address",
							"name": "",
							"type": "address"
						}
					],
					"stateMutability": "view",
					"type": "function"
				},
				{
					"inputs": [],
					"name": "s_charityDonationFeeAddress",
					"outputs": [
						{
							"internalType": "address",
							"name": "",
							"type": "address"
						}
					],
					"stateMutability": "view",
					"type": "function"
				},
				{
					"inputs": [
						{
							"internalType": "uint256",
							"name": "",
							"type": "uint256"
						}
					],
					"name": "s_players",
					"outputs": [
						{
							"internalType": "address payable",
							"name": "",
							"type": "address"
						}
					],
					"stateMutability": "view",
					"type": "function"
				},
				{
					"inputs": [],
					"name": "s_recentWinner",
					"outputs": [
						{
							"internalType": "address",
							"name": "",
							"type": "address"
						}
					],
					"stateMutability": "view",
					"type": "function"
				},
				{
					"inputs": [],
					"name": "s_sweepstakeStartTime",
					"outputs": [
						{
							"internalType": "uint256",
							"name": "",
							"type": "uint256"
						}
					],
					"stateMutability": "view",
					"type": "function"
				},
				{
					"inputs": [],
					"name": "sweepstakeId",
					"outputs": [
						{
							"internalType": "uint256",
							"name": "",
							"type": "uint256"
						}
					],
					"stateMutability": "view",
					"type": "function"
				},
				{
					"inputs": [],
					"name": "totalFees",
					"outputs": [
						{
							"internalType": "uint256",
							"name": "",
							"type": "uint256"
						}
					],
					"stateMutability": "view",
					"type": "function"
				},
				{
					"inputs": [],
					"name": "winnerPrice",
					"outputs": [
						{
							"internalType": "uint256",
							"name": "",
							"type": "uint256"
						}
					],
					"stateMutability": "view",
					"type": "function"
				},
				{
					"inputs": [],
					"name": "withdrawFees",
					"outputs": [],
					"stateMutability": "nonpayable",
					"type": "function"
				}
			],
			"devdoc": {
				"author": "Capstone Project | Defi Talents",
				"kind": "dev",
				"methods": {},
				"title": "Sweepstake Decentralized Application",
				"version": 1
			},
			"evm": {
				"assembly": "    /* \"Sweepstake.sol\":1457:9025  contract Sweepstake is VRFConsumerBaseV2, AutomationCompatibleInterface {... */\n  mstore(0x40, 0x0160)\n    /* \"Sweepstake.sol\":2489:2499  0.01 ether */\n  0x2386f26fc10000\n    /* \"Sweepstake.sol\":2448:2499  uint256 public immutable i_entranceFee = 0.01 ether */\n  0xc0\n  swap1\n  dup2\n  mstore\n  pop\n    /* \"Sweepstake.sol\":2532:2553  address(this).balance */\n  selfbalance\n    /* \"Sweepstake.sol\":2505:2553  uint256 public totalFees = address(this).balance */\n  0x04\n  sstore\n    /* \"Sweepstake.sol\":2607:2610  100 */\n  0x64\n    /* \"Sweepstake.sol\":2601:2603  80 */\n  0x50\n    /* \"Sweepstake.sol\":2589:2598  totalFees */\n  sload(0x04)\n    /* \"Sweepstake.sol\":2589:2603  totalFees * 80 */\n  tag_1\n  swap2\n  swap1\n  tag_2\n  jump\t// in\ntag_1:\n    /* \"Sweepstake.sol\":2588:2610  (totalFees * 80) / 100 */\n  tag_3\n  swap2\n  swap1\n  tag_4\n  jump\t// in\ntag_3:\n    /* \"Sweepstake.sol\":2559:2610  uint256 public winnerPrice = (totalFees * 80) / 100 */\n  0x05\n  sstore\n    /* \"Sweepstake.sol\":2668:2671  100 */\n  0x64\n    /* \"Sweepstake.sol\":2662:2664  10 */\n  0x0a\n    /* \"Sweepstake.sol\":2650:2659  totalFees */\n  sload(0x04)\n    /* \"Sweepstake.sol\":2650:2664  totalFees * 10 */\n  tag_5\n  swap2\n  swap1\n  tag_2\n  jump\t// in\ntag_5:\n    /* \"Sweepstake.sol\":2649:2671  (totalFees * 10) / 100 */\n  tag_6\n  swap2\n  swap1\n  tag_4\n  jump\t// in\ntag_6:\n    /* \"Sweepstake.sol\":2616:2671  uint256 public charityDonation = (totalFees * 10) / 100 */\n  0x06\n  sstore\n    /* \"Sweepstake.sol\":2734:2737  100 */\n  0x64\n    /* \"Sweepstake.sol\":2728:2730  10 */\n  0x0a\n    /* \"Sweepstake.sol\":2716:2725  totalFees */\n  sload(0x04)\n    /* \"Sweepstake.sol\":2716:2730  totalFees * 10 */\n  tag_7\n  swap2\n  swap1\n  tag_2\n  jump\t// in\ntag_7:\n    /* \"Sweepstake.sol\":2715:2737  (totalFees * 10) / 100 */\n  tag_8\n  swap2\n  swap1\n  tag_4\n  jump\t// in\ntag_8:\n    /* \"Sweepstake.sol\":2677:2737  uint256 public protocolMaintainance = (totalFees * 10) / 100 */\n  0x07\n  sstore\n    /* \"Sweepstake.sol\":2921:2922  0 */\n  0x00\n    /* \"Sweepstake.sol\":2891:2922  uint256 public sweepstakeId = 0 */\n  0x0a\n  sstore\n    /* \"Sweepstake.sol\":3625:4360  constructor(... */\n  callvalue\n  dup1\n  iszero\n  tag_9\n  jumpi\n  0x00\n  dup1\n  revert\ntag_9:\n  pop\n  mload(0x40)\n  sub(codesize, bytecodeSize)\n  dup1\n  bytecodeSize\n  dup4\n  codecopy\n  dup2\n  dup2\n  add\n  0x40\n  mstore\n  dup2\n  add\n  swap1\n  tag_10\n  swap2\n  swap1\n  tag_11\n  jump\t// in\ntag_10:\n    /* \"Sweepstake.sol\":3892:3908  vrfCoordinatorV2 */\n  dup4\n    /* \"@chainlink/contracts/src/v0.8/VRFConsumerBaseV2.sol\":5616:5631  _vrfCoordinator */\n  dup1\n    /* \"@chainlink/contracts/src/v0.8/VRFConsumerBaseV2.sol\":5599:5631  vrfCoordinator = _vrfCoordinator */\n  0xffffffffffffffffffffffffffffffffffffffff\n  and\n  0x80\n  dup2\n  0xffffffffffffffffffffffffffffffffffffffff\n  and\n  dup2\n  mstore\n  pop\n  pop\n    /* \"@chainlink/contracts/src/v0.8/VRFConsumerBaseV2.sol\":5556:5636  constructor(address _vrfCoordinator) {... */\n  pop\n    /* \"Sweepstake.sol\":3965:3981  vrfCoordinatorV2 */\n  dup4\n    /* \"Sweepstake.sol\":3920:3982  i_vrfCoordinator = VRFCoordinatorV2Interface(vrfCoordinatorV2) */\n  0xffffffffffffffffffffffffffffffffffffffff\n  and\n  0x0140\n  dup2\n  0xffffffffffffffffffffffffffffffffffffffff\n  and\n  dup2\n  mstore\n  pop\n  pop\n    /* \"Sweepstake.sol\":4004:4011  keyHash */\n  dup3\n    /* \"Sweepstake.sol\":3992:4011  i_keyHash = keyHash */\n  0xe0\n  dup2\n  dup2\n  mstore\n  pop\n  pop\n    /* \"Sweepstake.sol\":4031:4036  subId */\n  dup2\n    /* \"Sweepstake.sol\":4021:4036  i_subId = subId */\n  0xffffffffffffffff\n  and\n  0x0100\n  dup2\n  0xffffffffffffffff\n  and\n  dup2\n  mstore\n  pop\n  pop\n    /* \"Sweepstake.sol\":4067:4083  callbackGasLimit */\n  dup1\n    /* \"Sweepstake.sol\":4046:4083  i_callbackGasLimit = callbackGasLimit */\n  0xffffffff\n  and\n  0x0120\n  dup2\n  0xffffffff\n  and\n  dup2\n  mstore\n  pop\n  pop\n    /* \"Sweepstake.sol\":4128:4158  ProtocolMaintainanceFeeAddress */\n  dup7\n    /* \"Sweepstake.sol\":4093:4125  s_ProtocolMaintainanceFeeAddress */\n  0x09\n  0x00\n    /* \"Sweepstake.sol\":4093:4158  s_ProtocolMaintainanceFeeAddress = ProtocolMaintainanceFeeAddress */\n  0x0100\n  exp\n  dup2\n  sload\n  dup2\n  0xffffffffffffffffffffffffffffffffffffffff\n  mul\n  not\n  and\n  swap1\n  dup4\n  0xffffffffffffffffffffffffffffffffffffffff\n  and\n  mul\n  or\n  swap1\n  sstore\n  pop\n    /* \"Sweepstake.sol\":4198:4223  charityDonationFeeAddress */\n  dup6\n    /* \"Sweepstake.sol\":4168:4195  s_charityDonationFeeAddress */\n  0x08\n  0x00\n    /* \"Sweepstake.sol\":4168:4223  s_charityDonationFeeAddress = charityDonationFeeAddress */\n  0x0100\n  exp\n  dup2\n  sload\n  dup2\n  0xffffffffffffffffffffffffffffffffffffffff\n  mul\n  not\n  and\n  swap1\n  dup4\n  0xffffffffffffffffffffffffffffffffffffffff\n  and\n  mul\n  or\n  swap1\n  sstore\n  pop\n    /* \"Sweepstake.sol\":4246:4254  interval */\n  dup5\n    /* \"Sweepstake.sol\":4233:4254  i_interval = interval */\n  0xa0\n  dup2\n  dup2\n  mstore\n  pop\n  pop\n    /* \"Sweepstake.sol\":4288:4303  block.timestamp */\n  timestamp\n    /* \"Sweepstake.sol\":4264:4285  s_sweepstakeStartTime */\n  0x02\n    /* \"Sweepstake.sol\":4264:4303  s_sweepstakeStartTime = block.timestamp */\n  dup2\n  swap1\n  sstore\n  pop\n    /* \"Sweepstake.sol\":4333:4353  SweepstakeState.OPEN */\n  0x00\n    /* \"Sweepstake.sol\":4313:4330  s_sweepstakeState */\n  0x09\n  0x14\n    /* \"Sweepstake.sol\":4313:4353  s_sweepstakeState = SweepstakeState.OPEN */\n  0x0100\n  exp\n  dup2\n  sload\n  dup2\n  0xff\n  mul\n  not\n  and\n  swap1\n  dup4\n  0x01\n  dup2\n  gt\n  iszero\n  tag_16\n  jumpi\n  tag_17\n  tag_18\n  jump\t// in\ntag_17:\ntag_16:\n  mul\n  or\n  swap1\n  sstore\n  pop\n    /* \"Sweepstake.sol\":3625:4360  constructor(... */\n  pop\n  pop\n  pop\n  pop\n  pop\n  pop\n  pop\n    /* \"Sweepstake.sol\":1457:9025  contract Sweepstake is VRFConsumerBaseV2, AutomationCompatibleInterface {... */\n  jump(tag_19)\n    /* \"#utility.yul\":7:84   */\ntag_20:\n    /* \"#utility.yul\":44:51   */\n  0x00\n    /* \"#utility.yul\":73:78   */\n  dup2\n    /* \"#utility.yul\":62:78   */\n  swap1\n  pop\n    /* \"#utility.yul\":7:84   */\n  swap2\n  swap1\n  pop\n  jump\t// out\n    /* \"#utility.yul\":90:270   */\ntag_21:\n    /* \"#utility.yul\":138:215   */\n  0x4e487b7100000000000000000000000000000000000000000000000000000000\n    /* \"#utility.yul\":135:136   */\n  0x00\n    /* \"#utility.yul\":128:216   */\n  mstore\n    /* \"#utility.yul\":235:239   */\n  0x11\n    /* \"#utility.yul\":232:233   */\n  0x04\n    /* \"#utility.yul\":225:240   */\n  mstore\n    /* \"#utility.yul\":259:263   */\n  0x24\n    /* \"#utility.yul\":256:257   */\n  0x00\n    /* \"#utility.yul\":249:264   */\n  revert\n    /* \"#utility.yul\":276:686   */\ntag_2:\n    /* \"#utility.yul\":316:323   */\n  0x00\n    /* \"#utility.yul\":339:359   */\n  tag_45\n    /* \"#utility.yul\":357:358   */\n  dup3\n    /* \"#utility.yul\":339:359   */\n  tag_20\n  jump\t// in\ntag_45:\n    /* \"#utility.yul\":334:359   */\n  swap2\n  pop\n    /* \"#utility.yul\":373:393   */\n  tag_46\n    /* \"#utility.yul\":391:392   */\n  dup4\n    /* \"#utility.yul\":373:393   */\n  tag_20\n  jump\t// in\ntag_46:\n    /* \"#utility.yul\":368:393   */\n  swap3\n  pop\n    /* \"#utility.yul\":428:429   */\n  dup3\n    /* \"#utility.yul\":425:426   */\n  dup3\n    /* \"#utility.yul\":421:430   */\n  mul\n    /* \"#utility.yul\":450:480   */\n  tag_47\n    /* \"#utility.yul\":468:479   */\n  dup2\n    /* \"#utility.yul\":450:480   */\n  tag_20\n  jump\t// in\ntag_47:\n    /* \"#utility.yul\":439:480   */\n  swap2\n  pop\n    /* \"#utility.yul\":629:630   */\n  dup3\n    /* \"#utility.yul\":620:627   */\n  dup3\n    /* \"#utility.yul\":616:631   */\n  div\n    /* \"#utility.yul\":613:614   */\n  dup5\n    /* \"#utility.yul\":610:632   */\n  eq\n    /* \"#utility.yul\":590:591   */\n  dup4\n    /* \"#utility.yul\":583:592   */\n  iszero\n    /* \"#utility.yul\":563:646   */\n  or\n    /* \"#utility.yul\":540:679   */\n  tag_48\n  jumpi\n    /* \"#utility.yul\":659:677   */\n  tag_49\n  tag_21\n  jump\t// in\ntag_49:\n    /* \"#utility.yul\":540:679   */\ntag_48:\n    /* \"#utility.yul\":324:686   */\n  pop\n    /* \"#utility.yul\":276:686   */\n  swap3\n  swap2\n  pop\n  pop\n  jump\t// out\n    /* \"#utility.yul\":692:872   */\ntag_22:\n    /* \"#utility.yul\":740:817   */\n  0x4e487b7100000000000000000000000000000000000000000000000000000000\n    /* \"#utility.yul\":737:738   */\n  0x00\n    /* \"#utility.yul\":730:818   */\n  mstore\n    /* \"#utility.yul\":837:841   */\n  0x12\n    /* \"#utility.yul\":834:835   */\n  0x04\n    /* \"#utility.yul\":827:842   */\n  mstore\n    /* \"#utility.yul\":861:865   */\n  0x24\n    /* \"#utility.yul\":858:859   */\n  0x00\n    /* \"#utility.yul\":851:866   */\n  revert\n    /* \"#utility.yul\":878:1063   */\ntag_4:\n    /* \"#utility.yul\":918:919   */\n  0x00\n    /* \"#utility.yul\":935:955   */\n  tag_52\n    /* \"#utility.yul\":953:954   */\n  dup3\n    /* \"#utility.yul\":935:955   */\n  tag_20\n  jump\t// in\ntag_52:\n    /* \"#utility.yul\":930:955   */\n  swap2\n  pop\n    /* \"#utility.yul\":969:989   */\n  tag_53\n    /* \"#utility.yul\":987:988   */\n  dup4\n    /* \"#utility.yul\":969:989   */\n  tag_20\n  jump\t// in\ntag_53:\n    /* \"#utility.yul\":964:989   */\n  swap3\n  pop\n    /* \"#utility.yul\":1008:1009   */\n  dup3\n    /* \"#utility.yul\":998:1033   */\n  tag_54\n  jumpi\n    /* \"#utility.yul\":1013:1031   */\n  tag_55\n  tag_22\n  jump\t// in\ntag_55:\n    /* \"#utility.yul\":998:1033   */\ntag_54:\n    /* \"#utility.yul\":1055:1056   */\n  dup3\n    /* \"#utility.yul\":1052:1053   */\n  dup3\n    /* \"#utility.yul\":1048:1057   */\n  div\n    /* \"#utility.yul\":1043:1057   */\n  swap1\n  pop\n    /* \"#utility.yul\":878:1063   */\n  swap3\n  swap2\n  pop\n  pop\n  jump\t// out\n    /* \"#utility.yul\":1150:1267   */\ntag_24:\n    /* \"#utility.yul\":1259:1260   */\n  0x00\n    /* \"#utility.yul\":1256:1257   */\n  dup1\n    /* \"#utility.yul\":1249:1261   */\n  revert\n    /* \"#utility.yul\":1396:1522   */\ntag_26:\n    /* \"#utility.yul\":1433:1440   */\n  0x00\n    /* \"#utility.yul\":1473:1515   */\n  0xffffffffffffffffffffffffffffffffffffffff\n    /* \"#utility.yul\":1466:1471   */\n  dup3\n    /* \"#utility.yul\":1462:1516   */\n  and\n    /* \"#utility.yul\":1451:1516   */\n  swap1\n  pop\n    /* \"#utility.yul\":1396:1522   */\n  swap2\n  swap1\n  pop\n  jump\t// out\n    /* \"#utility.yul\":1528:1624   */\ntag_27:\n    /* \"#utility.yul\":1565:1572   */\n  0x00\n    /* \"#utility.yul\":1594:1618   */\n  tag_61\n    /* \"#utility.yul\":1612:1617   */\n  dup3\n    /* \"#utility.yul\":1594:1618   */\n  tag_26\n  jump\t// in\ntag_61:\n    /* \"#utility.yul\":1583:1618   */\n  swap1\n  pop\n    /* \"#utility.yul\":1528:1624   */\n  swap2\n  swap1\n  pop\n  jump\t// out\n    /* \"#utility.yul\":1630:1752   */\ntag_28:\n    /* \"#utility.yul\":1703:1727   */\n  tag_63\n    /* \"#utility.yul\":1721:1726   */\n  dup2\n    /* \"#utility.yul\":1703:1727   */\n  tag_27\n  jump\t// in\ntag_63:\n    /* \"#utility.yul\":1696:1701   */\n  dup2\n    /* \"#utility.yul\":1693:1728   */\n  eq\n    /* \"#utility.yul\":1683:1746   */\n  tag_64\n  jumpi\n    /* \"#utility.yul\":1742:1743   */\n  0x00\n    /* \"#utility.yul\":1739:1740   */\n  dup1\n    /* \"#utility.yul\":1732:1744   */\n  revert\n    /* \"#utility.yul\":1683:1746   */\ntag_64:\n    /* \"#utility.yul\":1630:1752   */\n  pop\n  jump\t// out\n    /* \"#utility.yul\":1758:1901   */\ntag_29:\n    /* \"#utility.yul\":1815:1820   */\n  0x00\n    /* \"#utility.yul\":1846:1852   */\n  dup2\n    /* \"#utility.yul\":1840:1853   */\n  mload\n    /* \"#utility.yul\":1831:1853   */\n  swap1\n  pop\n    /* \"#utility.yul\":1862:1895   */\n  tag_66\n    /* \"#utility.yul\":1889:1894   */\n  dup2\n    /* \"#utility.yul\":1862:1895   */\n  tag_28\n  jump\t// in\ntag_66:\n    /* \"#utility.yul\":1758:1901   */\n  swap3\n  swap2\n  pop\n  pop\n  jump\t// out\n    /* \"#utility.yul\":1907:2029   */\ntag_30:\n    /* \"#utility.yul\":1980:2004   */\n  tag_68\n    /* \"#utility.yul\":1998:2003   */\n  dup2\n    /* \"#utility.yul\":1980:2004   */\n  tag_20\n  jump\t// in\ntag_68:\n    /* \"#utility.yul\":1973:1978   */\n  dup2\n    /* \"#utility.yul\":1970:2005   */\n  eq\n    /* \"#utility.yul\":1960:2023   */\n  tag_69\n  jumpi\n    /* \"#utility.yul\":2019:2020   */\n  0x00\n    /* \"#utility.yul\":2016:2017   */\n  dup1\n    /* \"#utility.yul\":2009:2021   */\n  revert\n    /* \"#utility.yul\":1960:2023   */\ntag_69:\n    /* \"#utility.yul\":1907:2029   */\n  pop\n  jump\t// out\n    /* \"#utility.yul\":2035:2178   */\ntag_31:\n    /* \"#utility.yul\":2092:2097   */\n  0x00\n    /* \"#utility.yul\":2123:2129   */\n  dup2\n    /* \"#utility.yul\":2117:2130   */\n  mload\n    /* \"#utility.yul\":2108:2130   */\n  swap1\n  pop\n    /* \"#utility.yul\":2139:2172   */\n  tag_71\n    /* \"#utility.yul\":2166:2171   */\n  dup2\n    /* \"#utility.yul\":2139:2172   */\n  tag_30\n  jump\t// in\ntag_71:\n    /* \"#utility.yul\":2035:2178   */\n  swap3\n  swap2\n  pop\n  pop\n  jump\t// out\n    /* \"#utility.yul\":2184:2261   */\ntag_32:\n    /* \"#utility.yul\":2221:2228   */\n  0x00\n    /* \"#utility.yul\":2250:2255   */\n  dup2\n    /* \"#utility.yul\":2239:2255   */\n  swap1\n  pop\n    /* \"#utility.yul\":2184:2261   */\n  swap2\n  swap1\n  pop\n  jump\t// out\n    /* \"#utility.yul\":2267:2389   */\ntag_33:\n    /* \"#utility.yul\":2340:2364   */\n  tag_74\n    /* \"#utility.yul\":2358:2363   */\n  dup2\n    /* \"#utility.yul\":2340:2364   */\n  tag_32\n  jump\t// in\ntag_74:\n    /* \"#utility.yul\":2333:2338   */\n  dup2\n    /* \"#utility.yul\":2330:2365   */\n  eq\n    /* \"#utility.yul\":2320:2383   */\n  tag_75\n  jumpi\n    /* \"#utility.yul\":2379:2380   */\n  0x00\n    /* \"#utility.yul\":2376:2377   */\n  dup1\n    /* \"#utility.yul\":2369:2381   */\n  revert\n    /* \"#utility.yul\":2320:2383   */\ntag_75:\n    /* \"#utility.yul\":2267:2389   */\n  pop\n  jump\t// out\n    /* \"#utility.yul\":2395:2538   */\ntag_34:\n    /* \"#utility.yul\":2452:2457   */\n  0x00\n    /* \"#utility.yul\":2483:2489   */\n  dup2\n    /* \"#utility.yul\":2477:2490   */\n  mload\n    /* \"#utility.yul\":2468:2490   */\n  swap1\n  pop\n    /* \"#utility.yul\":2499:2532   */\n  tag_77\n    /* \"#utility.yul\":2526:2531   */\n  dup2\n    /* \"#utility.yul\":2499:2532   */\n  tag_33\n  jump\t// in\ntag_77:\n    /* \"#utility.yul\":2395:2538   */\n  swap3\n  swap2\n  pop\n  pop\n  jump\t// out\n    /* \"#utility.yul\":2544:2645   */\ntag_35:\n    /* \"#utility.yul\":2580:2587   */\n  0x00\n    /* \"#utility.yul\":2620:2638   */\n  0xffffffffffffffff\n    /* \"#utility.yul\":2613:2618   */\n  dup3\n    /* \"#utility.yul\":2609:2639   */\n  and\n    /* \"#utility.yul\":2598:2639   */\n  swap1\n  pop\n    /* \"#utility.yul\":2544:2645   */\n  swap2\n  swap1\n  pop\n  jump\t// out\n    /* \"#utility.yul\":2651:2771   */\ntag_36:\n    /* \"#utility.yul\":2723:2746   */\n  tag_80\n    /* \"#utility.yul\":2740:2745   */\n  dup2\n    /* \"#utility.yul\":2723:2746   */\n  tag_35\n  jump\t// in\ntag_80:\n    /* \"#utility.yul\":2716:2721   */\n  dup2\n    /* \"#utility.yul\":2713:2747   */\n  eq\n    /* \"#utility.yul\":2703:2765   */\n  tag_81\n  jumpi\n    /* \"#utility.yul\":2761:2762   */\n  0x00\n    /* \"#utility.yul\":2758:2759   */\n  dup1\n    /* \"#utility.yul\":2751:2763   */\n  revert\n    /* \"#utility.yul\":2703:2765   */\ntag_81:\n    /* \"#utility.yul\":2651:2771   */\n  pop\n  jump\t// out\n    /* \"#utility.yul\":2777:2918   */\ntag_37:\n    /* \"#utility.yul\":2833:2838   */\n  0x00\n    /* \"#utility.yul\":2864:2870   */\n  dup2\n    /* \"#utility.yul\":2858:2871   */\n  mload\n    /* \"#utility.yul\":2849:2871   */\n  swap1\n  pop\n    /* \"#utility.yul\":2880:2912   */\n  tag_83\n    /* \"#utility.yul\":2906:2911   */\n  dup2\n    /* \"#utility.yul\":2880:2912   */\n  tag_36\n  jump\t// in\ntag_83:\n    /* \"#utility.yul\":2777:2918   */\n  swap3\n  swap2\n  pop\n  pop\n  jump\t// out\n    /* \"#utility.yul\":2924:3017   */\ntag_38:\n    /* \"#utility.yul\":2960:2967   */\n  0x00\n    /* \"#utility.yul\":3000:3010   */\n  0xffffffff\n    /* \"#utility.yul\":2993:2998   */\n  dup3\n    /* \"#utility.yul\":2989:3011   */\n  and\n    /* \"#utility.yul\":2978:3011   */\n  swap1\n  pop\n    /* \"#utility.yul\":2924:3017   */\n  swap2\n  swap1\n  pop\n  jump\t// out\n    /* \"#utility.yul\":3023:3143   */\ntag_39:\n    /* \"#utility.yul\":3095:3118   */\n  tag_86\n    /* \"#utility.yul\":3112:3117   */\n  dup2\n    /* \"#utility.yul\":3095:3118   */\n  tag_38\n  jump\t// in\ntag_86:\n    /* \"#utility.yul\":3088:3093   */\n  dup2\n    /* \"#utility.yul\":3085:3119   */\n  eq\n    /* \"#utility.yul\":3075:3137   */\n  tag_87\n  jumpi\n    /* \"#utility.yul\":3133:3134   */\n  0x00\n    /* \"#utility.yul\":3130:3131   */\n  dup1\n    /* \"#utility.yul\":3123:3135   */\n  revert\n    /* \"#utility.yul\":3075:3137   */\ntag_87:\n    /* \"#utility.yul\":3023:3143   */\n  pop\n  jump\t// out\n    /* \"#utility.yul\":3149:3290   */\ntag_40:\n    /* \"#utility.yul\":3205:3210   */\n  0x00\n    /* \"#utility.yul\":3236:3242   */\n  dup2\n    /* \"#utility.yul\":3230:3243   */\n  mload\n    /* \"#utility.yul\":3221:3243   */\n  swap1\n  pop\n    /* \"#utility.yul\":3252:3284   */\n  tag_89\n    /* \"#utility.yul\":3278:3283   */\n  dup2\n    /* \"#utility.yul\":3252:3284   */\n  tag_39\n  jump\t// in\ntag_89:\n    /* \"#utility.yul\":3149:3290   */\n  swap3\n  swap2\n  pop\n  pop\n  jump\t// out\n    /* \"#utility.yul\":3296:4583   */\ntag_11:\n    /* \"#utility.yul\":3418:3424   */\n  0x00\n    /* \"#utility.yul\":3426:3432   */\n  dup1\n    /* \"#utility.yul\":3434:3440   */\n  0x00\n    /* \"#utility.yul\":3442:3448   */\n  dup1\n    /* \"#utility.yul\":3450:3456   */\n  0x00\n    /* \"#utility.yul\":3458:3464   */\n  dup1\n    /* \"#utility.yul\":3466:3472   */\n  0x00\n    /* \"#utility.yul\":3515:3518   */\n  0xe0\n    /* \"#utility.yul\":3503:3512   */\n  dup9\n    /* \"#utility.yul\":3494:3501   */\n  dup11\n    /* \"#utility.yul\":3490:3513   */\n  sub\n    /* \"#utility.yul\":3486:3519   */\n  slt\n    /* \"#utility.yul\":3483:3603   */\n  iszero\n  tag_91\n  jumpi\n    /* \"#utility.yul\":3522:3601   */\n  tag_92\n  tag_24\n  jump\t// in\ntag_92:\n    /* \"#utility.yul\":3483:3603   */\ntag_91:\n    /* \"#utility.yul\":3642:3643   */\n  0x00\n    /* \"#utility.yul\":3667:3731   */\n  tag_93\n    /* \"#utility.yul\":3723:3730   */\n  dup11\n    /* \"#utility.yul\":3714:3720   */\n  dup3\n    /* \"#utility.yul\":3703:3712   */\n  dup12\n    /* \"#utility.yul\":3699:3721   */\n  add\n    /* \"#utility.yul\":3667:3731   */\n  tag_29\n  jump\t// in\ntag_93:\n    /* \"#utility.yul\":3657:3731   */\n  swap8\n  pop\n    /* \"#utility.yul\":3613:3741   */\n  pop\n    /* \"#utility.yul\":3780:3782   */\n  0x20\n    /* \"#utility.yul\":3806:3870   */\n  tag_94\n    /* \"#utility.yul\":3862:3869   */\n  dup11\n    /* \"#utility.yul\":3853:3859   */\n  dup3\n    /* \"#utility.yul\":3842:3851   */\n  dup12\n    /* \"#utility.yul\":3838:3860   */\n  add\n    /* \"#utility.yul\":3806:3870   */\n  tag_29\n  jump\t// in\ntag_94:\n    /* \"#utility.yul\":3796:3870   */\n  swap7\n  pop\n    /* \"#utility.yul\":3751:3880   */\n  pop\n    /* \"#utility.yul\":3919:3921   */\n  0x40\n    /* \"#utility.yul\":3945:4009   */\n  tag_95\n    /* \"#utility.yul\":4001:4008   */\n  dup11\n    /* \"#utility.yul\":3992:3998   */\n  dup3\n    /* \"#utility.yul\":3981:3990   */\n  dup12\n    /* \"#utility.yul\":3977:3999   */\n  add\n    /* \"#utility.yul\":3945:4009   */\n  tag_31\n  jump\t// in\ntag_95:\n    /* \"#utility.yul\":3935:4009   */\n  swap6\n  pop\n    /* \"#utility.yul\":3890:4019   */\n  pop\n    /* \"#utility.yul\":4058:4060   */\n  0x60\n    /* \"#utility.yul\":4084:4148   */\n  tag_96\n    /* \"#utility.yul\":4140:4147   */\n  dup11\n    /* \"#utility.yul\":4131:4137   */\n  dup3\n    /* \"#utility.yul\":4120:4129   */\n  dup12\n    /* \"#utility.yul\":4116:4138   */\n  add\n    /* \"#utility.yul\":4084:4148   */\n  tag_29\n  jump\t// in\ntag_96:\n    /* \"#utility.yul\":4074:4148   */\n  swap5\n  pop\n    /* \"#utility.yul\":4029:4158   */\n  pop\n    /* \"#utility.yul\":4197:4200   */\n  0x80\n    /* \"#utility.yul\":4224:4288   */\n  tag_97\n    /* \"#utility.yul\":4280:4287   */\n  dup11\n    /* \"#utility.yul\":4271:4277   */\n  dup3\n    /* \"#utility.yul\":4260:4269   */\n  dup12\n    /* \"#utility.yul\":4256:4278   */\n  add\n    /* \"#utility.yul\":4224:4288   */\n  tag_34\n  jump\t// in\ntag_97:\n    /* \"#utility.yul\":4214:4288   */\n  swap4\n  pop\n    /* \"#utility.yul\":4168:4298   */\n  pop\n    /* \"#utility.yul\":4337:4340   */\n  0xa0\n    /* \"#utility.yul\":4364:4427   */\n  tag_98\n    /* \"#utility.yul\":4419:4426   */\n  dup11\n    /* \"#utility.yul\":4410:4416   */\n  dup3\n    /* \"#utility.yul\":4399:4408   */\n  dup12\n    /* \"#utility.yul\":4395:4417   */\n  add\n    /* \"#utility.yul\":4364:4427   */\n  tag_37\n  jump\t// in\ntag_98:\n    /* \"#utility.yul\":4354:4427   */\n  swap3\n  pop\n    /* \"#utility.yul\":4308:4437   */\n  pop\n    /* \"#utility.yul\":4476:4479   */\n  0xc0\n    /* \"#utility.yul\":4503:4566   */\n  tag_99\n    /* \"#utility.yul\":4558:4565   */\n  dup11\n    /* \"#utility.yul\":4549:4555   */\n  dup3\n    /* \"#utility.yul\":4538:4547   */\n  dup12\n    /* \"#utility.yul\":4534:4556   */\n  add\n    /* \"#utility.yul\":4503:4566   */\n  tag_40\n  jump\t// in\ntag_99:\n    /* \"#utility.yul\":4493:4566   */\n  swap2\n  pop\n    /* \"#utility.yul\":4447:4576   */\n  pop\n    /* \"#utility.yul\":3296:4583   */\n  swap3\n  swap6\n  swap9\n  swap2\n  swap5\n  swap8\n  pop\n  swap3\n  swap6\n  pop\n  jump\t// out\n    /* \"#utility.yul\":4589:4769   */\ntag_18:\n    /* \"#utility.yul\":4637:4714   */\n  0x4e487b7100000000000000000000000000000000000000000000000000000000\n    /* \"#utility.yul\":4634:4635   */\n  0x00\n    /* \"#utility.yul\":4627:4715   */\n  mstore\n    /* \"#utility.yul\":4734:4738   */\n  0x21\n    /* \"#utility.yul\":4731:4732   */\n  0x04\n    /* \"#utility.yul\":4724:4739   */\n  mstore\n    /* \"#utility.yul\":4758:4762   */\n  0x24\n    /* \"#utility.yul\":4755:4756   */\n  0x00\n    /* \"#utility.yul\":4748:4763   */\n  revert\n    /* \"Sweepstake.sol\":1457:9025  contract Sweepstake is VRFConsumerBaseV2, AutomationCompatibleInterface {... */\ntag_19:\n  mload(0x80)\n  mload(0xa0)\n  mload(0xc0)\n  mload(0xe0)\n  mload(0x0100)\n  mload(0x0120)\n  mload(0x0140)\n  codecopy(0x00, dataOffset(sub_0), dataSize(sub_0))\n  0x00\n  assignImmutable(\"0x74b0a73c8e019485c6bf7a8191beea41ecaf2ae440157a94156a991a62e7d3a5\")\n  0x00\n  assignImmutable(\"0xc93028bd73fae187d68ad55c5ac660bc6900065b273be8803cf809579312fc16\")\n  0x00\n  assignImmutable(\"0x1919bbb77b48a65a3a334e011819abf5317994b267bc385c63c0af09ecf64635\")\n  0x00\n  assignImmutable(\"0xe54f8e4a5d17b2e4d97cb94ddb2a2b00b3620f93c06158e24f4515b3f1ad0dd8\")\n  0x00\n  assignImmutable(\"0x2c8fba555b11fb06433ead2e3e73a93968b4d4dbd46bbdc289c1b08f53377bbe\")\n  0x00\n  assignImmutable(\"0x18cf413bee22b08ac0c7195db4322442dbcd19e34df721debc25af8855e9fdf2\")\n  0x00\n  assignImmutable(\"0x1a192fabce13988b84994d4296e6cdc418d55e2f1d7f942188d4040b94fc57ac\")\n  return(0x00, dataSize(sub_0))\nstop\n\nsub_0: assembly {\n        /* \"Sweepstake.sol\":1457:9025  contract Sweepstake is VRFConsumerBaseV2, AutomationCompatibleInterface {... */\n      mstore(0x40, 0x80)\n      jumpi(tag_1, lt(calldatasize, 0x04))\n      shr(0xe0, calldataload(0x00))\n      dup1\n      0x6919207d\n      gt\n      tag_23\n      jumpi\n      dup1\n      0xbc999960\n      gt\n      tag_24\n      jumpi\n      dup1\n      0xbc999960\n      eq\n      tag_17\n      jumpi\n      dup1\n      0xbf6ad320\n      eq\n      tag_18\n      jumpi\n      dup1\n      0xd1c8e7e6\n      eq\n      tag_19\n      jumpi\n      dup1\n      0xd2f0be99\n      eq\n      tag_20\n      jumpi\n      dup1\n      0xdb2cea75\n      eq\n      tag_21\n      jumpi\n      dup1\n      0xeefd65e5\n      eq\n      tag_22\n      jumpi\n      jump(tag_1)\n    tag_24:\n      dup1\n      0x6919207d\n      eq\n      tag_12\n      jumpi\n      dup1\n      0x6e04ff0d\n      eq\n      tag_13\n      jumpi\n      dup1\n      0x7ea3e6c1\n      eq\n      tag_14\n      jumpi\n      dup1\n      0x8638b0c6\n      eq\n      tag_15\n      jumpi\n      dup1\n      0xae771f6b\n      eq\n      tag_16\n      jumpi\n      jump(tag_1)\n    tag_23:\n      dup1\n      0x2e2bff87\n      gt\n      tag_25\n      jumpi\n      dup1\n      0x2e2bff87\n      eq\n      tag_7\n      jumpi\n      dup1\n      0x4585e33b\n      eq\n      tag_8\n      jumpi\n      dup1\n      0x4607a5eb\n      eq\n      tag_9\n      jumpi\n      dup1\n      0x476343ee\n      eq\n      tag_10\n      jumpi\n      dup1\n      0x634b63f5\n      eq\n      tag_11\n      jumpi\n      jump(tag_1)\n    tag_25:\n      dup1\n      0x13114a9d\n      eq\n      tag_2\n      jumpi\n      dup1\n      0x1865c57d\n      eq\n      tag_3\n      jumpi\n      dup1\n      0x1fe543e3\n      eq\n      tag_4\n      jumpi\n      dup1\n      0x215198cf\n      eq\n      tag_5\n      jumpi\n      dup1\n      0x238cd5ea\n      eq\n      tag_6\n      jumpi\n    tag_1:\n      0x00\n      dup1\n      revert\n        /* \"Sweepstake.sol\":2505:2553  uint256 public totalFees = address(this).balance */\n    tag_2:\n      callvalue\n      dup1\n      iszero\n      tag_26\n      jumpi\n      0x00\n      dup1\n      revert\n    tag_26:\n      pop\n      tag_27\n      tag_28\n      jump\t// in\n    tag_27:\n      mload(0x40)\n      tag_29\n      swap2\n      swap1\n      tag_30\n      jump\t// in\n    tag_29:\n      mload(0x40)\n      dup1\n      swap2\n      sub\n      swap1\n      return\n        /* \"Sweepstake.sol\":8923:9022  function getState() public view returns (SweepstakeState) {... */\n    tag_3:\n      callvalue\n      dup1\n      iszero\n      tag_31\n      jumpi\n      0x00\n      dup1\n      revert\n    tag_31:\n      pop\n      tag_32\n      tag_33\n      jump\t// in\n    tag_32:\n      mload(0x40)\n      tag_34\n      swap2\n      swap1\n      tag_35\n      jump\t// in\n    tag_34:\n      mload(0x40)\n      dup1\n      swap2\n      sub\n      swap1\n      return\n        /* \"@chainlink/contracts/src/v0.8/VRFConsumerBaseV2.sol\":6618:6874  function rawFulfillRandomWords(uint256 requestId, uint256[] memory randomWords) external {... */\n    tag_4:\n      callvalue\n      dup1\n      iszero\n      tag_36\n      jumpi\n      0x00\n      dup1\n      revert\n    tag_36:\n      pop\n      tag_37\n      0x04\n      dup1\n      calldatasize\n      sub\n      dup2\n      add\n      swap1\n      tag_38\n      swap2\n      swap1\n      tag_39\n      jump\t// in\n    tag_38:\n      tag_40\n      jump\t// in\n    tag_37:\n      stop\n        /* \"Sweepstake.sol\":4366:5383  function enterSweepstake(address[] memory newPlayers) public payable {... */\n    tag_5:\n      tag_41\n      0x04\n      dup1\n      calldatasize\n      sub\n      dup2\n      add\n      swap1\n      tag_42\n      swap2\n      swap1\n      tag_43\n      jump\t// in\n    tag_42:\n      tag_44\n      jump\t// in\n    tag_41:\n      stop\n        /* \"Sweepstake.sol\":2677:2737  uint256 public protocolMaintainance = (totalFees * 10) / 100 */\n    tag_6:\n      callvalue\n      dup1\n      iszero\n      tag_45\n      jumpi\n      0x00\n      dup1\n      revert\n    tag_45:\n      pop\n      tag_46\n      tag_47\n      jump\t// in\n    tag_46:\n      mload(0x40)\n      tag_48\n      swap2\n      swap1\n      tag_30\n      jump\t// in\n    tag_48:\n      mload(0x40)\n      dup1\n      swap2\n      sub\n      swap1\n      return\n        /* \"Sweepstake.sol\":2743:2785  address public s_charityDonationFeeAddress */\n    tag_7:\n      callvalue\n      dup1\n      iszero\n      tag_49\n      jumpi\n      0x00\n      dup1\n      revert\n    tag_49:\n      pop\n      tag_50\n      tag_51\n      jump\t// in\n    tag_50:\n      mload(0x40)\n      tag_52\n      swap2\n      swap1\n      tag_53\n      jump\t// in\n    tag_52:\n      mload(0x40)\n      dup1\n      swap2\n      sub\n      swap1\n      return\n        /* \"Sweepstake.sol\":6225:6788  function performUpkeep(bytes calldata /* performData */ ) external override {... */\n    tag_8:\n      callvalue\n      dup1\n      iszero\n      tag_54\n      jumpi\n      0x00\n      dup1\n      revert\n    tag_54:\n      pop\n      tag_55\n      0x04\n      dup1\n      calldatasize\n      sub\n      dup2\n      add\n      swap1\n      tag_56\n      swap2\n      swap1\n      tag_57\n      jump\t// in\n    tag_56:\n      tag_58\n      jump\t// in\n    tag_55:\n      stop\n        /* \"Sweepstake.sol\":2201:2257  mapping(address => uint256) public addressToSweepsatkeId */\n    tag_9:\n      callvalue\n      dup1\n      iszero\n      tag_59\n      jumpi\n      0x00\n      dup1\n      revert\n    tag_59:\n      pop\n      tag_60\n      0x04\n      dup1\n      calldatasize\n      sub\n      dup2\n      add\n      swap1\n      tag_61\n      swap2\n      swap1\n      tag_62\n      jump\t// in\n    tag_61:\n      tag_63\n      jump\t// in\n    tag_60:\n      mload(0x40)\n      tag_64\n      swap2\n      swap1\n      tag_30\n      jump\t// in\n    tag_64:\n      mload(0x40)\n      dup1\n      swap2\n      sub\n      swap1\n      return\n        /* \"Sweepstake.sol\":7546:8015  function withdrawFees() external {... */\n    tag_10:\n      callvalue\n      dup1\n      iszero\n      tag_65\n      jumpi\n      0x00\n      dup1\n      revert\n    tag_65:\n      pop\n      tag_66\n      tag_67\n      jump\t// in\n    tag_66:\n      stop\n        /* \"Sweepstake.sol\":2371:2407  uint256 public s_sweepstakeStartTime */\n    tag_11:\n      callvalue\n      dup1\n      iszero\n      tag_68\n      jumpi\n      0x00\n      dup1\n      revert\n    tag_68:\n      pop\n      tag_69\n      tag_70\n      jump\t// in\n    tag_69:\n      mload(0x40)\n      tag_71\n      swap2\n      swap1\n      tag_30\n      jump\t// in\n    tag_71:\n      mload(0x40)\n      dup1\n      swap2\n      sub\n      swap1\n      return\n        /* \"Sweepstake.sol\":2330:2365  uint256 public immutable i_interval */\n    tag_12:\n      callvalue\n      dup1\n      iszero\n      tag_72\n      jumpi\n      0x00\n      dup1\n      revert\n    tag_72:\n      pop\n      tag_73\n      tag_74\n      jump\t// in\n    tag_73:\n      mload(0x40)\n      tag_75\n      swap2\n      swap1\n      tag_30\n      jump\t// in\n    tag_75:\n      mload(0x40)\n      dup1\n      swap2\n      sub\n      swap1\n      return\n        /* \"Sweepstake.sol\":5516:6088  function checkUpkeep(bytes memory /* checkData */ )... */\n    tag_13:\n      callvalue\n      dup1\n      iszero\n      tag_76\n      jumpi\n      0x00\n      dup1\n      revert\n    tag_76:\n      pop\n      tag_77\n      0x04\n      dup1\n      calldatasize\n      sub\n      dup2\n      add\n      swap1\n      tag_78\n      swap2\n      swap1\n      tag_79\n      jump\t// in\n    tag_78:\n      tag_80\n      jump\t// in\n    tag_77:\n      mload(0x40)\n      tag_81\n      swap3\n      swap2\n      swap1\n      tag_82\n      jump\t// in\n    tag_81:\n      mload(0x40)\n      dup1\n      swap2\n      sub\n      swap1\n      return\n        /* \"Sweepstake.sol\":2448:2499  uint256 public immutable i_entranceFee = 0.01 ether */\n    tag_14:\n      callvalue\n      dup1\n      iszero\n      tag_83\n      jumpi\n      0x00\n      dup1\n      revert\n    tag_83:\n      pop\n      tag_84\n      tag_85\n      jump\t// in\n    tag_84:\n      mload(0x40)\n      tag_86\n      swap2\n      swap1\n      tag_30\n      jump\t// in\n    tag_86:\n      mload(0x40)\n      dup1\n      swap2\n      sub\n      swap1\n      return\n        /* \"Sweepstake.sol\":2413:2442  address public s_recentWinner */\n    tag_15:\n      callvalue\n      dup1\n      iszero\n      tag_87\n      jumpi\n      0x00\n      dup1\n      revert\n    tag_87:\n      pop\n      tag_88\n      tag_89\n      jump\t// in\n    tag_88:\n      mload(0x40)\n      tag_90\n      swap2\n      swap1\n      tag_53\n      jump\t// in\n    tag_90:\n      mload(0x40)\n      dup1\n      swap2\n      sub\n      swap1\n      return\n        /* \"Sweepstake.sol\":2290:2324  address payable[] public s_players */\n    tag_16:\n      callvalue\n      dup1\n      iszero\n      tag_91\n      jumpi\n      0x00\n      dup1\n      revert\n    tag_91:\n      pop\n      tag_92\n      0x04\n      dup1\n      calldatasize\n      sub\n      dup2\n      add\n      swap1\n      tag_93\n      swap2\n      swap1\n      tag_94\n      jump\t// in\n    tag_93:\n      tag_95\n      jump\t// in\n    tag_92:\n      mload(0x40)\n      tag_96\n      swap2\n      swap1\n      tag_97\n      jump\t// in\n    tag_96:\n      mload(0x40)\n      dup1\n      swap2\n      sub\n      swap1\n      return\n        /* \"Sweepstake.sol\":2791:2838  address public s_ProtocolMaintainanceFeeAddress */\n    tag_17:\n      callvalue\n      dup1\n      iszero\n      tag_98\n      jumpi\n      0x00\n      dup1\n      revert\n    tag_98:\n      pop\n      tag_99\n      tag_100\n      jump\t// in\n    tag_99:\n      mload(0x40)\n      tag_101\n      swap2\n      swap1\n      tag_53\n      jump\t// in\n    tag_101:\n      mload(0x40)\n      dup1\n      swap2\n      sub\n      swap1\n      return\n        /* \"Sweepstake.sol\":2559:2610  uint256 public winnerPrice = (totalFees * 80) / 100 */\n    tag_18:\n      callvalue\n      dup1\n      iszero\n      tag_102\n      jumpi\n      0x00\n      dup1\n      revert\n    tag_102:\n      pop\n      tag_103\n      tag_104\n      jump\t// in\n    tag_103:\n      mload(0x40)\n      tag_105\n      swap2\n      swap1\n      tag_30\n      jump\t// in\n    tag_105:\n      mload(0x40)\n      dup1\n      swap2\n      sub\n      swap1\n      return\n        /* \"Sweepstake.sol\":2616:2671  uint256 public charityDonation = (totalFees * 10) / 100 */\n    tag_19:\n      callvalue\n      dup1\n      iszero\n      tag_106\n      jumpi\n      0x00\n      dup1\n      revert\n    tag_106:\n      pop\n      tag_107\n      tag_108\n      jump\t// in\n    tag_107:\n      mload(0x40)\n      tag_109\n      swap2\n      swap1\n      tag_30\n      jump\t// in\n    tag_109:\n      mload(0x40)\n      dup1\n      swap2\n      sub\n      swap1\n      return\n        /* \"Sweepstake.sol\":8021:8594  function getRefund(uint256 playerIndex) public {... */\n    tag_20:\n      callvalue\n      dup1\n      iszero\n      tag_110\n      jumpi\n      0x00\n      dup1\n      revert\n    tag_110:\n      pop\n      tag_111\n      0x04\n      dup1\n      calldatasize\n      sub\n      dup2\n      add\n      swap1\n      tag_112\n      swap2\n      swap1\n      tag_94\n      jump\t// in\n    tag_112:\n      tag_113\n      jump\t// in\n    tag_111:\n      stop\n        /* \"Sweepstake.sol\":8600:8917  function getActivePlayerIndex(address player) external view returns (uint256) {... */\n    tag_21:\n      callvalue\n      dup1\n      iszero\n      tag_114\n      jumpi\n      0x00\n      dup1\n      revert\n    tag_114:\n      pop\n      tag_115\n      0x04\n      dup1\n      calldatasize\n      sub\n      dup2\n      add\n      swap1\n      tag_116\n      swap2\n      swap1\n      tag_62\n      jump\t// in\n    tag_116:\n      tag_117\n      jump\t// in\n    tag_115:\n      mload(0x40)\n      tag_118\n      swap2\n      swap1\n      tag_30\n      jump\t// in\n    tag_118:\n      mload(0x40)\n      dup1\n      swap2\n      sub\n      swap1\n      return\n        /* \"Sweepstake.sol\":2891:2922  uint256 public sweepstakeId = 0 */\n    tag_22:\n      callvalue\n      dup1\n      iszero\n      tag_119\n      jumpi\n      0x00\n      dup1\n      revert\n    tag_119:\n      pop\n      tag_120\n      tag_121\n      jump\t// in\n    tag_120:\n      mload(0x40)\n      tag_122\n      swap2\n      swap1\n      tag_30\n      jump\t// in\n    tag_122:\n      mload(0x40)\n      dup1\n      swap2\n      sub\n      swap1\n      return\n        /* \"Sweepstake.sol\":2505:2553  uint256 public totalFees = address(this).balance */\n    tag_28:\n      sload(0x04)\n      dup2\n      jump\t// out\n        /* \"Sweepstake.sol\":8923:9022  function getState() public view returns (SweepstakeState) {... */\n    tag_33:\n        /* \"Sweepstake.sol\":8964:8979  SweepstakeState */\n      0x00\n        /* \"Sweepstake.sol\":8998:9015  s_sweepstakeState */\n      0x09\n      0x14\n      swap1\n      sload\n      swap1\n      0x0100\n      exp\n      swap1\n      div\n      0xff\n      and\n        /* \"Sweepstake.sol\":8991:9015  return s_sweepstakeState */\n      swap1\n      pop\n        /* \"Sweepstake.sol\":8923:9022  function getState() public view returns (SweepstakeState) {... */\n      swap1\n      jump\t// out\n        /* \"@chainlink/contracts/src/v0.8/VRFConsumerBaseV2.sol\":6618:6874  function rawFulfillRandomWords(uint256 requestId, uint256[] memory randomWords) external {... */\n    tag_40:\n        /* \"@chainlink/contracts/src/v0.8/VRFConsumerBaseV2.sol\":6731:6745  vrfCoordinator */\n      immutable(\"0x1a192fabce13988b84994d4296e6cdc418d55e2f1d7f942188d4040b94fc57ac\")\n        /* \"@chainlink/contracts/src/v0.8/VRFConsumerBaseV2.sol\":6717:6745  msg.sender != vrfCoordinator */\n      0xffffffffffffffffffffffffffffffffffffffff\n      and\n        /* \"@chainlink/contracts/src/v0.8/VRFConsumerBaseV2.sol\":6717:6727  msg.sender */\n      caller\n        /* \"@chainlink/contracts/src/v0.8/VRFConsumerBaseV2.sol\":6717:6745  msg.sender != vrfCoordinator */\n      0xffffffffffffffffffffffffffffffffffffffff\n      and\n      eq\n        /* \"@chainlink/contracts/src/v0.8/VRFConsumerBaseV2.sol\":6713:6822  if (msg.sender != vrfCoordinator) {... */\n      tag_125\n      jumpi\n        /* \"@chainlink/contracts/src/v0.8/VRFConsumerBaseV2.sol\":6788:6798  msg.sender */\n      caller\n        /* \"@chainlink/contracts/src/v0.8/VRFConsumerBaseV2.sol\":6800:6814  vrfCoordinator */\n      immutable(\"0x1a192fabce13988b84994d4296e6cdc418d55e2f1d7f942188d4040b94fc57ac\")\n        /* \"@chainlink/contracts/src/v0.8/VRFConsumerBaseV2.sol\":6762:6815  OnlyCoordinatorCanFulfill(msg.sender, vrfCoordinator) */\n      mload(0x40)\n      0x1cf993f400000000000000000000000000000000000000000000000000000000\n      dup2\n      mstore\n      0x04\n      add\n      tag_126\n      swap3\n      swap2\n      swap1\n      tag_127\n      jump\t// in\n    tag_126:\n      mload(0x40)\n      dup1\n      swap2\n      sub\n      swap1\n      revert\n        /* \"@chainlink/contracts/src/v0.8/VRFConsumerBaseV2.sol\":6713:6822  if (msg.sender != vrfCoordinator) {... */\n    tag_125:\n        /* \"@chainlink/contracts/src/v0.8/VRFConsumerBaseV2.sol\":6827:6869  fulfillRandomWords(requestId, randomWords) */\n      tag_128\n        /* \"@chainlink/contracts/src/v0.8/VRFConsumerBaseV2.sol\":6846:6855  requestId */\n      dup3\n        /* \"@chainlink/contracts/src/v0.8/VRFConsumerBaseV2.sol\":6857:6868  randomWords */\n      dup3\n        /* \"@chainlink/contracts/src/v0.8/VRFConsumerBaseV2.sol\":6827:6845  fulfillRandomWords */\n      tag_129\n        /* \"@chainlink/contracts/src/v0.8/VRFConsumerBaseV2.sol\":6827:6869  fulfillRandomWords(requestId, randomWords) */\n      jump\t// in\n    tag_128:\n        /* \"@chainlink/contracts/src/v0.8/VRFConsumerBaseV2.sol\":6618:6874  function rawFulfillRandomWords(uint256 requestId, uint256[] memory randomWords) external {... */\n      pop\n      pop\n      jump\t// out\n        /* \"Sweepstake.sol\":4366:5383  function enterSweepstake(address[] memory newPlayers) public payable {... */\n    tag_44:\n        /* \"Sweepstake.sol\":4478:4488  newPlayers */\n      dup1\n        /* \"Sweepstake.sol\":4478:4495  newPlayers.length */\n      mload\n        /* \"Sweepstake.sol\":4462:4475  i_entranceFee */\n      immutable(\"0x2c8fba555b11fb06433ead2e3e73a93968b4d4dbd46bbdc289c1b08f53377bbe\")\n        /* \"Sweepstake.sol\":4462:4495  i_entranceFee * newPlayers.length */\n      tag_131\n      swap2\n      swap1\n      tag_132\n      jump\t// in\n    tag_131:\n        /* \"Sweepstake.sol\":4449:4458  msg.value */\n      callvalue\n        /* \"Sweepstake.sol\":4449:4495  msg.value != i_entranceFee * newPlayers.length */\n      eq\n        /* \"Sweepstake.sol\":4445:4572  if (msg.value != i_entranceFee * newPlayers.length) {... */\n      tag_133\n      jumpi\n        /* \"Sweepstake.sol\":4518:4561  Sweepstake__NotEnoughFeeToEnterSweepstake() */\n      mload(0x40)\n      0xd353f6a400000000000000000000000000000000000000000000000000000000\n      dup2\n      mstore\n      0x04\n      add\n      mload(0x40)\n      dup1\n      swap2\n      sub\n      swap1\n      revert\n        /* \"Sweepstake.sol\":4445:4572  if (msg.value != i_entranceFee * newPlayers.length) {... */\n    tag_133:\n        /* \"Sweepstake.sol\":4609:4626  s_sweepstakeState */\n      0x09\n      0x14\n      swap1\n      sload\n      swap1\n      0x0100\n      exp\n      swap1\n      div\n      0xff\n      and\n        /* \"Sweepstake.sol\":4585:4626  SweepstakeState.OPEN != s_sweepstakeState */\n      0x01\n      dup2\n      gt\n      iszero\n      tag_134\n      jumpi\n      tag_135\n      tag_136\n      jump\t// in\n    tag_135:\n    tag_134:\n        /* \"Sweepstake.sol\":4585:4605  SweepstakeState.OPEN */\n      0x00\n        /* \"Sweepstake.sol\":4585:4626  SweepstakeState.OPEN != s_sweepstakeState */\n      0x01\n      dup2\n      gt\n      iszero\n      tag_137\n      jumpi\n      tag_138\n      tag_136\n      jump\t// in\n    tag_138:\n    tag_137:\n      eq\n        /* \"Sweepstake.sol\":4581:4691  if (SweepstakeState.OPEN != s_sweepstakeState) {... */\n      tag_139\n      jumpi\n        /* \"Sweepstake.sol\":4649:4680  Sweepstake__SweepstakeNotOpen() */\n      mload(0x40)\n      0x2127cd5500000000000000000000000000000000000000000000000000000000\n      dup2\n      mstore\n      0x04\n      add\n      mload(0x40)\n      dup1\n      swap2\n      sub\n      swap1\n      revert\n        /* \"Sweepstake.sol\":4581:4691  if (SweepstakeState.OPEN != s_sweepstakeState) {... */\n    tag_139:\n        /* \"Sweepstake.sol\":4705:4714  uint256 i */\n      0x00\n        /* \"Sweepstake.sol\":4700:4879  for (uint256 i = 0; i < newPlayers.length; i++) {... */\n    tag_140:\n        /* \"Sweepstake.sol\":4724:4734  newPlayers */\n      dup2\n        /* \"Sweepstake.sol\":4724:4741  newPlayers.length */\n      mload\n        /* \"Sweepstake.sol\":4720:4721  i */\n      dup2\n        /* \"Sweepstake.sol\":4720:4741  i < newPlayers.length */\n      lt\n        /* \"Sweepstake.sol\":4700:4879  for (uint256 i = 0; i < newPlayers.length; i++) {... */\n      iszero\n      tag_141\n      jumpi\n        /* \"Sweepstake.sol\":4791:4792  0 */\n      0x00\n        /* \"Sweepstake.sol\":4766:4793  newPlayers[i] == address(0) */\n      0xffffffffffffffffffffffffffffffffffffffff\n      and\n        /* \"Sweepstake.sol\":4766:4776  newPlayers */\n      dup3\n        /* \"Sweepstake.sol\":4777:4778  i */\n      dup3\n        /* \"Sweepstake.sol\":4766:4779  newPlayers[i] */\n      dup2\n      mload\n      dup2\n      lt\n      tag_143\n      jumpi\n      tag_144\n      tag_145\n      jump\t// in\n    tag_144:\n    tag_143:\n      0x20\n      mul\n      0x20\n      add\n      add\n      mload\n        /* \"Sweepstake.sol\":4766:4793  newPlayers[i] == address(0) */\n      0xffffffffffffffffffffffffffffffffffffffff\n      and\n      sub\n        /* \"Sweepstake.sol\":4762:4869  if (newPlayers[i] == address(0)) {... */\n      tag_146\n      jumpi\n        /* \"Sweepstake.sol\":4820:4854  Sweepstake__PlayerAddressInvalid() */\n      mload(0x40)\n      0x77560d5600000000000000000000000000000000000000000000000000000000\n      dup2\n      mstore\n      0x04\n      add\n      mload(0x40)\n      dup1\n      swap2\n      sub\n      swap1\n      revert\n        /* \"Sweepstake.sol\":4762:4869  if (newPlayers[i] == address(0)) {... */\n    tag_146:\n        /* \"Sweepstake.sol\":4743:4746  i++ */\n      dup1\n      dup1\n      tag_147\n      swap1\n      tag_148\n      jump\t// in\n    tag_147:\n      swap2\n      pop\n      pop\n        /* \"Sweepstake.sol\":4700:4879  for (uint256 i = 0; i < newPlayers.length; i++) {... */\n      jump(tag_140)\n    tag_141:\n      pop\n        /* \"Sweepstake.sol\":4951:4960  uint256 i */\n      0x00\n        /* \"Sweepstake.sol\":4946:5145  for (uint256 i = 0; i < newPlayers.length; i++) {... */\n    tag_149:\n        /* \"Sweepstake.sol\":4970:4980  newPlayers */\n      dup2\n        /* \"Sweepstake.sol\":4970:4987  newPlayers.length */\n      mload\n        /* \"Sweepstake.sol\":4966:4967  i */\n      dup2\n        /* \"Sweepstake.sol\":4966:4987  i < newPlayers.length */\n      lt\n        /* \"Sweepstake.sol\":4946:5145  for (uint256 i = 0; i < newPlayers.length; i++) {... */\n      iszero\n      tag_150\n      jumpi\n        /* \"Sweepstake.sol\":5052:5064  sweepstakeId */\n      sload(0x0a)\n        /* \"Sweepstake.sol\":5012:5033  addressToSweepsatkeId */\n      0x00\n        /* \"Sweepstake.sol\":5012:5048  addressToSweepsatkeId[newPlayers[i]] */\n      dup1\n        /* \"Sweepstake.sol\":5034:5044  newPlayers */\n      dup5\n        /* \"Sweepstake.sol\":5045:5046  i */\n      dup5\n        /* \"Sweepstake.sol\":5034:5047  newPlayers[i] */\n      dup2\n      mload\n      dup2\n      lt\n      tag_152\n      jumpi\n      tag_153\n      tag_145\n      jump\t// in\n    tag_153:\n    tag_152:\n      0x20\n      mul\n      0x20\n      add\n      add\n      mload\n        /* \"Sweepstake.sol\":5012:5048  addressToSweepsatkeId[newPlayers[i]] */\n      0xffffffffffffffffffffffffffffffffffffffff\n      and\n      0xffffffffffffffffffffffffffffffffffffffff\n      and\n      dup2\n      mstore\n      0x20\n      add\n      swap1\n      dup2\n      mstore\n      0x20\n      add\n      0x00\n      keccak256\n      sload\n        /* \"Sweepstake.sol\":5012:5064  addressToSweepsatkeId[newPlayers[i]] != sweepstakeId */\n      eq\n        /* \"Sweepstake.sol\":5008:5135  if (addressToSweepsatkeId[newPlayers[i]] != sweepstakeId) {... */\n      tag_154\n      jumpi\n        /* \"Sweepstake.sol\":5091:5120  Sweepstake__DuplicatePlayer() */\n      mload(0x40)\n      0x842b545300000000000000000000000000000000000000000000000000000000\n      dup2\n      mstore\n      0x04\n      add\n      mload(0x40)\n      dup1\n      swap2\n      sub\n      swap1\n      revert\n        /* \"Sweepstake.sol\":5008:5135  if (addressToSweepsatkeId[newPlayers[i]] != sweepstakeId) {... */\n    tag_154:\n        /* \"Sweepstake.sol\":4989:4992  i++ */\n      dup1\n      dup1\n      tag_155\n      swap1\n      tag_148\n      jump\t// in\n    tag_155:\n      swap2\n      pop\n      pop\n        /* \"Sweepstake.sol\":4946:5145  for (uint256 i = 0; i < newPlayers.length; i++) {... */\n      jump(tag_149)\n    tag_150:\n      pop\n        /* \"Sweepstake.sol\":5160:5169  uint256 i */\n      0x00\n        /* \"Sweepstake.sol\":5155:5333  for (uint256 i = 0; i < newPlayers.length; i++) {... */\n    tag_156:\n        /* \"Sweepstake.sol\":5179:5189  newPlayers */\n      dup2\n        /* \"Sweepstake.sol\":5179:5196  newPlayers.length */\n      mload\n        /* \"Sweepstake.sol\":5175:5176  i */\n      dup2\n        /* \"Sweepstake.sol\":5175:5196  i < newPlayers.length */\n      lt\n        /* \"Sweepstake.sol\":5155:5333  for (uint256 i = 0; i < newPlayers.length; i++) {... */\n      iszero\n      tag_157\n      jumpi\n        /* \"Sweepstake.sol\":5217:5226  s_players */\n      0x01\n        /* \"Sweepstake.sol\":5241:5251  newPlayers */\n      dup3\n        /* \"Sweepstake.sol\":5252:5253  i */\n      dup3\n        /* \"Sweepstake.sol\":5241:5254  newPlayers[i] */\n      dup2\n      mload\n      dup2\n      lt\n      tag_159\n      jumpi\n      tag_160\n      tag_145\n      jump\t// in\n    tag_160:\n    tag_159:\n      0x20\n      mul\n      0x20\n      add\n      add\n      mload\n        /* \"Sweepstake.sol\":5217:5257  s_players.push(payable((newPlayers[i]))) */\n      swap1\n      dup1\n      0x01\n      dup2\n      sload\n      add\n      dup1\n      dup3\n      sstore\n      dup1\n      swap2\n      pop\n      pop\n      0x01\n      swap1\n      sub\n      swap1\n      0x00\n      mstore\n      keccak256(0x00, 0x20)\n      add\n      0x00\n      swap1\n      swap2\n      swap1\n      swap2\n      swap1\n      swap2\n      0x0100\n      exp\n      dup2\n      sload\n      dup2\n      0xffffffffffffffffffffffffffffffffffffffff\n      mul\n      not\n      and\n      swap1\n      dup4\n      0xffffffffffffffffffffffffffffffffffffffff\n      and\n      mul\n      or\n      swap1\n      sstore\n      pop\n        /* \"Sweepstake.sol\":5310:5322  sweepstakeId */\n      sload(0x0a)\n        /* \"Sweepstake.sol\":5271:5292  addressToSweepsatkeId */\n      0x00\n        /* \"Sweepstake.sol\":5271:5307  addressToSweepsatkeId[newPlayers[i]] */\n      dup1\n        /* \"Sweepstake.sol\":5293:5303  newPlayers */\n      dup5\n        /* \"Sweepstake.sol\":5304:5305  i */\n      dup5\n        /* \"Sweepstake.sol\":5293:5306  newPlayers[i] */\n      dup2\n      mload\n      dup2\n      lt\n      tag_162\n      jumpi\n      tag_163\n      tag_145\n      jump\t// in\n    tag_163:\n    tag_162:\n      0x20\n      mul\n      0x20\n      add\n      add\n      mload\n        /* \"Sweepstake.sol\":5271:5307  addressToSweepsatkeId[newPlayers[i]] */\n      0xffffffffffffffffffffffffffffffffffffffff\n      and\n      0xffffffffffffffffffffffffffffffffffffffff\n      and\n      dup2\n      mstore\n      0x20\n      add\n      swap1\n      dup2\n      mstore\n      0x20\n      add\n      0x00\n      keccak256\n        /* \"Sweepstake.sol\":5271:5322  addressToSweepsatkeId[newPlayers[i]] = sweepstakeId */\n      dup2\n      swap1\n      sstore\n      pop\n        /* \"Sweepstake.sol\":5198:5201  i++ */\n      dup1\n      dup1\n      tag_164\n      swap1\n      tag_148\n      jump\t// in\n    tag_164:\n      swap2\n      pop\n      pop\n        /* \"Sweepstake.sol\":5155:5333  for (uint256 i = 0; i < newPlayers.length; i++) {... */\n      jump(tag_156)\n    tag_157:\n      pop\n        /* \"Sweepstake.sol\":5365:5375  newPlayers */\n      dup1\n        /* \"Sweepstake.sol\":5347:5376  SweepstakeEntered(newPlayers) */\n      mload(0x40)\n      tag_165\n      swap2\n      swap1\n      tag_166\n      jump\t// in\n    tag_165:\n      mload(0x40)\n      dup1\n      swap2\n      sub\n      swap1\n      keccak256\n      0xf685cf2eaba0245dbc544c8a6b00be3838e7dde902f5887ad16fd6632161c86c\n      mload(0x40)\n      mload(0x40)\n      dup1\n      swap2\n      sub\n      swap1\n      log2\n        /* \"Sweepstake.sol\":4366:5383  function enterSweepstake(address[] memory newPlayers) public payable {... */\n      pop\n      jump\t// out\n        /* \"Sweepstake.sol\":2677:2737  uint256 public protocolMaintainance = (totalFees * 10) / 100 */\n    tag_47:\n      sload(0x07)\n      dup2\n      jump\t// out\n        /* \"Sweepstake.sol\":2743:2785  address public s_charityDonationFeeAddress */\n    tag_51:\n      0x08\n      0x00\n      swap1\n      sload\n      swap1\n      0x0100\n      exp\n      swap1\n      div\n      0xffffffffffffffffffffffffffffffffffffffff\n      and\n      dup2\n      jump\t// out\n        /* \"Sweepstake.sol\":6225:6788  function performUpkeep(bytes calldata /* performData */ ) external override {... */\n    tag_58:\n        /* \"Sweepstake.sol\":6312:6329  bool upkeepNeeded */\n      0x00\n        /* \"Sweepstake.sol\":6334:6349  checkUpkeep(\"\") */\n      tag_168\n      mload(0x40)\n      dup1\n      0x20\n      add\n      0x40\n      mstore\n      dup1\n      0x00\n      dup2\n      mstore\n      pop\n        /* \"Sweepstake.sol\":6334:6345  checkUpkeep */\n      tag_80\n        /* \"Sweepstake.sol\":6334:6349  checkUpkeep(\"\") */\n      jump\t// in\n    tag_168:\n        /* \"Sweepstake.sol\":6311:6349  (bool upkeepNeeded,) = checkUpkeep(\"\") */\n      pop\n      swap1\n      pop\n        /* \"Sweepstake.sol\":6364:6376  upkeepNeeded */\n      dup1\n        /* \"Sweepstake.sol\":6359:6506  if (!upkeepNeeded) {... */\n      tag_169\n      jumpi\n        /* \"Sweepstake.sol\":6435:6452  s_sweepstakeState */\n      0x09\n      0x14\n      swap1\n      sload\n      swap1\n      0x0100\n      exp\n      swap1\n      div\n      0xff\n      and\n        /* \"Sweepstake.sol\":6427:6453  uint256(s_sweepstakeState) */\n      0x01\n      dup2\n      gt\n      iszero\n      tag_170\n      jumpi\n      tag_171\n      tag_136\n      jump\t// in\n    tag_171:\n    tag_170:\n        /* \"Sweepstake.sol\":6455:6464  s_players */\n      0x01\n        /* \"Sweepstake.sol\":6455:6471  s_players.length */\n      dup1\n      sload\n      swap1\n      pop\n        /* \"Sweepstake.sol\":6473:6494  address(this).balance */\n      selfbalance\n        /* \"Sweepstake.sol\":6399:6495  Sweepstake__UpkeepNotNeeded(uint256(s_sweepstakeState), s_players.length, address(this).balance) */\n      mload(0x40)\n      0x4656b1a600000000000000000000000000000000000000000000000000000000\n      dup2\n      mstore\n      0x04\n      add\n      tag_172\n      swap4\n      swap3\n      swap2\n      swap1\n      tag_173\n      jump\t// in\n    tag_172:\n      mload(0x40)\n      dup1\n      swap2\n      sub\n      swap1\n      revert\n        /* \"Sweepstake.sol\":6359:6506  if (!upkeepNeeded) {... */\n    tag_169:\n        /* \"Sweepstake.sol\":6535:6562  SweepstakeState.CALCULATING */\n      0x01\n        /* \"Sweepstake.sol\":6515:6532  s_sweepstakeState */\n      0x09\n      0x14\n        /* \"Sweepstake.sol\":6515:6562  s_sweepstakeState = SweepstakeState.CALCULATING */\n      0x0100\n      exp\n      dup2\n      sload\n      dup2\n      0xff\n      mul\n      not\n      and\n      swap1\n      dup4\n      0x01\n      dup2\n      gt\n      iszero\n      tag_174\n      jumpi\n      tag_175\n      tag_136\n      jump\t// in\n    tag_175:\n    tag_174:\n      mul\n      or\n      swap1\n      sstore\n      pop\n        /* \"Sweepstake.sol\":6572:6589  uint256 requestId */\n      0x00\n        /* \"Sweepstake.sol\":6592:6608  i_vrfCoordinator */\n      immutable(\"0x74b0a73c8e019485c6bf7a8191beea41ecaf2ae440157a94156a991a62e7d3a5\")\n        /* \"Sweepstake.sol\":6592:6627  i_vrfCoordinator.requestRandomWords */\n      0xffffffffffffffffffffffffffffffffffffffff\n      and\n      0x5d3b1d30\n        /* \"Sweepstake.sol\":6641:6650  i_keyHash */\n      immutable(\"0xe54f8e4a5d17b2e4d97cb94ddb2a2b00b3620f93c06158e24f4515b3f1ad0dd8\")\n        /* \"Sweepstake.sol\":6652:6659  i_subId */\n      immutable(\"0x1919bbb77b48a65a3a334e011819abf5317994b267bc385c63c0af09ecf64635\")\n        /* \"Sweepstake.sol\":3088:3089  3 */\n      0x03\n        /* \"Sweepstake.sol\":6691:6709  i_callbackGasLimit */\n      immutable(\"0xc93028bd73fae187d68ad55c5ac660bc6900065b273be8803cf809579312fc16\")\n        /* \"Sweepstake.sol\":3180:3181  1 */\n      0x01\n        /* \"Sweepstake.sol\":6592:6730  i_vrfCoordinator.requestRandomWords(... */\n      mload(0x40)\n      dup7\n      0xffffffff\n      and\n      0xe0\n      shl\n      dup2\n      mstore\n      0x04\n      add\n      tag_176\n      swap6\n      swap5\n      swap4\n      swap3\n      swap2\n      swap1\n      tag_177\n      jump\t// in\n    tag_176:\n      0x20\n      mload(0x40)\n      dup1\n      dup4\n      sub\n      dup2\n      0x00\n      dup8\n      gas\n      call\n      iszero\n      dup1\n      iszero\n      tag_179\n      jumpi\n      returndatasize\n      0x00\n      dup1\n      returndatacopy\n      revert(0x00, returndatasize)\n    tag_179:\n      pop\n      pop\n      pop\n      pop\n      mload(0x40)\n      returndatasize\n      not(0x1f)\n      0x1f\n      dup3\n      add\n      and\n      dup3\n      add\n      dup1\n      0x40\n      mstore\n      pop\n      dup2\n      add\n      swap1\n      tag_180\n      swap2\n      swap1\n      tag_181\n      jump\t// in\n    tag_180:\n        /* \"Sweepstake.sol\":6572:6730  uint256 requestId = i_vrfCoordinator.requestRandomWords(... */\n      swap1\n      pop\n        /* \"Sweepstake.sol\":6771:6780  requestId */\n      dup1\n        /* \"Sweepstake.sol\":6745:6781  RequestedSweepstakeWinner(requestId) */\n      0xb005c91021fa8bbab4ff5893f7628abdf096d341ec58455922663e7451cf4a0f\n      mload(0x40)\n      mload(0x40)\n      dup1\n      swap2\n      sub\n      swap1\n      log2\n        /* \"Sweepstake.sol\":6301:6788  {... */\n      pop\n      pop\n        /* \"Sweepstake.sol\":6225:6788  function performUpkeep(bytes calldata /* performData */ ) external override {... */\n      pop\n      pop\n      jump\t// out\n        /* \"Sweepstake.sol\":2201:2257  mapping(address => uint256) public addressToSweepsatkeId */\n    tag_63:\n      mstore(0x20, 0x00)\n      dup1\n      0x00\n      mstore\n      keccak256(0x00, 0x40)\n      0x00\n      swap2\n      pop\n      swap1\n      pop\n      sload\n      dup2\n      jump\t// out\n        /* \"Sweepstake.sol\":7546:8015  function withdrawFees() external {... */\n    tag_67:\n        /* \"Sweepstake.sol\":7607:7639  s_ProtocolMaintainanceFeeAddress */\n      0x09\n      0x00\n      swap1\n      sload\n      swap1\n      0x0100\n      exp\n      swap1\n      div\n      0xffffffffffffffffffffffffffffffffffffffff\n      and\n        /* \"Sweepstake.sol\":7593:7639  msg.sender != s_ProtocolMaintainanceFeeAddress */\n      0xffffffffffffffffffffffffffffffffffffffff\n      and\n        /* \"Sweepstake.sol\":7593:7603  msg.sender */\n      caller\n        /* \"Sweepstake.sol\":7593:7639  msg.sender != s_ProtocolMaintainanceFeeAddress */\n      0xffffffffffffffffffffffffffffffffffffffff\n      and\n      eq\n        /* \"Sweepstake.sol\":7589:7709  if (msg.sender != s_ProtocolMaintainanceFeeAddress) {... */\n      tag_183\n      jumpi\n        /* \"Sweepstake.sol\":7662:7698  Not_ProtocolMaintainanceFeeAddress() */\n      mload(0x40)\n      0x1207fbb600000000000000000000000000000000000000000000000000000000\n      dup2\n      mstore\n      0x04\n      add\n      mload(0x40)\n      dup1\n      swap2\n      sub\n      swap1\n      revert\n        /* \"Sweepstake.sol\":7589:7709  if (msg.sender != s_ProtocolMaintainanceFeeAddress) {... */\n    tag_183:\n        /* \"Sweepstake.sol\":7719:7758  uint256 protocolMaintainanceFeeWithdraw */\n      0x00\n        /* \"Sweepstake.sol\":7761:7781  protocolMaintainance */\n      sload(0x07)\n        /* \"Sweepstake.sol\":7719:7781  uint256 protocolMaintainanceFeeWithdraw = protocolMaintainance */\n      swap1\n      pop\n        /* \"Sweepstake.sol\":7814:7815  0 */\n      0x00\n        /* \"Sweepstake.sol\":7791:7811  protocolMaintainance */\n      0x07\n        /* \"Sweepstake.sol\":7791:7815  protocolMaintainance = 0 */\n      dup2\n      swap1\n      sstore\n      pop\n        /* \"Sweepstake.sol\":7827:7839  bool success */\n      0x00\n        /* \"Sweepstake.sol\":7844:7876  s_ProtocolMaintainanceFeeAddress */\n      0x09\n      0x00\n      swap1\n      sload\n      swap1\n      0x0100\n      exp\n      swap1\n      div\n      0xffffffffffffffffffffffffffffffffffffffff\n      and\n        /* \"Sweepstake.sol\":7844:7881  s_ProtocolMaintainanceFeeAddress.call */\n      0xffffffffffffffffffffffffffffffffffffffff\n      and\n        /* \"Sweepstake.sol\":7889:7920  protocolMaintainanceFeeWithdraw */\n      dup3\n        /* \"Sweepstake.sol\":7844:7925  s_ProtocolMaintainanceFeeAddress.call{value: protocolMaintainanceFeeWithdraw}(\"\") */\n      mload(0x40)\n      tag_184\n      swap1\n      tag_185\n      jump\t// in\n    tag_184:\n      0x00\n      mload(0x40)\n      dup1\n      dup4\n      sub\n      dup2\n      dup6\n      dup8\n      gas\n      call\n      swap3\n      pop\n      pop\n      pop\n      returndatasize\n      dup1\n      0x00\n      dup2\n      eq\n      tag_188\n      jumpi\n      mload(0x40)\n      swap2\n      pop\n      and(add(returndatasize, 0x3f), not(0x1f))\n      dup3\n      add\n      0x40\n      mstore\n      returndatasize\n      dup3\n      mstore\n      returndatasize\n      0x00\n      0x20\n      dup5\n      add\n      returndatacopy\n      jump(tag_187)\n    tag_188:\n      0x60\n      swap2\n      pop\n    tag_187:\n      pop\n        /* \"Sweepstake.sol\":7826:7925  (bool success,) = s_ProtocolMaintainanceFeeAddress.call{value: protocolMaintainanceFeeWithdraw}(\"\") */\n      pop\n      swap1\n      pop\n        /* \"Sweepstake.sol\":7940:7947  success */\n      dup1\n        /* \"Sweepstake.sol\":7935:8009  if (!success) {... */\n      tag_189\n      jumpi\n        /* \"Sweepstake.sol\":7970:7998  Sweepstake__TransferFailed() */\n      mload(0x40)\n      0x84e01dfc00000000000000000000000000000000000000000000000000000000\n      dup2\n      mstore\n      0x04\n      add\n      mload(0x40)\n      dup1\n      swap2\n      sub\n      swap1\n      revert\n        /* \"Sweepstake.sol\":7935:8009  if (!success) {... */\n    tag_189:\n        /* \"Sweepstake.sol\":7579:8015  {... */\n      pop\n      pop\n        /* \"Sweepstake.sol\":7546:8015  function withdrawFees() external {... */\n      jump\t// out\n        /* \"Sweepstake.sol\":2371:2407  uint256 public s_sweepstakeStartTime */\n    tag_70:\n      sload(0x02)\n      dup2\n      jump\t// out\n        /* \"Sweepstake.sol\":2330:2365  uint256 public immutable i_interval */\n    tag_74:\n      immutable(\"0x18cf413bee22b08ac0c7195db4322442dbcd19e34df721debc25af8855e9fdf2\")\n      dup2\n      jump\t// out\n        /* \"Sweepstake.sol\":5516:6088  function checkUpkeep(bytes memory /* checkData */ )... */\n    tag_80:\n        /* \"Sweepstake.sol\":5630:5647  bool upkeepNeeded */\n      0x00\n        /* \"Sweepstake.sol\":5649:5661  bytes memory */\n      0x60\n        /* \"Sweepstake.sol\":5696:5717  bool sweepstakeIsOpen */\n      0x00\n        /* \"Sweepstake.sol\":5744:5761  s_sweepstakeState */\n      0x09\n      0x14\n      swap1\n      sload\n      swap1\n      0x0100\n      exp\n      swap1\n      div\n      0xff\n      and\n        /* \"Sweepstake.sol\":5720:5761  SweepstakeState.OPEN == s_sweepstakeState */\n      0x01\n      dup2\n      gt\n      iszero\n      tag_191\n      jumpi\n      tag_192\n      tag_136\n      jump\t// in\n    tag_192:\n    tag_191:\n        /* \"Sweepstake.sol\":5720:5740  SweepstakeState.OPEN */\n      0x00\n        /* \"Sweepstake.sol\":5720:5761  SweepstakeState.OPEN == s_sweepstakeState */\n      0x01\n      dup2\n      gt\n      iszero\n      tag_193\n      jumpi\n      tag_194\n      tag_136\n      jump\t// in\n    tag_194:\n    tag_193:\n      eq\n        /* \"Sweepstake.sol\":5696:5761  bool sweepstakeIsOpen = SweepstakeState.OPEN == s_sweepstakeState */\n      swap1\n      pop\n        /* \"Sweepstake.sol\":5771:5793  bool intervalHasPassed */\n      0x00\n        /* \"Sweepstake.sol\":5838:5848  i_interval */\n      immutable(\"0x18cf413bee22b08ac0c7195db4322442dbcd19e34df721debc25af8855e9fdf2\")\n        /* \"Sweepstake.sol\":5814:5835  s_sweepstakeStartTime */\n      sload(0x02)\n        /* \"Sweepstake.sol\":5796:5811  block.timestamp */\n      timestamp\n        /* \"Sweepstake.sol\":5796:5835  block.timestamp - s_sweepstakeStartTime */\n      tag_195\n      swap2\n      swap1\n      tag_196\n      jump\t// in\n    tag_195:\n        /* \"Sweepstake.sol\":5796:5848  block.timestamp - s_sweepstakeStartTime > i_interval */\n      gt\n        /* \"Sweepstake.sol\":5771:5848  bool intervalHasPassed = block.timestamp - s_sweepstakeStartTime > i_interval */\n      swap1\n      pop\n        /* \"Sweepstake.sol\":5858:5874  bool havePlayers */\n      0x00\n        /* \"Sweepstake.sol\":5896:5897  0 */\n      dup1\n        /* \"Sweepstake.sol\":5877:5886  s_players */\n      0x01\n        /* \"Sweepstake.sol\":5877:5893  s_players.length */\n      dup1\n      sload\n      swap1\n      pop\n        /* \"Sweepstake.sol\":5877:5897  s_players.length > 0 */\n      gt\n        /* \"Sweepstake.sol\":5858:5897  bool havePlayers = s_players.length > 0 */\n      swap1\n      pop\n        /* \"Sweepstake.sol\":5907:5922  bool hasBalance */\n      0x00\n        /* \"Sweepstake.sol\":5949:5950  0 */\n      dup1\n        /* \"Sweepstake.sol\":5925:5946  address(this).balance */\n      selfbalance\n        /* \"Sweepstake.sol\":5925:5950  address(this).balance > 0 */\n      gt\n        /* \"Sweepstake.sol\":5907:5950  bool hasBalance = address(this).balance > 0 */\n      swap1\n      pop\n        /* \"Sweepstake.sol\":5976:5992  sweepstakeIsOpen */\n      dup4\n        /* \"Sweepstake.sol\":5976:6013  sweepstakeIsOpen && intervalHasPassed */\n      dup1\n      iszero\n      tag_197\n      jumpi\n      pop\n        /* \"Sweepstake.sol\":5996:6013  intervalHasPassed */\n      dup3\n        /* \"Sweepstake.sol\":5976:6013  sweepstakeIsOpen && intervalHasPassed */\n    tag_197:\n        /* \"Sweepstake.sol\":5976:6028  sweepstakeIsOpen && intervalHasPassed && havePlayers */\n      dup1\n      iszero\n      tag_198\n      jumpi\n      pop\n        /* \"Sweepstake.sol\":6017:6028  havePlayers */\n      dup2\n        /* \"Sweepstake.sol\":5976:6028  sweepstakeIsOpen && intervalHasPassed && havePlayers */\n    tag_198:\n        /* \"Sweepstake.sol\":5976:6042  sweepstakeIsOpen && intervalHasPassed && havePlayers && hasBalance */\n      dup1\n      iszero\n      tag_199\n      jumpi\n      pop\n        /* \"Sweepstake.sol\":6032:6042  hasBalance */\n      dup1\n        /* \"Sweepstake.sol\":5976:6042  sweepstakeIsOpen && intervalHasPassed && havePlayers && hasBalance */\n    tag_199:\n        /* \"Sweepstake.sol\":5960:6043  upkeepNeeded = (sweepstakeIsOpen && intervalHasPassed && havePlayers && hasBalance) */\n      swap6\n      pop\n        /* \"Sweepstake.sol\":6061:6073  upkeepNeeded */\n      dup6\n        /* \"Sweepstake.sol\":6053:6081  return (upkeepNeeded, \"0x0\") */\n      mload(0x40)\n      dup1\n      0x40\n      add\n      0x40\n      mstore\n      dup1\n      0x03\n      dup2\n      mstore\n      0x20\n      add\n      0x3078300000000000000000000000000000000000000000000000000000000000\n      dup2\n      mstore\n      pop\n      swap6\n      pop\n      swap6\n      pop\n      pop\n      pop\n      pop\n      pop\n        /* \"Sweepstake.sol\":5516:6088  function checkUpkeep(bytes memory /* checkData */ )... */\n      swap2\n      pop\n      swap2\n      jump\t// out\n        /* \"Sweepstake.sol\":2448:2499  uint256 public immutable i_entranceFee = 0.01 ether */\n    tag_85:\n      immutable(\"0x2c8fba555b11fb06433ead2e3e73a93968b4d4dbd46bbdc289c1b08f53377bbe\")\n      dup2\n      jump\t// out\n        /* \"Sweepstake.sol\":2413:2442  address public s_recentWinner */\n    tag_89:\n      0x03\n      0x00\n      swap1\n      sload\n      swap1\n      0x0100\n      exp\n      swap1\n      div\n      0xffffffffffffffffffffffffffffffffffffffff\n      and\n      dup2\n      jump\t// out\n        /* \"Sweepstake.sol\":2290:2324  address payable[] public s_players */\n    tag_95:\n      0x01\n      dup2\n      dup2\n      sload\n      dup2\n      lt\n      tag_200\n      jumpi\n      0x00\n      dup1\n      revert\n    tag_200:\n      swap1\n      0x00\n      mstore\n      keccak256(0x00, 0x20)\n      add\n      0x00\n      swap2\n      pop\n      sload\n      swap1\n      0x0100\n      exp\n      swap1\n      div\n      0xffffffffffffffffffffffffffffffffffffffff\n      and\n      dup2\n      jump\t// out\n        /* \"Sweepstake.sol\":2791:2838  address public s_ProtocolMaintainanceFeeAddress */\n    tag_100:\n      0x09\n      0x00\n      swap1\n      sload\n      swap1\n      0x0100\n      exp\n      swap1\n      div\n      0xffffffffffffffffffffffffffffffffffffffff\n      and\n      dup2\n      jump\t// out\n        /* \"Sweepstake.sol\":2559:2610  uint256 public winnerPrice = (totalFees * 80) / 100 */\n    tag_104:\n      sload(0x05)\n      dup2\n      jump\t// out\n        /* \"Sweepstake.sol\":2616:2671  uint256 public charityDonation = (totalFees * 10) / 100 */\n    tag_108:\n      sload(0x06)\n      dup2\n      jump\t// out\n        /* \"Sweepstake.sol\":8021:8594  function getRefund(uint256 playerIndex) public {... */\n    tag_113:\n        /* \"Sweepstake.sol\":8078:8107  address payable playerAddress */\n      0x00\n        /* \"Sweepstake.sol\":8110:8119  s_players */\n      0x01\n        /* \"Sweepstake.sol\":8120:8131  playerIndex */\n      dup3\n        /* \"Sweepstake.sol\":8110:8132  s_players[playerIndex] */\n      dup2\n      sload\n      dup2\n      lt\n      tag_203\n      jumpi\n      tag_204\n      tag_145\n      jump\t// in\n    tag_204:\n    tag_203:\n      swap1\n      0x00\n      mstore\n      keccak256(0x00, 0x20)\n      add\n      0x00\n      swap1\n      sload\n      swap1\n      0x0100\n      exp\n      swap1\n      div\n      0xffffffffffffffffffffffffffffffffffffffff\n      and\n        /* \"Sweepstake.sol\":8078:8132  address payable playerAddress = s_players[playerIndex] */\n      swap1\n      pop\n        /* \"Sweepstake.sol\":8160:8173  playerAddress */\n      dup1\n        /* \"Sweepstake.sol\":8146:8173  msg.sender != playerAddress */\n      0xffffffffffffffffffffffffffffffffffffffff\n      and\n        /* \"Sweepstake.sol\":8146:8156  msg.sender */\n      caller\n        /* \"Sweepstake.sol\":8146:8173  msg.sender != playerAddress */\n      0xffffffffffffffffffffffffffffffffffffffff\n      and\n      eq\n        /* \"Sweepstake.sol\":8142:8233  if (msg.sender != playerAddress) {... */\n      tag_206\n      jumpi\n        /* \"Sweepstake.sol\":8196:8222  Sweepstake__CannotRefund() */\n      mload(0x40)\n      0xeaadc70500000000000000000000000000000000000000000000000000000000\n      dup2\n      mstore\n      0x04\n      add\n      mload(0x40)\n      dup1\n      swap2\n      sub\n      swap1\n      revert\n        /* \"Sweepstake.sol\":8142:8233  if (msg.sender != playerAddress) {... */\n    tag_206:\n        /* \"Sweepstake.sol\":8271:8272  0 */\n      0x00\n        /* \"Sweepstake.sol\":8246:8273  playerAddress == address(0) */\n      0xffffffffffffffffffffffffffffffffffffffff\n      and\n        /* \"Sweepstake.sol\":8246:8259  playerAddress */\n      dup2\n        /* \"Sweepstake.sol\":8246:8273  playerAddress == address(0) */\n      0xffffffffffffffffffffffffffffffffffffffff\n      and\n      sub\n        /* \"Sweepstake.sol\":8242:8333  if (playerAddress == address(0)) {... */\n      tag_207\n      jumpi\n        /* \"Sweepstake.sol\":8296:8322  Sweepstake__CannotRefund() */\n      mload(0x40)\n      0xeaadc70500000000000000000000000000000000000000000000000000000000\n      dup2\n      mstore\n      0x04\n      add\n      mload(0x40)\n      dup1\n      swap2\n      sub\n      swap1\n      revert\n        /* \"Sweepstake.sol\":8242:8333  if (playerAddress == address(0)) {... */\n    tag_207:\n        /* \"Sweepstake.sol\":8384:8385  0 */\n      0x00\n        /* \"Sweepstake.sol\":8343:8352  s_players */\n      0x01\n        /* \"Sweepstake.sol\":8353:8364  playerIndex */\n      dup4\n        /* \"Sweepstake.sol\":8343:8365  s_players[playerIndex] */\n      dup2\n      sload\n      dup2\n      lt\n      tag_208\n      jumpi\n      tag_209\n      tag_145\n      jump\t// in\n    tag_209:\n    tag_208:\n      swap1\n      0x00\n      mstore\n      keccak256(0x00, 0x20)\n      add\n      0x00\n        /* \"Sweepstake.sol\":8343:8387  s_players[playerIndex] = payable(address(0)) */\n      0x0100\n      exp\n      dup2\n      sload\n      dup2\n      0xffffffffffffffffffffffffffffffffffffffff\n      mul\n      not\n      and\n      swap1\n      dup4\n      0xffffffffffffffffffffffffffffffffffffffff\n      and\n      mul\n      or\n      swap1\n      sstore\n      pop\n        /* \"Sweepstake.sol\":8417:8430  playerAddress */\n      dup1\n        /* \"Sweepstake.sol\":8403:8431  RefundAddress(playerAddress) */\n      0xffffffffffffffffffffffffffffffffffffffff\n      and\n      0x69d9a1f7b99f5c0c8416e5e60744f92e2927ca1670a7591a36531f63f2f198e0\n      mload(0x40)\n      mload(0x40)\n      dup1\n      swap2\n      sub\n      swap1\n      log2\n        /* \"Sweepstake.sol\":8443:8455  bool success */\n      0x00\n        /* \"Sweepstake.sol\":8460:8473  playerAddress */\n      dup2\n        /* \"Sweepstake.sol\":8460:8478  playerAddress.call */\n      0xffffffffffffffffffffffffffffffffffffffff\n      and\n        /* \"Sweepstake.sol\":8486:8499  i_entranceFee */\n      immutable(\"0x2c8fba555b11fb06433ead2e3e73a93968b4d4dbd46bbdc289c1b08f53377bbe\")\n        /* \"Sweepstake.sol\":8460:8504  playerAddress.call{value: i_entranceFee}(\"\") */\n      mload(0x40)\n      tag_211\n      swap1\n      tag_185\n      jump\t// in\n    tag_211:\n      0x00\n      mload(0x40)\n      dup1\n      dup4\n      sub\n      dup2\n      dup6\n      dup8\n      gas\n      call\n      swap3\n      pop\n      pop\n      pop\n      returndatasize\n      dup1\n      0x00\n      dup2\n      eq\n      tag_214\n      jumpi\n      mload(0x40)\n      swap2\n      pop\n      and(add(returndatasize, 0x3f), not(0x1f))\n      dup3\n      add\n      0x40\n      mstore\n      returndatasize\n      dup3\n      mstore\n      returndatasize\n      0x00\n      0x20\n      dup5\n      add\n      returndatacopy\n      jump(tag_213)\n    tag_214:\n      0x60\n      swap2\n      pop\n    tag_213:\n      pop\n        /* \"Sweepstake.sol\":8442:8504  (bool success,) = playerAddress.call{value: i_entranceFee}(\"\") */\n      pop\n      swap1\n      pop\n        /* \"Sweepstake.sol\":8519:8526  success */\n      dup1\n        /* \"Sweepstake.sol\":8514:8588  if (!success) {... */\n      tag_215\n      jumpi\n        /* \"Sweepstake.sol\":8549:8577  Sweepstake__TransferFailed() */\n      mload(0x40)\n      0x84e01dfc00000000000000000000000000000000000000000000000000000000\n      dup2\n      mstore\n      0x04\n      add\n      mload(0x40)\n      dup1\n      swap2\n      sub\n      swap1\n      revert\n        /* \"Sweepstake.sol\":8514:8588  if (!success) {... */\n    tag_215:\n        /* \"Sweepstake.sol\":8068:8594  {... */\n      pop\n      pop\n        /* \"Sweepstake.sol\":8021:8594  function getRefund(uint256 playerIndex) public {... */\n      pop\n      jump\t// out\n        /* \"Sweepstake.sol\":8600:8917  function getActivePlayerIndex(address player) external view returns (uint256) {... */\n    tag_117:\n        /* \"Sweepstake.sol\":8669:8676  uint256 */\n      0x00\n        /* \"Sweepstake.sol\":8693:8702  uint256 i */\n      dup1\n        /* \"Sweepstake.sol\":8705:8706  0 */\n      0x00\n        /* \"Sweepstake.sol\":8693:8706  uint256 i = 0 */\n      swap1\n      pop\n        /* \"Sweepstake.sol\":8688:8828  for (uint256 i = 0; i < s_players.length; i++) {... */\n    tag_217:\n        /* \"Sweepstake.sol\":8712:8721  s_players */\n      0x01\n        /* \"Sweepstake.sol\":8712:8728  s_players.length */\n      dup1\n      sload\n      swap1\n      pop\n        /* \"Sweepstake.sol\":8708:8709  i */\n      dup2\n        /* \"Sweepstake.sol\":8708:8728  i < s_players.length */\n      lt\n        /* \"Sweepstake.sol\":8688:8828  for (uint256 i = 0; i < s_players.length; i++) {... */\n      iszero\n      tag_218\n      jumpi\n        /* \"Sweepstake.sol\":8769:8775  player */\n      dup3\n        /* \"Sweepstake.sol\":8753:8775  s_players[i] == player */\n      0xffffffffffffffffffffffffffffffffffffffff\n      and\n        /* \"Sweepstake.sol\":8753:8762  s_players */\n      0x01\n        /* \"Sweepstake.sol\":8763:8764  i */\n      dup3\n        /* \"Sweepstake.sol\":8753:8765  s_players[i] */\n      dup2\n      sload\n      dup2\n      lt\n      tag_220\n      jumpi\n      tag_221\n      tag_145\n      jump\t// in\n    tag_221:\n    tag_220:\n      swap1\n      0x00\n      mstore\n      keccak256(0x00, 0x20)\n      add\n      0x00\n      swap1\n      sload\n      swap1\n      0x0100\n      exp\n      swap1\n      div\n      0xffffffffffffffffffffffffffffffffffffffff\n      and\n        /* \"Sweepstake.sol\":8753:8775  s_players[i] == player */\n      0xffffffffffffffffffffffffffffffffffffffff\n      and\n      sub\n        /* \"Sweepstake.sol\":8749:8818  if (s_players[i] == player) {... */\n      tag_223\n      jumpi\n        /* \"Sweepstake.sol\":8802:8803  i */\n      dup1\n        /* \"Sweepstake.sol\":8795:8803  return i */\n      swap2\n      pop\n      pop\n      jump(tag_216)\n        /* \"Sweepstake.sol\":8749:8818  if (s_players[i] == player) {... */\n    tag_223:\n        /* \"Sweepstake.sol\":8730:8733  i++ */\n      dup1\n      dup1\n      tag_224\n      swap1\n      tag_148\n      jump\t// in\n    tag_224:\n      swap2\n      pop\n      pop\n        /* \"Sweepstake.sol\":8688:8828  for (uint256 i = 0; i < s_players.length; i++) {... */\n      jump(tag_217)\n    tag_218:\n      pop\n        /* \"Sweepstake.sol\":8876:8910  Sweepstake__PlayerAddressInvalid() */\n      mload(0x40)\n      0x77560d5600000000000000000000000000000000000000000000000000000000\n      dup2\n      mstore\n      0x04\n      add\n      mload(0x40)\n      dup1\n      swap2\n      sub\n      swap1\n      revert\n        /* \"Sweepstake.sol\":8600:8917  function getActivePlayerIndex(address player) external view returns (uint256) {... */\n    tag_216:\n      swap2\n      swap1\n      pop\n      jump\t// out\n        /* \"Sweepstake.sol\":2891:2922  uint256 public sweepstakeId = 0 */\n    tag_121:\n      sload(0x0a)\n      dup2\n      jump\t// out\n        /* \"Sweepstake.sol\":6819:7540  function fulfillRandomWords(uint256, /* requestId */ uint256[] memory randomWords) internal override {... */\n    tag_129:\n        /* \"Sweepstake.sol\":6979:6993  s_recentWinner */\n      0x03\n      0x00\n      swap1\n      sload\n      swap1\n      0x0100\n      exp\n      swap1\n      div\n      0xffffffffffffffffffffffffffffffffffffffff\n      and\n        /* \"Sweepstake.sol\":6965:6993  msg.sender == s_recentWinner */\n      0xffffffffffffffffffffffffffffffffffffffff\n      and\n        /* \"Sweepstake.sol\":6965:6975  msg.sender */\n      caller\n        /* \"Sweepstake.sol\":6965:6993  msg.sender == s_recentWinner */\n      0xffffffffffffffffffffffffffffffffffffffff\n      and\n      sub\n        /* \"Sweepstake.sol\":6961:7064  if (msg.sender == s_recentWinner) {... */\n      tag_226\n      jumpi\n        /* \"Sweepstake.sol\":7016:7053  Sweepstake__PriceAlreadyDistributed() */\n      mload(0x40)\n      0x3f4e0a9600000000000000000000000000000000000000000000000000000000\n      dup2\n      mstore\n      0x04\n      add\n      mload(0x40)\n      dup1\n      swap2\n      sub\n      swap1\n      revert\n        /* \"Sweepstake.sol\":6961:7064  if (msg.sender == s_recentWinner) {... */\n    tag_226:\n        /* \"Sweepstake.sol\":7074:7086  sweepstakeId */\n      0x0a\n      0x00\n        /* \"Sweepstake.sol\":7074:7088  sweepstakeId++ */\n      dup2\n      sload\n      dup1\n      swap3\n      swap2\n      swap1\n      tag_227\n      swap1\n      tag_148\n      jump\t// in\n    tag_227:\n      swap2\n      swap1\n      pop\n      sstore\n      pop\n        /* \"Sweepstake.sol\":7098:7119  uint256 indexOfWinner */\n      0x00\n        /* \"Sweepstake.sol\":7139:7148  s_players */\n      0x01\n        /* \"Sweepstake.sol\":7139:7155  s_players.length */\n      dup1\n      sload\n      swap1\n      pop\n        /* \"Sweepstake.sol\":7122:7133  randomWords */\n      dup3\n        /* \"Sweepstake.sol\":7134:7135  0 */\n      0x00\n        /* \"Sweepstake.sol\":7122:7136  randomWords[0] */\n      dup2\n      mload\n      dup2\n      lt\n      tag_228\n      jumpi\n      tag_229\n      tag_145\n      jump\t// in\n    tag_229:\n    tag_228:\n      0x20\n      mul\n      0x20\n      add\n      add\n      mload\n        /* \"Sweepstake.sol\":7122:7155  randomWords[0] % s_players.length */\n      tag_230\n      swap2\n      swap1\n      tag_231\n      jump\t// in\n    tag_230:\n        /* \"Sweepstake.sol\":7098:7155  uint256 indexOfWinner = randomWords[0] % s_players.length */\n      swap1\n      pop\n        /* \"Sweepstake.sol\":7165:7187  address payable winner */\n      0x00\n        /* \"Sweepstake.sol\":7190:7199  s_players */\n      0x01\n        /* \"Sweepstake.sol\":7200:7213  indexOfWinner */\n      dup3\n        /* \"Sweepstake.sol\":7190:7214  s_players[indexOfWinner] */\n      dup2\n      sload\n      dup2\n      lt\n      tag_232\n      jumpi\n      tag_233\n      tag_145\n      jump\t// in\n    tag_233:\n    tag_232:\n      swap1\n      0x00\n      mstore\n      keccak256(0x00, 0x20)\n      add\n      0x00\n      swap1\n      sload\n      swap1\n      0x0100\n      exp\n      swap1\n      div\n      0xffffffffffffffffffffffffffffffffffffffff\n      and\n        /* \"Sweepstake.sol\":7165:7214  address payable winner = s_players[indexOfWinner] */\n      swap1\n      pop\n        /* \"Sweepstake.sol\":7241:7247  winner */\n      dup1\n        /* \"Sweepstake.sol\":7224:7238  s_recentWinner */\n      0x03\n      0x00\n        /* \"Sweepstake.sol\":7224:7247  s_recentWinner = winner */\n      0x0100\n      exp\n      dup2\n      sload\n      dup2\n      0xffffffffffffffffffffffffffffffffffffffff\n      mul\n      not\n      and\n      swap1\n      dup4\n      0xffffffffffffffffffffffffffffffffffffffff\n      and\n      mul\n      or\n      swap1\n      sstore\n      pop\n        /* \"Sweepstake.sol\":7291:7292  0 */\n      0x00\n        /* \"Sweepstake.sol\":7269:7293  new address payable[](0) */\n      0xffffffffffffffff\n      dup2\n      gt\n      iszero\n      tag_235\n      jumpi\n      tag_236\n      tag_237\n      jump\t// in\n    tag_236:\n    tag_235:\n      mload(0x40)\n      swap1\n      dup1\n      dup3\n      mstore\n      dup1\n      0x20\n      mul\n      0x20\n      add\n      dup3\n      add\n      0x40\n      mstore\n      dup1\n      iszero\n      tag_238\n      jumpi\n      dup2\n      0x20\n      add\n      0x20\n      dup3\n      mul\n      dup1\n      calldatasize\n      dup4\n      calldatacopy\n      dup1\n      dup3\n      add\n      swap2\n      pop\n      pop\n      swap1\n      pop\n    tag_238:\n      pop\n        /* \"Sweepstake.sol\":7257:7266  s_players */\n      0x01\n        /* \"Sweepstake.sol\":7257:7293  s_players = new address payable[](0) */\n      swap1\n      dup1\n      mload\n      swap1\n      0x20\n      add\n      swap1\n      tag_239\n      swap3\n      swap2\n      swap1\n      tag_240\n      jump\t// in\n    tag_239:\n      pop\n        /* \"Sweepstake.sol\":7327:7342  block.timestamp */\n      timestamp\n        /* \"Sweepstake.sol\":7303:7324  s_sweepstakeStartTime */\n      0x02\n        /* \"Sweepstake.sol\":7303:7342  s_sweepstakeStartTime = block.timestamp */\n      dup2\n      swap1\n      sstore\n      pop\n        /* \"Sweepstake.sol\":7357:7387  SweepstakeWinnerPicked(winner) */\n      0x2eed469ddbea5cbffbb1087704e72158ac6a0400eaf22fad27fa2d5b0fc43859\n        /* \"Sweepstake.sol\":7380:7386  winner */\n      dup2\n        /* \"Sweepstake.sol\":7357:7387  SweepstakeWinnerPicked(winner) */\n      mload(0x40)\n      tag_241\n      swap2\n      swap1\n      tag_242\n      jump\t// in\n    tag_241:\n      mload(0x40)\n      dup1\n      swap2\n      sub\n      swap1\n      log1\n        /* \"Sweepstake.sol\":7398:7410  bool success */\n      0x00\n        /* \"Sweepstake.sol\":7415:7421  winner */\n      dup2\n        /* \"Sweepstake.sol\":7415:7426  winner.call */\n      0xffffffffffffffffffffffffffffffffffffffff\n      and\n        /* \"Sweepstake.sol\":7434:7445  winnerPrice */\n      sload(0x05)\n        /* \"Sweepstake.sol\":7415:7450  winner.call{value: winnerPrice}(\"\") */\n      mload(0x40)\n      tag_243\n      swap1\n      tag_185\n      jump\t// in\n    tag_243:\n      0x00\n      mload(0x40)\n      dup1\n      dup4\n      sub\n      dup2\n      dup6\n      dup8\n      gas\n      call\n      swap3\n      pop\n      pop\n      pop\n      returndatasize\n      dup1\n      0x00\n      dup2\n      eq\n      tag_246\n      jumpi\n      mload(0x40)\n      swap2\n      pop\n      and(add(returndatasize, 0x3f), not(0x1f))\n      dup3\n      add\n      0x40\n      mstore\n      returndatasize\n      dup3\n      mstore\n      returndatasize\n      0x00\n      0x20\n      dup5\n      add\n      returndatacopy\n      jump(tag_245)\n    tag_246:\n      0x60\n      swap2\n      pop\n    tag_245:\n      pop\n        /* \"Sweepstake.sol\":7397:7450  (bool success,) = winner.call{value: winnerPrice}(\"\") */\n      pop\n      swap1\n      pop\n        /* \"Sweepstake.sol\":7465:7472  success */\n      dup1\n        /* \"Sweepstake.sol\":7460:7534  if (!success) {... */\n      tag_247\n      jumpi\n        /* \"Sweepstake.sol\":7495:7523  Sweepstake__TransferFailed() */\n      mload(0x40)\n      0x84e01dfc00000000000000000000000000000000000000000000000000000000\n      dup2\n      mstore\n      0x04\n      add\n      mload(0x40)\n      dup1\n      swap2\n      sub\n      swap1\n      revert\n        /* \"Sweepstake.sol\":7460:7534  if (!success) {... */\n    tag_247:\n        /* \"Sweepstake.sol\":6920:7540  {... */\n      pop\n      pop\n      pop\n        /* \"Sweepstake.sol\":6819:7540  function fulfillRandomWords(uint256, /* requestId */ uint256[] memory randomWords) internal override {... */\n      pop\n      pop\n      jump\t// out\n    tag_240:\n      dup3\n      dup1\n      sload\n      dup3\n      dup3\n      sstore\n      swap1\n      0x00\n      mstore\n      keccak256(0x00, 0x20)\n      swap1\n      dup2\n      add\n      swap3\n      dup3\n      iszero\n      tag_248\n      jumpi\n      swap2\n      0x20\n      mul\n      dup3\n      add\n    tag_249:\n      dup3\n      dup2\n      gt\n      iszero\n      tag_250\n      jumpi\n      dup3\n      mload\n      dup3\n      exp(0x0100, 0x00)\n      dup2\n      sload\n      dup2\n      0xffffffffffffffffffffffffffffffffffffffff\n      mul\n      not\n      and\n      swap1\n      dup4\n      0xffffffffffffffffffffffffffffffffffffffff\n      and\n      mul\n      or\n      swap1\n      sstore\n      pop\n      swap2\n      0x20\n      add\n      swap2\n      swap1\n      0x01\n      add\n      swap1\n      jump(tag_249)\n    tag_250:\n    tag_248:\n      pop\n      swap1\n      pop\n      tag_251\n      swap2\n      swap1\n      tag_252\n      jump\t// in\n    tag_251:\n      pop\n      swap1\n      jump\t// out\n    tag_252:\n    tag_253:\n      dup1\n      dup3\n      gt\n      iszero\n      tag_254\n      jumpi\n      0x00\n      dup2\n      0x00\n      swap1\n      sstore\n      pop\n      0x01\n      add\n      jump(tag_253)\n    tag_254:\n      pop\n      swap1\n      jump\t// out\n        /* \"#utility.yul\":7:84   */\n    tag_255:\n        /* \"#utility.yul\":44:51   */\n      0x00\n        /* \"#utility.yul\":73:78   */\n      dup2\n        /* \"#utility.yul\":62:78   */\n      swap1\n      pop\n        /* \"#utility.yul\":7:84   */\n      swap2\n      swap1\n      pop\n      jump\t// out\n        /* \"#utility.yul\":90:208   */\n    tag_256:\n        /* \"#utility.yul\":177:201   */\n      tag_326\n        /* \"#utility.yul\":195:200   */\n      dup2\n        /* \"#utility.yul\":177:201   */\n      tag_255\n      jump\t// in\n    tag_326:\n        /* \"#utility.yul\":172:175   */\n      dup3\n        /* \"#utility.yul\":165:202   */\n      mstore\n        /* \"#utility.yul\":90:208   */\n      pop\n      pop\n      jump\t// out\n        /* \"#utility.yul\":214:436   */\n    tag_30:\n        /* \"#utility.yul\":307:311   */\n      0x00\n        /* \"#utility.yul\":345:347   */\n      0x20\n        /* \"#utility.yul\":334:343   */\n      dup3\n        /* \"#utility.yul\":330:348   */\n      add\n        /* \"#utility.yul\":322:348   */\n      swap1\n      pop\n        /* \"#utility.yul\":358:429   */\n      tag_328\n        /* \"#utility.yul\":426:427   */\n      0x00\n        /* \"#utility.yul\":415:424   */\n      dup4\n        /* \"#utility.yul\":411:428   */\n      add\n        /* \"#utility.yul\":402:408   */\n      dup5\n        /* \"#utility.yul\":358:429   */\n      tag_256\n      jump\t// in\n    tag_328:\n        /* \"#utility.yul\":214:436   */\n      swap3\n      swap2\n      pop\n      pop\n      jump\t// out\n        /* \"#utility.yul\":442:622   */\n    tag_136:\n        /* \"#utility.yul\":490:567   */\n      0x4e487b7100000000000000000000000000000000000000000000000000000000\n        /* \"#utility.yul\":487:488   */\n      0x00\n        /* \"#utility.yul\":480:568   */\n      mstore\n        /* \"#utility.yul\":587:591   */\n      0x21\n        /* \"#utility.yul\":584:585   */\n      0x04\n        /* \"#utility.yul\":577:592   */\n      mstore\n        /* \"#utility.yul\":611:615   */\n      0x24\n        /* \"#utility.yul\":608:609   */\n      0x00\n        /* \"#utility.yul\":601:616   */\n      revert\n        /* \"#utility.yul\":628:752   */\n    tag_257:\n        /* \"#utility.yul\":720:721   */\n      0x02\n        /* \"#utility.yul\":713:718   */\n      dup2\n        /* \"#utility.yul\":710:722   */\n      lt\n        /* \"#utility.yul\":700:746   */\n      tag_331\n      jumpi\n        /* \"#utility.yul\":726:744   */\n      tag_332\n      tag_136\n      jump\t// in\n    tag_332:\n        /* \"#utility.yul\":700:746   */\n    tag_331:\n        /* \"#utility.yul\":628:752   */\n      pop\n      jump\t// out\n        /* \"#utility.yul\":758:907   */\n    tag_258:\n        /* \"#utility.yul\":814:821   */\n      0x00\n        /* \"#utility.yul\":843:848   */\n      dup2\n        /* \"#utility.yul\":832:848   */\n      swap1\n      pop\n        /* \"#utility.yul\":849:901   */\n      tag_334\n        /* \"#utility.yul\":895:900   */\n      dup3\n        /* \"#utility.yul\":849:901   */\n      tag_257\n      jump\t// in\n    tag_334:\n        /* \"#utility.yul\":758:907   */\n      swap2\n      swap1\n      pop\n      jump\t// out\n        /* \"#utility.yul\":913:1062   */\n    tag_259:\n        /* \"#utility.yul\":980:989   */\n      0x00\n        /* \"#utility.yul\":1013:1056   */\n      tag_336\n        /* \"#utility.yul\":1050:1055   */\n      dup3\n        /* \"#utility.yul\":1013:1056   */\n      tag_258\n      jump\t// in\n    tag_336:\n        /* \"#utility.yul\":1000:1056   */\n      swap1\n      pop\n        /* \"#utility.yul\":913:1062   */\n      swap2\n      swap1\n      pop\n      jump\t// out\n        /* \"#utility.yul\":1068:1233   */\n    tag_260:\n        /* \"#utility.yul\":1172:1226   */\n      tag_338\n        /* \"#utility.yul\":1220:1225   */\n      dup2\n        /* \"#utility.yul\":1172:1226   */\n      tag_259\n      jump\t// in\n    tag_338:\n        /* \"#utility.yul\":1167:1170   */\n      dup3\n        /* \"#utility.yul\":1160:1227   */\n      mstore\n        /* \"#utility.yul\":1068:1233   */\n      pop\n      pop\n      jump\t// out\n        /* \"#utility.yul\":1239:1495   */\n    tag_35:\n        /* \"#utility.yul\":1349:1353   */\n      0x00\n        /* \"#utility.yul\":1387:1389   */\n      0x20\n        /* \"#utility.yul\":1376:1385   */\n      dup3\n        /* \"#utility.yul\":1372:1390   */\n      add\n        /* \"#utility.yul\":1364:1390   */\n      swap1\n      pop\n        /* \"#utility.yul\":1400:1488   */\n      tag_340\n        /* \"#utility.yul\":1485:1486   */\n      0x00\n        /* \"#utility.yul\":1474:1483   */\n      dup4\n        /* \"#utility.yul\":1470:1487   */\n      add\n        /* \"#utility.yul\":1461:1467   */\n      dup5\n        /* \"#utility.yul\":1400:1488   */\n      tag_260\n      jump\t// in\n    tag_340:\n        /* \"#utility.yul\":1239:1495   */\n      swap3\n      swap2\n      pop\n      pop\n      jump\t// out\n        /* \"#utility.yul\":1501:1576   */\n    tag_261:\n        /* \"#utility.yul\":1534:1540   */\n      0x00\n        /* \"#utility.yul\":1567:1569   */\n      0x40\n        /* \"#utility.yul\":1561:1570   */\n      mload\n        /* \"#utility.yul\":1551:1570   */\n      swap1\n      pop\n        /* \"#utility.yul\":1501:1576   */\n      swap1\n      jump\t// out\n        /* \"#utility.yul\":1582:1699   */\n    tag_262:\n        /* \"#utility.yul\":1691:1692   */\n      0x00\n        /* \"#utility.yul\":1688:1689   */\n      dup1\n        /* \"#utility.yul\":1681:1693   */\n      revert\n        /* \"#utility.yul\":1705:1822   */\n    tag_263:\n        /* \"#utility.yul\":1814:1815   */\n      0x00\n        /* \"#utility.yul\":1811:1812   */\n      dup1\n        /* \"#utility.yul\":1804:1816   */\n      revert\n        /* \"#utility.yul\":1828:1950   */\n    tag_264:\n        /* \"#utility.yul\":1901:1925   */\n      tag_345\n        /* \"#utility.yul\":1919:1924   */\n      dup2\n        /* \"#utility.yul\":1901:1925   */\n      tag_255\n      jump\t// in\n    tag_345:\n        /* \"#utility.yul\":1894:1899   */\n      dup2\n        /* \"#utility.yul\":1891:1926   */\n      eq\n        /* \"#utility.yul\":1881:1944   */\n      tag_346\n      jumpi\n        /* \"#utility.yul\":1940:1941   */\n      0x00\n        /* \"#utility.yul\":1937:1938   */\n      dup1\n        /* \"#utility.yul\":1930:1942   */\n      revert\n        /* \"#utility.yul\":1881:1944   */\n    tag_346:\n        /* \"#utility.yul\":1828:1950   */\n      pop\n      jump\t// out\n        /* \"#utility.yul\":1956:2095   */\n    tag_265:\n        /* \"#utility.yul\":2002:2007   */\n      0x00\n        /* \"#utility.yul\":2040:2046   */\n      dup2\n        /* \"#utility.yul\":2027:2047   */\n      calldataload\n        /* \"#utility.yul\":2018:2047   */\n      swap1\n      pop\n        /* \"#utility.yul\":2056:2089   */\n      tag_348\n        /* \"#utility.yul\":2083:2088   */\n      dup2\n        /* \"#utility.yul\":2056:2089   */\n      tag_264\n      jump\t// in\n    tag_348:\n        /* \"#utility.yul\":1956:2095   */\n      swap3\n      swap2\n      pop\n      pop\n      jump\t// out\n        /* \"#utility.yul\":2101:2218   */\n    tag_266:\n        /* \"#utility.yul\":2210:2211   */\n      0x00\n        /* \"#utility.yul\":2207:2208   */\n      dup1\n        /* \"#utility.yul\":2200:2212   */\n      revert\n        /* \"#utility.yul\":2224:2326   */\n    tag_267:\n        /* \"#utility.yul\":2265:2271   */\n      0x00\n        /* \"#utility.yul\":2316:2318   */\n      0x1f\n        /* \"#utility.yul\":2312:2319   */\n      not\n        /* \"#utility.yul\":2307:2309   */\n      0x1f\n        /* \"#utility.yul\":2300:2305   */\n      dup4\n        /* \"#utility.yul\":2296:2310   */\n      add\n        /* \"#utility.yul\":2292:2320   */\n      and\n        /* \"#utility.yul\":2282:2320   */\n      swap1\n      pop\n        /* \"#utility.yul\":2224:2326   */\n      swap2\n      swap1\n      pop\n      jump\t// out\n        /* \"#utility.yul\":2332:2512   */\n    tag_237:\n        /* \"#utility.yul\":2380:2457   */\n      0x4e487b7100000000000000000000000000000000000000000000000000000000\n        /* \"#utility.yul\":2377:2378   */\n      0x00\n        /* \"#utility.yul\":2370:2458   */\n      mstore\n        /* \"#utility.yul\":2477:2481   */\n      0x41\n        /* \"#utility.yul\":2474:2475   */\n      0x04\n        /* \"#utility.yul\":2467:2482   */\n      mstore\n        /* \"#utility.yul\":2501:2505   */\n      0x24\n        /* \"#utility.yul\":2498:2499   */\n      0x00\n        /* \"#utility.yul\":2491:2506   */\n      revert\n        /* \"#utility.yul\":2518:2799   */\n    tag_268:\n        /* \"#utility.yul\":2601:2628   */\n      tag_353\n        /* \"#utility.yul\":2623:2627   */\n      dup3\n        /* \"#utility.yul\":2601:2628   */\n      tag_267\n      jump\t// in\n    tag_353:\n        /* \"#utility.yul\":2593:2599   */\n      dup2\n        /* \"#utility.yul\":2589:2629   */\n      add\n        /* \"#utility.yul\":2731:2737   */\n      dup2\n        /* \"#utility.yul\":2719:2729   */\n      dup2\n        /* \"#utility.yul\":2716:2738   */\n      lt\n        /* \"#utility.yul\":2695:2713   */\n      0xffffffffffffffff\n        /* \"#utility.yul\":2683:2693   */\n      dup3\n        /* \"#utility.yul\":2680:2714   */\n      gt\n        /* \"#utility.yul\":2677:2739   */\n      or\n        /* \"#utility.yul\":2674:2762   */\n      iszero\n      tag_354\n      jumpi\n        /* \"#utility.yul\":2742:2760   */\n      tag_355\n      tag_237\n      jump\t// in\n    tag_355:\n        /* \"#utility.yul\":2674:2762   */\n    tag_354:\n        /* \"#utility.yul\":2782:2792   */\n      dup1\n        /* \"#utility.yul\":2778:2780   */\n      0x40\n        /* \"#utility.yul\":2771:2793   */\n      mstore\n        /* \"#utility.yul\":2561:2799   */\n      pop\n        /* \"#utility.yul\":2518:2799   */\n      pop\n      pop\n      jump\t// out\n        /* \"#utility.yul\":2805:2934   */\n    tag_269:\n        /* \"#utility.yul\":2839:2845   */\n      0x00\n        /* \"#utility.yul\":2866:2886   */\n      tag_357\n      tag_261\n      jump\t// in\n    tag_357:\n        /* \"#utility.yul\":2856:2886   */\n      swap1\n      pop\n        /* \"#utility.yul\":2895:2928   */\n      tag_358\n        /* \"#utility.yul\":2923:2927   */\n      dup3\n        /* \"#utility.yul\":2915:2921   */\n      dup3\n        /* \"#utility.yul\":2895:2928   */\n      tag_268\n      jump\t// in\n    tag_358:\n        /* \"#utility.yul\":2805:2934   */\n      swap2\n      swap1\n      pop\n      jump\t// out\n        /* \"#utility.yul\":2940:3251   */\n    tag_270:\n        /* \"#utility.yul\":3017:3021   */\n      0x00\n        /* \"#utility.yul\":3107:3125   */\n      0xffffffffffffffff\n        /* \"#utility.yul\":3099:3105   */\n      dup3\n        /* \"#utility.yul\":3096:3126   */\n      gt\n        /* \"#utility.yul\":3093:3149   */\n      iszero\n      tag_360\n      jumpi\n        /* \"#utility.yul\":3129:3147   */\n      tag_361\n      tag_237\n      jump\t// in\n    tag_361:\n        /* \"#utility.yul\":3093:3149   */\n    tag_360:\n        /* \"#utility.yul\":3179:3183   */\n      0x20\n        /* \"#utility.yul\":3171:3177   */\n      dup3\n        /* \"#utility.yul\":3167:3184   */\n      mul\n        /* \"#utility.yul\":3159:3184   */\n      swap1\n      pop\n        /* \"#utility.yul\":3239:3243   */\n      0x20\n        /* \"#utility.yul\":3233:3237   */\n      dup2\n        /* \"#utility.yul\":3229:3244   */\n      add\n        /* \"#utility.yul\":3221:3244   */\n      swap1\n      pop\n        /* \"#utility.yul\":2940:3251   */\n      swap2\n      swap1\n      pop\n      jump\t// out\n        /* \"#utility.yul\":3257:3374   */\n    tag_271:\n        /* \"#utility.yul\":3366:3367   */\n      0x00\n        /* \"#utility.yul\":3363:3364   */\n      dup1\n        /* \"#utility.yul\":3356:3368   */\n      revert\n        /* \"#utility.yul\":3397:4107   */\n    tag_272:\n        /* \"#utility.yul\":3493:3498   */\n      0x00\n        /* \"#utility.yul\":3518:3599   */\n      tag_364\n        /* \"#utility.yul\":3534:3598   */\n      tag_365\n        /* \"#utility.yul\":3591:3597   */\n      dup5\n        /* \"#utility.yul\":3534:3598   */\n      tag_270\n      jump\t// in\n    tag_365:\n        /* \"#utility.yul\":3518:3599   */\n      tag_269\n      jump\t// in\n    tag_364:\n        /* \"#utility.yul\":3509:3599   */\n      swap1\n      pop\n        /* \"#utility.yul\":3619:3624   */\n      dup1\n        /* \"#utility.yul\":3648:3654   */\n      dup4\n        /* \"#utility.yul\":3641:3646   */\n      dup3\n        /* \"#utility.yul\":3634:3655   */\n      mstore\n        /* \"#utility.yul\":3682:3686   */\n      0x20\n        /* \"#utility.yul\":3675:3680   */\n      dup3\n        /* \"#utility.yul\":3671:3687   */\n      add\n        /* \"#utility.yul\":3664:3687   */\n      swap1\n      pop\n        /* \"#utility.yul\":3735:3739   */\n      0x20\n        /* \"#utility.yul\":3727:3733   */\n      dup5\n        /* \"#utility.yul\":3723:3740   */\n      mul\n        /* \"#utility.yul\":3715:3721   */\n      dup4\n        /* \"#utility.yul\":3711:3741   */\n      add\n        /* \"#utility.yul\":3764:3767   */\n      dup6\n        /* \"#utility.yul\":3756:3762   */\n      dup2\n        /* \"#utility.yul\":3753:3768   */\n      gt\n        /* \"#utility.yul\":3750:3872   */\n      iszero\n      tag_366\n      jumpi\n        /* \"#utility.yul\":3783:3862   */\n      tag_367\n      tag_271\n      jump\t// in\n    tag_367:\n        /* \"#utility.yul\":3750:3872   */\n    tag_366:\n        /* \"#utility.yul\":3898:3904   */\n      dup4\n        /* \"#utility.yul\":3881:4101   */\n    tag_368:\n        /* \"#utility.yul\":3915:3921   */\n      dup2\n        /* \"#utility.yul\":3910:3913   */\n      dup2\n        /* \"#utility.yul\":3907:3922   */\n      lt\n        /* \"#utility.yul\":3881:4101   */\n      iszero\n      tag_370\n      jumpi\n        /* \"#utility.yul\":3990:3993   */\n      dup1\n        /* \"#utility.yul\":4019:4056   */\n      tag_371\n        /* \"#utility.yul\":4052:4055   */\n      dup9\n        /* \"#utility.yul\":4040:4050   */\n      dup3\n        /* \"#utility.yul\":4019:4056   */\n      tag_265\n      jump\t// in\n    tag_371:\n        /* \"#utility.yul\":4014:4017   */\n      dup5\n        /* \"#utility.yul\":4007:4057   */\n      mstore\n        /* \"#utility.yul\":4086:4090   */\n      0x20\n        /* \"#utility.yul\":4081:4084   */\n      dup5\n        /* \"#utility.yul\":4077:4091   */\n      add\n        /* \"#utility.yul\":4070:4091   */\n      swap4\n      pop\n        /* \"#utility.yul\":3957:4101   */\n      pop\n        /* \"#utility.yul\":3941:3945   */\n      0x20\n        /* \"#utility.yul\":3936:3939   */\n      dup2\n        /* \"#utility.yul\":3932:3946   */\n      add\n        /* \"#utility.yul\":3925:3946   */\n      swap1\n      pop\n        /* \"#utility.yul\":3881:4101   */\n      jump(tag_368)\n    tag_370:\n        /* \"#utility.yul\":3885:3906   */\n      pop\n        /* \"#utility.yul\":3499:4107   */\n      pop\n      pop\n        /* \"#utility.yul\":3397:4107   */\n      swap4\n      swap3\n      pop\n      pop\n      pop\n      jump\t// out\n        /* \"#utility.yul\":4130:4500   */\n    tag_273:\n        /* \"#utility.yul\":4201:4206   */\n      0x00\n        /* \"#utility.yul\":4250:4253   */\n      dup3\n        /* \"#utility.yul\":4243:4247   */\n      0x1f\n        /* \"#utility.yul\":4235:4241   */\n      dup4\n        /* \"#utility.yul\":4231:4248   */\n      add\n        /* \"#utility.yul\":4227:4254   */\n      slt\n        /* \"#utility.yul\":4217:4339   */\n      tag_373\n      jumpi\n        /* \"#utility.yul\":4258:4337   */\n      tag_374\n      tag_266\n      jump\t// in\n    tag_374:\n        /* \"#utility.yul\":4217:4339   */\n    tag_373:\n        /* \"#utility.yul\":4375:4381   */\n      dup2\n        /* \"#utility.yul\":4362:4382   */\n      calldataload\n        /* \"#utility.yul\":4400:4494   */\n      tag_375\n        /* \"#utility.yul\":4490:4493   */\n      dup5\n        /* \"#utility.yul\":4482:4488   */\n      dup3\n        /* \"#utility.yul\":4475:4479   */\n      0x20\n        /* \"#utility.yul\":4467:4473   */\n      dup7\n        /* \"#utility.yul\":4463:4480   */\n      add\n        /* \"#utility.yul\":4400:4494   */\n      tag_272\n      jump\t// in\n    tag_375:\n        /* \"#utility.yul\":4391:4494   */\n      swap2\n      pop\n        /* \"#utility.yul\":4207:4500   */\n      pop\n        /* \"#utility.yul\":4130:4500   */\n      swap3\n      swap2\n      pop\n      pop\n      jump\t// out\n        /* \"#utility.yul\":4506:5190   */\n    tag_39:\n        /* \"#utility.yul\":4599:4605   */\n      0x00\n        /* \"#utility.yul\":4607:4613   */\n      dup1\n        /* \"#utility.yul\":4656:4658   */\n      0x40\n        /* \"#utility.yul\":4644:4653   */\n      dup4\n        /* \"#utility.yul\":4635:4642   */\n      dup6\n        /* \"#utility.yul\":4631:4654   */\n      sub\n        /* \"#utility.yul\":4627:4659   */\n      slt\n        /* \"#utility.yul\":4624:4743   */\n      iszero\n      tag_377\n      jumpi\n        /* \"#utility.yul\":4662:4741   */\n      tag_378\n      tag_262\n      jump\t// in\n    tag_378:\n        /* \"#utility.yul\":4624:4743   */\n    tag_377:\n        /* \"#utility.yul\":4782:4783   */\n      0x00\n        /* \"#utility.yul\":4807:4860   */\n      tag_379\n        /* \"#utility.yul\":4852:4859   */\n      dup6\n        /* \"#utility.yul\":4843:4849   */\n      dup3\n        /* \"#utility.yul\":4832:4841   */\n      dup7\n        /* \"#utility.yul\":4828:4850   */\n      add\n        /* \"#utility.yul\":4807:4860   */\n      tag_265\n      jump\t// in\n    tag_379:\n        /* \"#utility.yul\":4797:4860   */\n      swap3\n      pop\n        /* \"#utility.yul\":4753:4870   */\n      pop\n        /* \"#utility.yul\":4937:4939   */\n      0x20\n        /* \"#utility.yul\":4926:4935   */\n      dup4\n        /* \"#utility.yul\":4922:4940   */\n      add\n        /* \"#utility.yul\":4909:4941   */\n      calldataload\n        /* \"#utility.yul\":4968:4986   */\n      0xffffffffffffffff\n        /* \"#utility.yul\":4960:4966   */\n      dup2\n        /* \"#utility.yul\":4957:4987   */\n      gt\n        /* \"#utility.yul\":4954:5071   */\n      iszero\n      tag_380\n      jumpi\n        /* \"#utility.yul\":4990:5069   */\n      tag_381\n      tag_263\n      jump\t// in\n    tag_381:\n        /* \"#utility.yul\":4954:5071   */\n    tag_380:\n        /* \"#utility.yul\":5095:5173   */\n      tag_382\n        /* \"#utility.yul\":5165:5172   */\n      dup6\n        /* \"#utility.yul\":5156:5162   */\n      dup3\n        /* \"#utility.yul\":5145:5154   */\n      dup7\n        /* \"#utility.yul\":5141:5163   */\n      add\n        /* \"#utility.yul\":5095:5173   */\n      tag_273\n      jump\t// in\n    tag_382:\n        /* \"#utility.yul\":5085:5173   */\n      swap2\n      pop\n        /* \"#utility.yul\":4880:5183   */\n      pop\n        /* \"#utility.yul\":4506:5190   */\n      swap3\n      pop\n      swap3\n      swap1\n      pop\n      jump\t// out\n        /* \"#utility.yul\":5196:5507   */\n    tag_274:\n        /* \"#utility.yul\":5273:5277   */\n      0x00\n        /* \"#utility.yul\":5363:5381   */\n      0xffffffffffffffff\n        /* \"#utility.yul\":5355:5361   */\n      dup3\n        /* \"#utility.yul\":5352:5382   */\n      gt\n        /* \"#utility.yul\":5349:5405   */\n      iszero\n      tag_384\n      jumpi\n        /* \"#utility.yul\":5385:5403   */\n      tag_385\n      tag_237\n      jump\t// in\n    tag_385:\n        /* \"#utility.yul\":5349:5405   */\n    tag_384:\n        /* \"#utility.yul\":5435:5439   */\n      0x20\n        /* \"#utility.yul\":5427:5433   */\n      dup3\n        /* \"#utility.yul\":5423:5440   */\n      mul\n        /* \"#utility.yul\":5415:5440   */\n      swap1\n      pop\n        /* \"#utility.yul\":5495:5499   */\n      0x20\n        /* \"#utility.yul\":5489:5493   */\n      dup2\n        /* \"#utility.yul\":5485:5500   */\n      add\n        /* \"#utility.yul\":5477:5500   */\n      swap1\n      pop\n        /* \"#utility.yul\":5196:5507   */\n      swap2\n      swap1\n      pop\n      jump\t// out\n        /* \"#utility.yul\":5513:5639   */\n    tag_275:\n        /* \"#utility.yul\":5550:5557   */\n      0x00\n        /* \"#utility.yul\":5590:5632   */\n      0xffffffffffffffffffffffffffffffffffffffff\n        /* \"#utility.yul\":5583:5588   */\n      dup3\n        /* \"#utility.yul\":5579:5633   */\n      and\n        /* \"#utility.yul\":5568:5633   */\n      swap1\n      pop\n        /* \"#utility.yul\":5513:5639   */\n      swap2\n      swap1\n      pop\n      jump\t// out\n        /* \"#utility.yul\":5645:5741   */\n    tag_276:\n        /* \"#utility.yul\":5682:5689   */\n      0x00\n        /* \"#utility.yul\":5711:5735   */\n      tag_388\n        /* \"#utility.yul\":5729:5734   */\n      dup3\n        /* \"#utility.yul\":5711:5735   */\n      tag_275\n      jump\t// in\n    tag_388:\n        /* \"#utility.yul\":5700:5735   */\n      swap1\n      pop\n        /* \"#utility.yul\":5645:5741   */\n      swap2\n      swap1\n      pop\n      jump\t// out\n        /* \"#utility.yul\":5747:5869   */\n    tag_277:\n        /* \"#utility.yul\":5820:5844   */\n      tag_390\n        /* \"#utility.yul\":5838:5843   */\n      dup2\n        /* \"#utility.yul\":5820:5844   */\n      tag_276\n      jump\t// in\n    tag_390:\n        /* \"#utility.yul\":5813:5818   */\n      dup2\n        /* \"#utility.yul\":5810:5845   */\n      eq\n        /* \"#utility.yul\":5800:5863   */\n      tag_391\n      jumpi\n        /* \"#utility.yul\":5859:5860   */\n      0x00\n        /* \"#utility.yul\":5856:5857   */\n      dup1\n        /* \"#utility.yul\":5849:5861   */\n      revert\n        /* \"#utility.yul\":5800:5863   */\n    tag_391:\n        /* \"#utility.yul\":5747:5869   */\n      pop\n      jump\t// out\n        /* \"#utility.yul\":5875:6014   */\n    tag_278:\n        /* \"#utility.yul\":5921:5926   */\n      0x00\n        /* \"#utility.yul\":5959:5965   */\n      dup2\n        /* \"#utility.yul\":5946:5966   */\n      calldataload\n        /* \"#utility.yul\":5937:5966   */\n      swap1\n      pop\n        /* \"#utility.yul\":5975:6008   */\n      tag_393\n        /* \"#utility.yul\":6002:6007   */\n      dup2\n        /* \"#utility.yul\":5975:6008   */\n      tag_277\n      jump\t// in\n    tag_393:\n        /* \"#utility.yul\":5875:6014   */\n      swap3\n      swap2\n      pop\n      pop\n      jump\t// out\n        /* \"#utility.yul\":6037:6747   */\n    tag_279:\n        /* \"#utility.yul\":6133:6138   */\n      0x00\n        /* \"#utility.yul\":6158:6239   */\n      tag_395\n        /* \"#utility.yul\":6174:6238   */\n      tag_396\n        /* \"#utility.yul\":6231:6237   */\n      dup5\n        /* \"#utility.yul\":6174:6238   */\n      tag_274\n      jump\t// in\n    tag_396:\n        /* \"#utility.yul\":6158:6239   */\n      tag_269\n      jump\t// in\n    tag_395:\n        /* \"#utility.yul\":6149:6239   */\n      swap1\n      pop\n        /* \"#utility.yul\":6259:6264   */\n      dup1\n        /* \"#utility.yul\":6288:6294   */\n      dup4\n        /* \"#utility.yul\":6281:6286   */\n      dup3\n        /* \"#utility.yul\":6274:6295   */\n      mstore\n        /* \"#utility.yul\":6322:6326   */\n      0x20\n        /* \"#utility.yul\":6315:6320   */\n      dup3\n        /* \"#utility.yul\":6311:6327   */\n      add\n        /* \"#utility.yul\":6304:6327   */\n      swap1\n      pop\n        /* \"#utility.yul\":6375:6379   */\n      0x20\n        /* \"#utility.yul\":6367:6373   */\n      dup5\n        /* \"#utility.yul\":6363:6380   */\n      mul\n        /* \"#utility.yul\":6355:6361   */\n      dup4\n        /* \"#utility.yul\":6351:6381   */\n      add\n        /* \"#utility.yul\":6404:6407   */\n      dup6\n        /* \"#utility.yul\":6396:6402   */\n      dup2\n        /* \"#utility.yul\":6393:6408   */\n      gt\n        /* \"#utility.yul\":6390:6512   */\n      iszero\n      tag_397\n      jumpi\n        /* \"#utility.yul\":6423:6502   */\n      tag_398\n      tag_271\n      jump\t// in\n    tag_398:\n        /* \"#utility.yul\":6390:6512   */\n    tag_397:\n        /* \"#utility.yul\":6538:6544   */\n      dup4\n        /* \"#utility.yul\":6521:6741   */\n    tag_399:\n        /* \"#utility.yul\":6555:6561   */\n      dup2\n        /* \"#utility.yul\":6550:6553   */\n      dup2\n        /* \"#utility.yul\":6547:6562   */\n      lt\n        /* \"#utility.yul\":6521:6741   */\n      iszero\n      tag_401\n      jumpi\n        /* \"#utility.yul\":6630:6633   */\n      dup1\n        /* \"#utility.yul\":6659:6696   */\n      tag_402\n        /* \"#utility.yul\":6692:6695   */\n      dup9\n        /* \"#utility.yul\":6680:6690   */\n      dup3\n        /* \"#utility.yul\":6659:6696   */\n      tag_278\n      jump\t// in\n    tag_402:\n        /* \"#utility.yul\":6654:6657   */\n      dup5\n        /* \"#utility.yul\":6647:6697   */\n      mstore\n        /* \"#utility.yul\":6726:6730   */\n      0x20\n        /* \"#utility.yul\":6721:6724   */\n      dup5\n        /* \"#utility.yul\":6717:6731   */\n      add\n        /* \"#utility.yul\":6710:6731   */\n      swap4\n      pop\n        /* \"#utility.yul\":6597:6741   */\n      pop\n        /* \"#utility.yul\":6581:6585   */\n      0x20\n        /* \"#utility.yul\":6576:6579   */\n      dup2\n        /* \"#utility.yul\":6572:6586   */\n      add\n        /* \"#utility.yul\":6565:6586   */\n      swap1\n      pop\n        /* \"#utility.yul\":6521:6741   */\n      jump(tag_399)\n    tag_401:\n        /* \"#utility.yul\":6525:6546   */\n      pop\n        /* \"#utility.yul\":6139:6747   */\n      pop\n      pop\n        /* \"#utility.yul\":6037:6747   */\n      swap4\n      swap3\n      pop\n      pop\n      pop\n      jump\t// out\n        /* \"#utility.yul\":6770:7140   */\n    tag_280:\n        /* \"#utility.yul\":6841:6846   */\n      0x00\n        /* \"#utility.yul\":6890:6893   */\n      dup3\n        /* \"#utility.yul\":6883:6887   */\n      0x1f\n        /* \"#utility.yul\":6875:6881   */\n      dup4\n        /* \"#utility.yul\":6871:6888   */\n      add\n        /* \"#utility.yul\":6867:6894   */\n      slt\n        /* \"#utility.yul\":6857:6979   */\n      tag_404\n      jumpi\n        /* \"#utility.yul\":6898:6977   */\n      tag_405\n      tag_266\n      jump\t// in\n    tag_405:\n        /* \"#utility.yul\":6857:6979   */\n    tag_404:\n        /* \"#utility.yul\":7015:7021   */\n      dup2\n        /* \"#utility.yul\":7002:7022   */\n      calldataload\n        /* \"#utility.yul\":7040:7134   */\n      tag_406\n        /* \"#utility.yul\":7130:7133   */\n      dup5\n        /* \"#utility.yul\":7122:7128   */\n      dup3\n        /* \"#utility.yul\":7115:7119   */\n      0x20\n        /* \"#utility.yul\":7107:7113   */\n      dup7\n        /* \"#utility.yul\":7103:7120   */\n      add\n        /* \"#utility.yul\":7040:7134   */\n      tag_279\n      jump\t// in\n    tag_406:\n        /* \"#utility.yul\":7031:7134   */\n      swap2\n      pop\n        /* \"#utility.yul\":6847:7140   */\n      pop\n        /* \"#utility.yul\":6770:7140   */\n      swap3\n      swap2\n      pop\n      pop\n      jump\t// out\n        /* \"#utility.yul\":7146:7685   */\n    tag_43:\n        /* \"#utility.yul\":7230:7236   */\n      0x00\n        /* \"#utility.yul\":7279:7281   */\n      0x20\n        /* \"#utility.yul\":7267:7276   */\n      dup3\n        /* \"#utility.yul\":7258:7265   */\n      dup5\n        /* \"#utility.yul\":7254:7277   */\n      sub\n        /* \"#utility.yul\":7250:7282   */\n      slt\n        /* \"#utility.yul\":7247:7366   */\n      iszero\n      tag_408\n      jumpi\n        /* \"#utility.yul\":7285:7364   */\n      tag_409\n      tag_262\n      jump\t// in\n    tag_409:\n        /* \"#utility.yul\":7247:7366   */\n    tag_408:\n        /* \"#utility.yul\":7433:7434   */\n      0x00\n        /* \"#utility.yul\":7422:7431   */\n      dup3\n        /* \"#utility.yul\":7418:7435   */\n      add\n        /* \"#utility.yul\":7405:7436   */\n      calldataload\n        /* \"#utility.yul\":7463:7481   */\n      0xffffffffffffffff\n        /* \"#utility.yul\":7455:7461   */\n      dup2\n        /* \"#utility.yul\":7452:7482   */\n      gt\n        /* \"#utility.yul\":7449:7566   */\n      iszero\n      tag_410\n      jumpi\n        /* \"#utility.yul\":7485:7564   */\n      tag_411\n      tag_263\n      jump\t// in\n    tag_411:\n        /* \"#utility.yul\":7449:7566   */\n    tag_410:\n        /* \"#utility.yul\":7590:7668   */\n      tag_412\n        /* \"#utility.yul\":7660:7667   */\n      dup5\n        /* \"#utility.yul\":7651:7657   */\n      dup3\n        /* \"#utility.yul\":7640:7649   */\n      dup6\n        /* \"#utility.yul\":7636:7658   */\n      add\n        /* \"#utility.yul\":7590:7668   */\n      tag_280\n      jump\t// in\n    tag_412:\n        /* \"#utility.yul\":7580:7668   */\n      swap2\n      pop\n        /* \"#utility.yul\":7376:7678   */\n      pop\n        /* \"#utility.yul\":7146:7685   */\n      swap3\n      swap2\n      pop\n      pop\n      jump\t// out\n        /* \"#utility.yul\":7691:7809   */\n    tag_281:\n        /* \"#utility.yul\":7778:7802   */\n      tag_414\n        /* \"#utility.yul\":7796:7801   */\n      dup2\n        /* \"#utility.yul\":7778:7802   */\n      tag_276\n      jump\t// in\n    tag_414:\n        /* \"#utility.yul\":7773:7776   */\n      dup3\n        /* \"#utility.yul\":7766:7803   */\n      mstore\n        /* \"#utility.yul\":7691:7809   */\n      pop\n      pop\n      jump\t// out\n        /* \"#utility.yul\":7815:8037   */\n    tag_53:\n        /* \"#utility.yul\":7908:7912   */\n      0x00\n        /* \"#utility.yul\":7946:7948   */\n      0x20\n        /* \"#utility.yul\":7935:7944   */\n      dup3\n        /* \"#utility.yul\":7931:7949   */\n      add\n        /* \"#utility.yul\":7923:7949   */\n      swap1\n      pop\n        /* \"#utility.yul\":7959:8030   */\n      tag_416\n        /* \"#utility.yul\":8027:8028   */\n      0x00\n        /* \"#utility.yul\":8016:8025   */\n      dup4\n        /* \"#utility.yul\":8012:8029   */\n      add\n        /* \"#utility.yul\":8003:8009   */\n      dup5\n        /* \"#utility.yul\":7959:8030   */\n      tag_281\n      jump\t// in\n    tag_416:\n        /* \"#utility.yul\":7815:8037   */\n      swap3\n      swap2\n      pop\n      pop\n      jump\t// out\n        /* \"#utility.yul\":8043:8160   */\n    tag_282:\n        /* \"#utility.yul\":8152:8153   */\n      0x00\n        /* \"#utility.yul\":8149:8150   */\n      dup1\n        /* \"#utility.yul\":8142:8154   */\n      revert\n        /* \"#utility.yul\":8179:8731   */\n    tag_283:\n        /* \"#utility.yul\":8236:8244   */\n      0x00\n        /* \"#utility.yul\":8246:8252   */\n      dup1\n        /* \"#utility.yul\":8296:8299   */\n      dup4\n        /* \"#utility.yul\":8289:8293   */\n      0x1f\n        /* \"#utility.yul\":8281:8287   */\n      dup5\n        /* \"#utility.yul\":8277:8294   */\n      add\n        /* \"#utility.yul\":8273:8300   */\n      slt\n        /* \"#utility.yul\":8263:8385   */\n      tag_419\n      jumpi\n        /* \"#utility.yul\":8304:8383   */\n      tag_420\n      tag_266\n      jump\t// in\n    tag_420:\n        /* \"#utility.yul\":8263:8385   */\n    tag_419:\n        /* \"#utility.yul\":8417:8423   */\n      dup3\n        /* \"#utility.yul\":8404:8424   */\n      calldataload\n        /* \"#utility.yul\":8394:8424   */\n      swap1\n      pop\n        /* \"#utility.yul\":8447:8465   */\n      0xffffffffffffffff\n        /* \"#utility.yul\":8439:8445   */\n      dup2\n        /* \"#utility.yul\":8436:8466   */\n      gt\n        /* \"#utility.yul\":8433:8550   */\n      iszero\n      tag_421\n      jumpi\n        /* \"#utility.yul\":8469:8548   */\n      tag_422\n      tag_282\n      jump\t// in\n    tag_422:\n        /* \"#utility.yul\":8433:8550   */\n    tag_421:\n        /* \"#utility.yul\":8583:8587   */\n      0x20\n        /* \"#utility.yul\":8575:8581   */\n      dup4\n        /* \"#utility.yul\":8571:8588   */\n      add\n        /* \"#utility.yul\":8559:8588   */\n      swap2\n      pop\n        /* \"#utility.yul\":8637:8640   */\n      dup4\n        /* \"#utility.yul\":8629:8633   */\n      0x01\n        /* \"#utility.yul\":8621:8627   */\n      dup3\n        /* \"#utility.yul\":8617:8634   */\n      mul\n        /* \"#utility.yul\":8607:8615   */\n      dup4\n        /* \"#utility.yul\":8603:8635   */\n      add\n        /* \"#utility.yul\":8600:8641   */\n      gt\n        /* \"#utility.yul\":8597:8725   */\n      iszero\n      tag_423\n      jumpi\n        /* \"#utility.yul\":8644:8723   */\n      tag_424\n      tag_271\n      jump\t// in\n    tag_424:\n        /* \"#utility.yul\":8597:8725   */\n    tag_423:\n        /* \"#utility.yul\":8179:8731   */\n      swap3\n      pop\n      swap3\n      swap1\n      pop\n      jump\t// out\n        /* \"#utility.yul\":8737:9264   */\n    tag_57:\n        /* \"#utility.yul\":8807:8813   */\n      0x00\n        /* \"#utility.yul\":8815:8821   */\n      dup1\n        /* \"#utility.yul\":8864:8866   */\n      0x20\n        /* \"#utility.yul\":8852:8861   */\n      dup4\n        /* \"#utility.yul\":8843:8850   */\n      dup6\n        /* \"#utility.yul\":8839:8862   */\n      sub\n        /* \"#utility.yul\":8835:8867   */\n      slt\n        /* \"#utility.yul\":8832:8951   */\n      iszero\n      tag_426\n      jumpi\n        /* \"#utility.yul\":8870:8949   */\n      tag_427\n      tag_262\n      jump\t// in\n    tag_427:\n        /* \"#utility.yul\":8832:8951   */\n    tag_426:\n        /* \"#utility.yul\":9018:9019   */\n      0x00\n        /* \"#utility.yul\":9007:9016   */\n      dup4\n        /* \"#utility.yul\":9003:9020   */\n      add\n        /* \"#utility.yul\":8990:9021   */\n      calldataload\n        /* \"#utility.yul\":9048:9066   */\n      0xffffffffffffffff\n        /* \"#utility.yul\":9040:9046   */\n      dup2\n        /* \"#utility.yul\":9037:9067   */\n      gt\n        /* \"#utility.yul\":9034:9151   */\n      iszero\n      tag_428\n      jumpi\n        /* \"#utility.yul\":9070:9149   */\n      tag_429\n      tag_263\n      jump\t// in\n    tag_429:\n        /* \"#utility.yul\":9034:9151   */\n    tag_428:\n        /* \"#utility.yul\":9183:9247   */\n      tag_430\n        /* \"#utility.yul\":9239:9246   */\n      dup6\n        /* \"#utility.yul\":9230:9236   */\n      dup3\n        /* \"#utility.yul\":9219:9228   */\n      dup7\n        /* \"#utility.yul\":9215:9237   */\n      add\n        /* \"#utility.yul\":9183:9247   */\n      tag_283\n      jump\t// in\n    tag_430:\n        /* \"#utility.yul\":9165:9247   */\n      swap3\n      pop\n      swap3\n      pop\n        /* \"#utility.yul\":8961:9257   */\n      pop\n        /* \"#utility.yul\":8737:9264   */\n      swap3\n      pop\n      swap3\n      swap1\n      pop\n      jump\t// out\n        /* \"#utility.yul\":9270:9599   */\n    tag_62:\n        /* \"#utility.yul\":9329:9335   */\n      0x00\n        /* \"#utility.yul\":9378:9380   */\n      0x20\n        /* \"#utility.yul\":9366:9375   */\n      dup3\n        /* \"#utility.yul\":9357:9364   */\n      dup5\n        /* \"#utility.yul\":9353:9376   */\n      sub\n        /* \"#utility.yul\":9349:9381   */\n      slt\n        /* \"#utility.yul\":9346:9465   */\n      iszero\n      tag_432\n      jumpi\n        /* \"#utility.yul\":9384:9463   */\n      tag_433\n      tag_262\n      jump\t// in\n    tag_433:\n        /* \"#utility.yul\":9346:9465   */\n    tag_432:\n        /* \"#utility.yul\":9504:9505   */\n      0x00\n        /* \"#utility.yul\":9529:9582   */\n      tag_434\n        /* \"#utility.yul\":9574:9581   */\n      dup5\n        /* \"#utility.yul\":9565:9571   */\n      dup3\n        /* \"#utility.yul\":9554:9563   */\n      dup6\n        /* \"#utility.yul\":9550:9572   */\n      add\n        /* \"#utility.yul\":9529:9582   */\n      tag_278\n      jump\t// in\n    tag_434:\n        /* \"#utility.yul\":9519:9582   */\n      swap2\n      pop\n        /* \"#utility.yul\":9475:9592   */\n      pop\n        /* \"#utility.yul\":9270:9599   */\n      swap3\n      swap2\n      pop\n      pop\n      jump\t// out\n        /* \"#utility.yul\":9605:9722   */\n    tag_284:\n        /* \"#utility.yul\":9714:9715   */\n      0x00\n        /* \"#utility.yul\":9711:9712   */\n      dup1\n        /* \"#utility.yul\":9704:9716   */\n      revert\n        /* \"#utility.yul\":9728:10035   */\n    tag_285:\n        /* \"#utility.yul\":9789:9793   */\n      0x00\n        /* \"#utility.yul\":9879:9897   */\n      0xffffffffffffffff\n        /* \"#utility.yul\":9871:9877   */\n      dup3\n        /* \"#utility.yul\":9868:9898   */\n      gt\n        /* \"#utility.yul\":9865:9921   */\n      iszero\n      tag_437\n      jumpi\n        /* \"#utility.yul\":9901:9919   */\n      tag_438\n      tag_237\n      jump\t// in\n    tag_438:\n        /* \"#utility.yul\":9865:9921   */\n    tag_437:\n        /* \"#utility.yul\":9939:9968   */\n      tag_439\n        /* \"#utility.yul\":9961:9967   */\n      dup3\n        /* \"#utility.yul\":9939:9968   */\n      tag_267\n      jump\t// in\n    tag_439:\n        /* \"#utility.yul\":9931:9968   */\n      swap1\n      pop\n        /* \"#utility.yul\":10023:10027   */\n      0x20\n        /* \"#utility.yul\":10017:10021   */\n      dup2\n        /* \"#utility.yul\":10013:10028   */\n      add\n        /* \"#utility.yul\":10005:10028   */\n      swap1\n      pop\n        /* \"#utility.yul\":9728:10035   */\n      swap2\n      swap1\n      pop\n      jump\t// out\n        /* \"#utility.yul\":10041:10187   */\n    tag_286:\n        /* \"#utility.yul\":10138:10144   */\n      dup3\n        /* \"#utility.yul\":10133:10136   */\n      dup2\n        /* \"#utility.yul\":10128:10131   */\n      dup4\n        /* \"#utility.yul\":10115:10145   */\n      calldatacopy\n        /* \"#utility.yul\":10179:10180   */\n      0x00\n        /* \"#utility.yul\":10170:10176   */\n      dup4\n        /* \"#utility.yul\":10165:10168   */\n      dup4\n        /* \"#utility.yul\":10161:10177   */\n      add\n        /* \"#utility.yul\":10154:10181   */\n      mstore\n        /* \"#utility.yul\":10041:10187   */\n      pop\n      pop\n      pop\n      jump\t// out\n        /* \"#utility.yul\":10193:10616   */\n    tag_287:\n        /* \"#utility.yul\":10270:10275   */\n      0x00\n        /* \"#utility.yul\":10295:10360   */\n      tag_442\n        /* \"#utility.yul\":10311:10359   */\n      tag_443\n        /* \"#utility.yul\":10352:10358   */\n      dup5\n        /* \"#utility.yul\":10311:10359   */\n      tag_285\n      jump\t// in\n    tag_443:\n        /* \"#utility.yul\":10295:10360   */\n      tag_269\n      jump\t// in\n    tag_442:\n        /* \"#utility.yul\":10286:10360   */\n      swap1\n      pop\n        /* \"#utility.yul\":10383:10389   */\n      dup3\n        /* \"#utility.yul\":10376:10381   */\n      dup2\n        /* \"#utility.yul\":10369:10390   */\n      mstore\n        /* \"#utility.yul\":10421:10425   */\n      0x20\n        /* \"#utility.yul\":10414:10419   */\n      dup2\n        /* \"#utility.yul\":10410:10426   */\n      add\n        /* \"#utility.yul\":10459:10462   */\n      dup5\n        /* \"#utility.yul\":10450:10456   */\n      dup5\n        /* \"#utility.yul\":10445:10448   */\n      dup5\n        /* \"#utility.yul\":10441:10457   */\n      add\n        /* \"#utility.yul\":10438:10463   */\n      gt\n        /* \"#utility.yul\":10435:10547   */\n      iszero\n      tag_444\n      jumpi\n        /* \"#utility.yul\":10466:10545   */\n      tag_445\n      tag_284\n      jump\t// in\n    tag_445:\n        /* \"#utility.yul\":10435:10547   */\n    tag_444:\n        /* \"#utility.yul\":10556:10610   */\n      tag_446\n        /* \"#utility.yul\":10603:10609   */\n      dup5\n        /* \"#utility.yul\":10598:10601   */\n      dup3\n        /* \"#utility.yul\":10593:10596   */\n      dup6\n        /* \"#utility.yul\":10556:10610   */\n      tag_286\n      jump\t// in\n    tag_446:\n        /* \"#utility.yul\":10276:10616   */\n      pop\n        /* \"#utility.yul\":10193:10616   */\n      swap4\n      swap3\n      pop\n      pop\n      pop\n      jump\t// out\n        /* \"#utility.yul\":10635:10973   */\n    tag_288:\n        /* \"#utility.yul\":10690:10695   */\n      0x00\n        /* \"#utility.yul\":10739:10742   */\n      dup3\n        /* \"#utility.yul\":10732:10736   */\n      0x1f\n        /* \"#utility.yul\":10724:10730   */\n      dup4\n        /* \"#utility.yul\":10720:10737   */\n      add\n        /* \"#utility.yul\":10716:10743   */\n      slt\n        /* \"#utility.yul\":10706:10828   */\n      tag_448\n      jumpi\n        /* \"#utility.yul\":10747:10826   */\n      tag_449\n      tag_266\n      jump\t// in\n    tag_449:\n        /* \"#utility.yul\":10706:10828   */\n    tag_448:\n        /* \"#utility.yul\":10864:10870   */\n      dup2\n        /* \"#utility.yul\":10851:10871   */\n      calldataload\n        /* \"#utility.yul\":10889:10967   */\n      tag_450\n        /* \"#utility.yul\":10963:10966   */\n      dup5\n        /* \"#utility.yul\":10955:10961   */\n      dup3\n        /* \"#utility.yul\":10948:10952   */\n      0x20\n        /* \"#utility.yul\":10940:10946   */\n      dup7\n        /* \"#utility.yul\":10936:10953   */\n      add\n        /* \"#utility.yul\":10889:10967   */\n      tag_287\n      jump\t// in\n    tag_450:\n        /* \"#utility.yul\":10880:10967   */\n      swap2\n      pop\n        /* \"#utility.yul\":10696:10973   */\n      pop\n        /* \"#utility.yul\":10635:10973   */\n      swap3\n      swap2\n      pop\n      pop\n      jump\t// out\n        /* \"#utility.yul\":10979:11486   */\n    tag_79:\n        /* \"#utility.yul\":11047:11053   */\n      0x00\n        /* \"#utility.yul\":11096:11098   */\n      0x20\n        /* \"#utility.yul\":11084:11093   */\n      dup3\n        /* \"#utility.yul\":11075:11082   */\n      dup5\n        /* \"#utility.yul\":11071:11094   */\n      sub\n        /* \"#utility.yul\":11067:11099   */\n      slt\n        /* \"#utility.yul\":11064:11183   */\n      iszero\n      tag_452\n      jumpi\n        /* \"#utility.yul\":11102:11181   */\n      tag_453\n      tag_262\n      jump\t// in\n    tag_453:\n        /* \"#utility.yul\":11064:11183   */\n    tag_452:\n        /* \"#utility.yul\":11250:11251   */\n      0x00\n        /* \"#utility.yul\":11239:11248   */\n      dup3\n        /* \"#utility.yul\":11235:11252   */\n      add\n        /* \"#utility.yul\":11222:11253   */\n      calldataload\n        /* \"#utility.yul\":11280:11298   */\n      0xffffffffffffffff\n        /* \"#utility.yul\":11272:11278   */\n      dup2\n        /* \"#utility.yul\":11269:11299   */\n      gt\n        /* \"#utility.yul\":11266:11383   */\n      iszero\n      tag_454\n      jumpi\n        /* \"#utility.yul\":11302:11381   */\n      tag_455\n      tag_263\n      jump\t// in\n    tag_455:\n        /* \"#utility.yul\":11266:11383   */\n    tag_454:\n        /* \"#utility.yul\":11407:11469   */\n      tag_456\n        /* \"#utility.yul\":11461:11468   */\n      dup5\n        /* \"#utility.yul\":11452:11458   */\n      dup3\n        /* \"#utility.yul\":11441:11450   */\n      dup6\n        /* \"#utility.yul\":11437:11459   */\n      add\n        /* \"#utility.yul\":11407:11469   */\n      tag_288\n      jump\t// in\n    tag_456:\n        /* \"#utility.yul\":11397:11469   */\n      swap2\n      pop\n        /* \"#utility.yul\":11193:11479   */\n      pop\n        /* \"#utility.yul\":10979:11486   */\n      swap3\n      swap2\n      pop\n      pop\n      jump\t// out\n        /* \"#utility.yul\":11492:11582   */\n    tag_289:\n        /* \"#utility.yul\":11526:11533   */\n      0x00\n        /* \"#utility.yul\":11569:11574   */\n      dup2\n        /* \"#utility.yul\":11562:11575   */\n      iszero\n        /* \"#utility.yul\":11555:11576   */\n      iszero\n        /* \"#utility.yul\":11544:11576   */\n      swap1\n      pop\n        /* \"#utility.yul\":11492:11582   */\n      swap2\n      swap1\n      pop\n      jump\t// out\n        /* \"#utility.yul\":11588:11697   */\n    tag_290:\n        /* \"#utility.yul\":11669:11690   */\n      tag_459\n        /* \"#utility.yul\":11684:11689   */\n      dup2\n        /* \"#utility.yul\":11669:11690   */\n      tag_289\n      jump\t// in\n    tag_459:\n        /* \"#utility.yul\":11664:11667   */\n      dup3\n        /* \"#utility.yul\":11657:11691   */\n      mstore\n        /* \"#utility.yul\":11588:11697   */\n      pop\n      pop\n      jump\t// out\n        /* \"#utility.yul\":11703:11801   */\n    tag_291:\n        /* \"#utility.yul\":11754:11760   */\n      0x00\n        /* \"#utility.yul\":11788:11793   */\n      dup2\n        /* \"#utility.yul\":11782:11794   */\n      mload\n        /* \"#utility.yul\":11772:11794   */\n      swap1\n      pop\n        /* \"#utility.yul\":11703:11801   */\n      swap2\n      swap1\n      pop\n      jump\t// out\n        /* \"#utility.yul\":11807:11975   */\n    tag_292:\n        /* \"#utility.yul\":11890:11901   */\n      0x00\n        /* \"#utility.yul\":11924:11930   */\n      dup3\n        /* \"#utility.yul\":11919:11922   */\n      dup3\n        /* \"#utility.yul\":11912:11931   */\n      mstore\n        /* \"#utility.yul\":11964:11968   */\n      0x20\n        /* \"#utility.yul\":11959:11962   */\n      dup3\n        /* \"#utility.yul\":11955:11969   */\n      add\n        /* \"#utility.yul\":11940:11969   */\n      swap1\n      pop\n        /* \"#utility.yul\":11807:11975   */\n      swap3\n      swap2\n      pop\n      pop\n      jump\t// out\n        /* \"#utility.yul\":11981:12227   */\n    tag_293:\n        /* \"#utility.yul\":12062:12063   */\n      0x00\n        /* \"#utility.yul\":12072:12185   */\n    tag_463:\n        /* \"#utility.yul\":12086:12092   */\n      dup4\n        /* \"#utility.yul\":12083:12084   */\n      dup2\n        /* \"#utility.yul\":12080:12093   */\n      lt\n        /* \"#utility.yul\":12072:12185   */\n      iszero\n      tag_465\n      jumpi\n        /* \"#utility.yul\":12171:12172   */\n      dup1\n        /* \"#utility.yul\":12166:12169   */\n      dup3\n        /* \"#utility.yul\":12162:12173   */\n      add\n        /* \"#utility.yul\":12156:12174   */\n      mload\n        /* \"#utility.yul\":12152:12153   */\n      dup2\n        /* \"#utility.yul\":12147:12150   */\n      dup5\n        /* \"#utility.yul\":12143:12154   */\n      add\n        /* \"#utility.yul\":12136:12175   */\n      mstore\n        /* \"#utility.yul\":12108:12110   */\n      0x20\n        /* \"#utility.yul\":12105:12106   */\n      dup2\n        /* \"#utility.yul\":12101:12111   */\n      add\n        /* \"#utility.yul\":12096:12111   */\n      swap1\n      pop\n        /* \"#utility.yul\":12072:12185   */\n      jump(tag_463)\n    tag_465:\n        /* \"#utility.yul\":12219:12220   */\n      0x00\n        /* \"#utility.yul\":12210:12216   */\n      dup5\n        /* \"#utility.yul\":12205:12208   */\n      dup5\n        /* \"#utility.yul\":12201:12217   */\n      add\n        /* \"#utility.yul\":12194:12221   */\n      mstore\n        /* \"#utility.yul\":12043:12227   */\n      pop\n        /* \"#utility.yul\":11981:12227   */\n      pop\n      pop\n      pop\n      jump\t// out\n        /* \"#utility.yul\":12233:12606   */\n    tag_294:\n        /* \"#utility.yul\":12319:12322   */\n      0x00\n        /* \"#utility.yul\":12347:12385   */\n      tag_467\n        /* \"#utility.yul\":12379:12384   */\n      dup3\n        /* \"#utility.yul\":12347:12385   */\n      tag_291\n      jump\t// in\n    tag_467:\n        /* \"#utility.yul\":12401:12471   */\n      tag_468\n        /* \"#utility.yul\":12464:12470   */\n      dup2\n        /* \"#utility.yul\":12459:12462   */\n      dup6\n        /* \"#utility.yul\":12401:12471   */\n      tag_292\n      jump\t// in\n    tag_468:\n        /* \"#utility.yul\":12394:12471   */\n      swap4\n      pop\n        /* \"#utility.yul\":12480:12545   */\n      tag_469\n        /* \"#utility.yul\":12538:12544   */\n      dup2\n        /* \"#utility.yul\":12533:12536   */\n      dup6\n        /* \"#utility.yul\":12526:12530   */\n      0x20\n        /* \"#utility.yul\":12519:12524   */\n      dup7\n        /* \"#utility.yul\":12515:12531   */\n      add\n        /* \"#utility.yul\":12480:12545   */\n      tag_293\n      jump\t// in\n    tag_469:\n        /* \"#utility.yul\":12570:12599   */\n      tag_470\n        /* \"#utility.yul\":12592:12598   */\n      dup2\n        /* \"#utility.yul\":12570:12599   */\n      tag_267\n      jump\t// in\n    tag_470:\n        /* \"#utility.yul\":12565:12568   */\n      dup5\n        /* \"#utility.yul\":12561:12600   */\n      add\n        /* \"#utility.yul\":12554:12600   */\n      swap2\n      pop\n        /* \"#utility.yul\":12323:12606   */\n      pop\n        /* \"#utility.yul\":12233:12606   */\n      swap3\n      swap2\n      pop\n      pop\n      jump\t// out\n        /* \"#utility.yul\":12612:13019   */\n    tag_82:\n        /* \"#utility.yul\":12745:12749   */\n      0x00\n        /* \"#utility.yul\":12783:12785   */\n      0x40\n        /* \"#utility.yul\":12772:12781   */\n      dup3\n        /* \"#utility.yul\":12768:12786   */\n      add\n        /* \"#utility.yul\":12760:12786   */\n      swap1\n      pop\n        /* \"#utility.yul\":12796:12861   */\n      tag_472\n        /* \"#utility.yul\":12858:12859   */\n      0x00\n        /* \"#utility.yul\":12847:12856   */\n      dup4\n        /* \"#utility.yul\":12843:12860   */\n      add\n        /* \"#utility.yul\":12834:12840   */\n      dup6\n        /* \"#utility.yul\":12796:12861   */\n      tag_290\n      jump\t// in\n    tag_472:\n        /* \"#utility.yul\":12908:12917   */\n      dup2\n        /* \"#utility.yul\":12902:12906   */\n      dup2\n        /* \"#utility.yul\":12898:12918   */\n      sub\n        /* \"#utility.yul\":12893:12895   */\n      0x20\n        /* \"#utility.yul\":12882:12891   */\n      dup4\n        /* \"#utility.yul\":12878:12896   */\n      add\n        /* \"#utility.yul\":12871:12919   */\n      mstore\n        /* \"#utility.yul\":12936:13012   */\n      tag_473\n        /* \"#utility.yul\":13007:13011   */\n      dup2\n        /* \"#utility.yul\":12998:13004   */\n      dup5\n        /* \"#utility.yul\":12936:13012   */\n      tag_294\n      jump\t// in\n    tag_473:\n        /* \"#utility.yul\":12928:13012   */\n      swap1\n      pop\n        /* \"#utility.yul\":12612:13019   */\n      swap4\n      swap3\n      pop\n      pop\n      pop\n      jump\t// out\n        /* \"#utility.yul\":13025:13354   */\n    tag_94:\n        /* \"#utility.yul\":13084:13090   */\n      0x00\n        /* \"#utility.yul\":13133:13135   */\n      0x20\n        /* \"#utility.yul\":13121:13130   */\n      dup3\n        /* \"#utility.yul\":13112:13119   */\n      dup5\n        /* \"#utility.yul\":13108:13131   */\n      sub\n        /* \"#utility.yul\":13104:13136   */\n      slt\n        /* \"#utility.yul\":13101:13220   */\n      iszero\n      tag_475\n      jumpi\n        /* \"#utility.yul\":13139:13218   */\n      tag_476\n      tag_262\n      jump\t// in\n    tag_476:\n        /* \"#utility.yul\":13101:13220   */\n    tag_475:\n        /* \"#utility.yul\":13259:13260   */\n      0x00\n        /* \"#utility.yul\":13284:13337   */\n      tag_477\n        /* \"#utility.yul\":13329:13336   */\n      dup5\n        /* \"#utility.yul\":13320:13326   */\n      dup3\n        /* \"#utility.yul\":13309:13318   */\n      dup6\n        /* \"#utility.yul\":13305:13327   */\n      add\n        /* \"#utility.yul\":13284:13337   */\n      tag_265\n      jump\t// in\n    tag_477:\n        /* \"#utility.yul\":13274:13337   */\n      swap2\n      pop\n        /* \"#utility.yul\":13230:13347   */\n      pop\n        /* \"#utility.yul\":13025:13354   */\n      swap3\n      swap2\n      pop\n      pop\n      jump\t// out\n        /* \"#utility.yul\":13360:13464   */\n    tag_295:\n        /* \"#utility.yul\":13405:13412   */\n      0x00\n        /* \"#utility.yul\":13434:13458   */\n      tag_479\n        /* \"#utility.yul\":13452:13457   */\n      dup3\n        /* \"#utility.yul\":13434:13458   */\n      tag_275\n      jump\t// in\n    tag_479:\n        /* \"#utility.yul\":13423:13458   */\n      swap1\n      pop\n        /* \"#utility.yul\":13360:13464   */\n      swap2\n      swap1\n      pop\n      jump\t// out\n        /* \"#utility.yul\":13470:13612   */\n    tag_296:\n        /* \"#utility.yul\":13573:13605   */\n      tag_481\n        /* \"#utility.yul\":13599:13604   */\n      dup2\n        /* \"#utility.yul\":13573:13605   */\n      tag_295\n      jump\t// in\n    tag_481:\n        /* \"#utility.yul\":13568:13571   */\n      dup3\n        /* \"#utility.yul\":13561:13606   */\n      mstore\n        /* \"#utility.yul\":13470:13612   */\n      pop\n      pop\n      jump\t// out\n        /* \"#utility.yul\":13618:13872   */\n    tag_97:\n        /* \"#utility.yul\":13727:13731   */\n      0x00\n        /* \"#utility.yul\":13765:13767   */\n      0x20\n        /* \"#utility.yul\":13754:13763   */\n      dup3\n        /* \"#utility.yul\":13750:13768   */\n      add\n        /* \"#utility.yul\":13742:13768   */\n      swap1\n      pop\n        /* \"#utility.yul\":13778:13865   */\n      tag_483\n        /* \"#utility.yul\":13862:13863   */\n      0x00\n        /* \"#utility.yul\":13851:13860   */\n      dup4\n        /* \"#utility.yul\":13847:13864   */\n      add\n        /* \"#utility.yul\":13838:13844   */\n      dup5\n        /* \"#utility.yul\":13778:13865   */\n      tag_296\n      jump\t// in\n    tag_483:\n        /* \"#utility.yul\":13618:13872   */\n      swap3\n      swap2\n      pop\n      pop\n      jump\t// out\n        /* \"#utility.yul\":13878:14210   */\n    tag_127:\n        /* \"#utility.yul\":13999:14003   */\n      0x00\n        /* \"#utility.yul\":14037:14039   */\n      0x40\n        /* \"#utility.yul\":14026:14035   */\n      dup3\n        /* \"#utility.yul\":14022:14040   */\n      add\n        /* \"#utility.yul\":14014:14040   */\n      swap1\n      pop\n        /* \"#utility.yul\":14050:14121   */\n      tag_485\n        /* \"#utility.yul\":14118:14119   */\n      0x00\n        /* \"#utility.yul\":14107:14116   */\n      dup4\n        /* \"#utility.yul\":14103:14120   */\n      add\n        /* \"#utility.yul\":14094:14100   */\n      dup6\n        /* \"#utility.yul\":14050:14121   */\n      tag_281\n      jump\t// in\n    tag_485:\n        /* \"#utility.yul\":14131:14203   */\n      tag_486\n        /* \"#utility.yul\":14199:14201   */\n      0x20\n        /* \"#utility.yul\":14188:14197   */\n      dup4\n        /* \"#utility.yul\":14184:14202   */\n      add\n        /* \"#utility.yul\":14175:14181   */\n      dup5\n        /* \"#utility.yul\":14131:14203   */\n      tag_281\n      jump\t// in\n    tag_486:\n        /* \"#utility.yul\":13878:14210   */\n      swap4\n      swap3\n      pop\n      pop\n      pop\n      jump\t// out\n        /* \"#utility.yul\":14216:14396   */\n    tag_297:\n        /* \"#utility.yul\":14264:14341   */\n      0x4e487b7100000000000000000000000000000000000000000000000000000000\n        /* \"#utility.yul\":14261:14262   */\n      0x00\n        /* \"#utility.yul\":14254:14342   */\n      mstore\n        /* \"#utility.yul\":14361:14365   */\n      0x11\n        /* \"#utility.yul\":14358:14359   */\n      0x04\n        /* \"#utility.yul\":14351:14366   */\n      mstore\n        /* \"#utility.yul\":14385:14389   */\n      0x24\n        /* \"#utility.yul\":14382:14383   */\n      0x00\n        /* \"#utility.yul\":14375:14390   */\n      revert\n        /* \"#utility.yul\":14402:14812   */\n    tag_132:\n        /* \"#utility.yul\":14442:14449   */\n      0x00\n        /* \"#utility.yul\":14465:14485   */\n      tag_489\n        /* \"#utility.yul\":14483:14484   */\n      dup3\n        /* \"#utility.yul\":14465:14485   */\n      tag_255\n      jump\t// in\n    tag_489:\n        /* \"#utility.yul\":14460:14485   */\n      swap2\n      pop\n        /* \"#utility.yul\":14499:14519   */\n      tag_490\n        /* \"#utility.yul\":14517:14518   */\n      dup4\n        /* \"#utility.yul\":14499:14519   */\n      tag_255\n      jump\t// in\n    tag_490:\n        /* \"#utility.yul\":14494:14519   */\n      swap3\n      pop\n        /* \"#utility.yul\":14554:14555   */\n      dup3\n        /* \"#utility.yul\":14551:14552   */\n      dup3\n        /* \"#utility.yul\":14547:14556   */\n      mul\n        /* \"#utility.yul\":14576:14606   */\n      tag_491\n        /* \"#utility.yul\":14594:14605   */\n      dup2\n        /* \"#utility.yul\":14576:14606   */\n      tag_255\n      jump\t// in\n    tag_491:\n        /* \"#utility.yul\":14565:14606   */\n      swap2\n      pop\n        /* \"#utility.yul\":14755:14756   */\n      dup3\n        /* \"#utility.yul\":14746:14753   */\n      dup3\n        /* \"#utility.yul\":14742:14757   */\n      div\n        /* \"#utility.yul\":14739:14740   */\n      dup5\n        /* \"#utility.yul\":14736:14758   */\n      eq\n        /* \"#utility.yul\":14716:14717   */\n      dup4\n        /* \"#utility.yul\":14709:14718   */\n      iszero\n        /* \"#utility.yul\":14689:14772   */\n      or\n        /* \"#utility.yul\":14666:14805   */\n      tag_492\n      jumpi\n        /* \"#utility.yul\":14785:14803   */\n      tag_493\n      tag_297\n      jump\t// in\n    tag_493:\n        /* \"#utility.yul\":14666:14805   */\n    tag_492:\n        /* \"#utility.yul\":14450:14812   */\n      pop\n        /* \"#utility.yul\":14402:14812   */\n      swap3\n      swap2\n      pop\n      pop\n      jump\t// out\n        /* \"#utility.yul\":14818:14998   */\n    tag_145:\n        /* \"#utility.yul\":14866:14943   */\n      0x4e487b7100000000000000000000000000000000000000000000000000000000\n        /* \"#utility.yul\":14863:14864   */\n      0x00\n        /* \"#utility.yul\":14856:14944   */\n      mstore\n        /* \"#utility.yul\":14963:14967   */\n      0x32\n        /* \"#utility.yul\":14960:14961   */\n      0x04\n        /* \"#utility.yul\":14953:14968   */\n      mstore\n        /* \"#utility.yul\":14987:14991   */\n      0x24\n        /* \"#utility.yul\":14984:14985   */\n      0x00\n        /* \"#utility.yul\":14977:14992   */\n      revert\n        /* \"#utility.yul\":15004:15237   */\n    tag_148:\n        /* \"#utility.yul\":15043:15046   */\n      0x00\n        /* \"#utility.yul\":15066:15090   */\n      tag_496\n        /* \"#utility.yul\":15084:15089   */\n      dup3\n        /* \"#utility.yul\":15066:15090   */\n      tag_255\n      jump\t// in\n    tag_496:\n        /* \"#utility.yul\":15057:15090   */\n      swap2\n      pop\n        /* \"#utility.yul\":15112:15178   */\n      0xffffffffffffffffffffffffffffffffffffffffffffffffffffffffffffffff\n        /* \"#utility.yul\":15105:15110   */\n      dup3\n        /* \"#utility.yul\":15102:15179   */\n      sub\n        /* \"#utility.yul\":15099:15202   */\n      tag_497\n      jumpi\n        /* \"#utility.yul\":15182:15200   */\n      tag_498\n      tag_297\n      jump\t// in\n    tag_498:\n        /* \"#utility.yul\":15099:15202   */\n    tag_497:\n        /* \"#utility.yul\":15229:15230   */\n      0x01\n        /* \"#utility.yul\":15222:15227   */\n      dup3\n        /* \"#utility.yul\":15218:15231   */\n      add\n        /* \"#utility.yul\":15211:15231   */\n      swap1\n      pop\n        /* \"#utility.yul\":15004:15237   */\n      swap2\n      swap1\n      pop\n      jump\t// out\n        /* \"#utility.yul\":15243:15357   */\n    tag_298:\n        /* \"#utility.yul\":15310:15316   */\n      0x00\n        /* \"#utility.yul\":15344:15349   */\n      dup2\n        /* \"#utility.yul\":15338:15350   */\n      mload\n        /* \"#utility.yul\":15328:15350   */\n      swap1\n      pop\n        /* \"#utility.yul\":15243:15357   */\n      swap2\n      swap1\n      pop\n      jump\t// out\n        /* \"#utility.yul\":15363:15526   */\n    tag_299:\n        /* \"#utility.yul\":15480:15491   */\n      0x00\n        /* \"#utility.yul\":15517:15520   */\n      dup2\n        /* \"#utility.yul\":15502:15520   */\n      swap1\n      pop\n        /* \"#utility.yul\":15363:15526   */\n      swap3\n      swap2\n      pop\n      pop\n      jump\t// out\n        /* \"#utility.yul\":15532:15664   */\n    tag_300:\n        /* \"#utility.yul\":15599:15603   */\n      0x00\n        /* \"#utility.yul\":15622:15625   */\n      dup2\n        /* \"#utility.yul\":15614:15625   */\n      swap1\n      pop\n        /* \"#utility.yul\":15652:15656   */\n      0x20\n        /* \"#utility.yul\":15647:15650   */\n      dup3\n        /* \"#utility.yul\":15643:15657   */\n      add\n        /* \"#utility.yul\":15635:15657   */\n      swap1\n      pop\n        /* \"#utility.yul\":15532:15664   */\n      swap2\n      swap1\n      pop\n      jump\t// out\n        /* \"#utility.yul\":15670:15786   */\n    tag_301:\n        /* \"#utility.yul\":15755:15779   */\n      tag_503\n        /* \"#utility.yul\":15773:15778   */\n      dup2\n        /* \"#utility.yul\":15755:15779   */\n      tag_276\n      jump\t// in\n    tag_503:\n        /* \"#utility.yul\":15750:15753   */\n      dup3\n        /* \"#utility.yul\":15743:15780   */\n      mstore\n        /* \"#utility.yul\":15670:15786   */\n      pop\n      pop\n      jump\t// out\n        /* \"#utility.yul\":15792:15987   */\n    tag_302:\n        /* \"#utility.yul\":15869:15879   */\n      0x00\n        /* \"#utility.yul\":15890:15944   */\n      tag_505\n        /* \"#utility.yul\":15940:15943   */\n      dup4\n        /* \"#utility.yul\":15932:15938   */\n      dup4\n        /* \"#utility.yul\":15890:15944   */\n      tag_301\n      jump\t// in\n    tag_505:\n        /* \"#utility.yul\":15976:15980   */\n      0x20\n        /* \"#utility.yul\":15971:15974   */\n      dup4\n        /* \"#utility.yul\":15967:15981   */\n      add\n        /* \"#utility.yul\":15953:15981   */\n      swap1\n      pop\n        /* \"#utility.yul\":15792:15987   */\n      swap3\n      swap2\n      pop\n      pop\n      jump\t// out\n        /* \"#utility.yul\":15993:16106   */\n    tag_303:\n        /* \"#utility.yul\":16063:16067   */\n      0x00\n        /* \"#utility.yul\":16095:16099   */\n      0x20\n        /* \"#utility.yul\":16090:16093   */\n      dup3\n        /* \"#utility.yul\":16086:16100   */\n      add\n        /* \"#utility.yul\":16078:16100   */\n      swap1\n      pop\n        /* \"#utility.yul\":15993:16106   */\n      swap2\n      swap1\n      pop\n      jump\t// out\n        /* \"#utility.yul\":16142:16918   */\n    tag_304:\n        /* \"#utility.yul\":16279:16282   */\n      0x00\n        /* \"#utility.yul\":16308:16362   */\n      tag_508\n        /* \"#utility.yul\":16356:16361   */\n      dup3\n        /* \"#utility.yul\":16308:16362   */\n      tag_298\n      jump\t// in\n    tag_508:\n        /* \"#utility.yul\":16378:16482   */\n      tag_509\n        /* \"#utility.yul\":16475:16481   */\n      dup2\n        /* \"#utility.yul\":16470:16473   */\n      dup6\n        /* \"#utility.yul\":16378:16482   */\n      tag_299\n      jump\t// in\n    tag_509:\n        /* \"#utility.yul\":16371:16482   */\n      swap4\n      pop\n        /* \"#utility.yul\":16506:16562   */\n      tag_510\n        /* \"#utility.yul\":16556:16561   */\n      dup4\n        /* \"#utility.yul\":16506:16562   */\n      tag_300\n      jump\t// in\n    tag_510:\n        /* \"#utility.yul\":16585:16592   */\n      dup1\n        /* \"#utility.yul\":16616:16617   */\n      0x00\n        /* \"#utility.yul\":16601:16893   */\n    tag_511:\n        /* \"#utility.yul\":16626:16632   */\n      dup4\n        /* \"#utility.yul\":16623:16624   */\n      dup2\n        /* \"#utility.yul\":16620:16633   */\n      lt\n        /* \"#utility.yul\":16601:16893   */\n      iszero\n      tag_513\n      jumpi\n        /* \"#utility.yul\":16702:16708   */\n      dup2\n        /* \"#utility.yul\":16696:16709   */\n      mload\n        /* \"#utility.yul\":16729:16800   */\n      tag_514\n        /* \"#utility.yul\":16796:16799   */\n      dup9\n        /* \"#utility.yul\":16781:16794   */\n      dup3\n        /* \"#utility.yul\":16729:16800   */\n      tag_302\n      jump\t// in\n    tag_514:\n        /* \"#utility.yul\":16722:16800   */\n      swap8\n      pop\n        /* \"#utility.yul\":16823:16883   */\n      tag_515\n        /* \"#utility.yul\":16876:16882   */\n      dup4\n        /* \"#utility.yul\":16823:16883   */\n      tag_303\n      jump\t// in\n    tag_515:\n        /* \"#utility.yul\":16813:16883   */\n      swap3\n      pop\n        /* \"#utility.yul\":16661:16893   */\n      pop\n        /* \"#utility.yul\":16648:16649   */\n      0x01\n        /* \"#utility.yul\":16645:16646   */\n      dup2\n        /* \"#utility.yul\":16641:16650   */\n      add\n        /* \"#utility.yul\":16636:16650   */\n      swap1\n      pop\n        /* \"#utility.yul\":16601:16893   */\n      jump(tag_511)\n    tag_513:\n        /* \"#utility.yul\":16605:16619   */\n      pop\n        /* \"#utility.yul\":16909:16912   */\n      dup6\n        /* \"#utility.yul\":16902:16912   */\n      swap4\n      pop\n        /* \"#utility.yul\":16284:16918   */\n      pop\n      pop\n      pop\n        /* \"#utility.yul\":16142:16918   */\n      swap3\n      swap2\n      pop\n      pop\n      jump\t// out\n        /* \"#utility.yul\":16924:17259   */\n    tag_166:\n        /* \"#utility.yul\":17086:17089   */\n      0x00\n        /* \"#utility.yul\":17108:17233   */\n      tag_517\n        /* \"#utility.yul\":17229:17232   */\n      dup3\n        /* \"#utility.yul\":17220:17226   */\n      dup5\n        /* \"#utility.yul\":17108:17233   */\n      tag_304\n      jump\t// in\n    tag_517:\n        /* \"#utility.yul\":17101:17233   */\n      swap2\n      pop\n        /* \"#utility.yul\":17250:17253   */\n      dup2\n        /* \"#utility.yul\":17243:17253   */\n      swap1\n      pop\n        /* \"#utility.yul\":16924:17259   */\n      swap3\n      swap2\n      pop\n      pop\n      jump\t// out\n        /* \"#utility.yul\":17265:17707   */\n    tag_173:\n        /* \"#utility.yul\":17414:17418   */\n      0x00\n        /* \"#utility.yul\":17452:17454   */\n      0x60\n        /* \"#utility.yul\":17441:17450   */\n      dup3\n        /* \"#utility.yul\":17437:17455   */\n      add\n        /* \"#utility.yul\":17429:17455   */\n      swap1\n      pop\n        /* \"#utility.yul\":17465:17536   */\n      tag_519\n        /* \"#utility.yul\":17533:17534   */\n      0x00\n        /* \"#utility.yul\":17522:17531   */\n      dup4\n        /* \"#utility.yul\":17518:17535   */\n      add\n        /* \"#utility.yul\":17509:17515   */\n      dup7\n        /* \"#utility.yul\":17465:17536   */\n      tag_256\n      jump\t// in\n    tag_519:\n        /* \"#utility.yul\":17546:17618   */\n      tag_520\n        /* \"#utility.yul\":17614:17616   */\n      0x20\n        /* \"#utility.yul\":17603:17612   */\n      dup4\n        /* \"#utility.yul\":17599:17617   */\n      add\n        /* \"#utility.yul\":17590:17596   */\n      dup6\n        /* \"#utility.yul\":17546:17618   */\n      tag_256\n      jump\t// in\n    tag_520:\n        /* \"#utility.yul\":17628:17700   */\n      tag_521\n        /* \"#utility.yul\":17696:17698   */\n      0x40\n        /* \"#utility.yul\":17685:17694   */\n      dup4\n        /* \"#utility.yul\":17681:17699   */\n      add\n        /* \"#utility.yul\":17672:17678   */\n      dup5\n        /* \"#utility.yul\":17628:17700   */\n      tag_256\n      jump\t// in\n    tag_521:\n        /* \"#utility.yul\":17265:17707   */\n      swap5\n      swap4\n      pop\n      pop\n      pop\n      pop\n      jump\t// out\n        /* \"#utility.yul\":17713:17790   */\n    tag_305:\n        /* \"#utility.yul\":17750:17757   */\n      0x00\n        /* \"#utility.yul\":17779:17784   */\n      dup2\n        /* \"#utility.yul\":17768:17784   */\n      swap1\n      pop\n        /* \"#utility.yul\":17713:17790   */\n      swap2\n      swap1\n      pop\n      jump\t// out\n        /* \"#utility.yul\":17796:17914   */\n    tag_306:\n        /* \"#utility.yul\":17883:17907   */\n      tag_524\n        /* \"#utility.yul\":17901:17906   */\n      dup2\n        /* \"#utility.yul\":17883:17907   */\n      tag_305\n      jump\t// in\n    tag_524:\n        /* \"#utility.yul\":17878:17881   */\n      dup3\n        /* \"#utility.yul\":17871:17908   */\n      mstore\n        /* \"#utility.yul\":17796:17914   */\n      pop\n      pop\n      jump\t// out\n        /* \"#utility.yul\":17920:18021   */\n    tag_307:\n        /* \"#utility.yul\":17956:17963   */\n      0x00\n        /* \"#utility.yul\":17996:18014   */\n      0xffffffffffffffff\n        /* \"#utility.yul\":17989:17994   */\n      dup3\n        /* \"#utility.yul\":17985:18015   */\n      and\n        /* \"#utility.yul\":17974:18015   */\n      swap1\n      pop\n        /* \"#utility.yul\":17920:18021   */\n      swap2\n      swap1\n      pop\n      jump\t// out\n        /* \"#utility.yul\":18027:18142   */\n    tag_308:\n        /* \"#utility.yul\":18112:18135   */\n      tag_527\n        /* \"#utility.yul\":18129:18134   */\n      dup2\n        /* \"#utility.yul\":18112:18135   */\n      tag_307\n      jump\t// in\n    tag_527:\n        /* \"#utility.yul\":18107:18110   */\n      dup3\n        /* \"#utility.yul\":18100:18136   */\n      mstore\n        /* \"#utility.yul\":18027:18142   */\n      pop\n      pop\n      jump\t// out\n        /* \"#utility.yul\":18148:18237   */\n    tag_309:\n        /* \"#utility.yul\":18184:18191   */\n      0x00\n        /* \"#utility.yul\":18224:18230   */\n      0xffff\n        /* \"#utility.yul\":18217:18222   */\n      dup3\n        /* \"#utility.yul\":18213:18231   */\n      and\n        /* \"#utility.yul\":18202:18231   */\n      swap1\n      pop\n        /* \"#utility.yul\":18148:18237   */\n      swap2\n      swap1\n      pop\n      jump\t// out\n        /* \"#utility.yul\":18243:18358   */\n    tag_310:\n        /* \"#utility.yul\":18328:18351   */\n      tag_530\n        /* \"#utility.yul\":18345:18350   */\n      dup2\n        /* \"#utility.yul\":18328:18351   */\n      tag_309\n      jump\t// in\n    tag_530:\n        /* \"#utility.yul\":18323:18326   */\n      dup3\n        /* \"#utility.yul\":18316:18352   */\n      mstore\n        /* \"#utility.yul\":18243:18358   */\n      pop\n      pop\n      jump\t// out\n        /* \"#utility.yul\":18364:18457   */\n    tag_311:\n        /* \"#utility.yul\":18400:18407   */\n      0x00\n        /* \"#utility.yul\":18440:18450   */\n      0xffffffff\n        /* \"#utility.yul\":18433:18438   */\n      dup3\n        /* \"#utility.yul\":18429:18451   */\n      and\n        /* \"#utility.yul\":18418:18451   */\n      swap1\n      pop\n        /* \"#utility.yul\":18364:18457   */\n      swap2\n      swap1\n      pop\n      jump\t// out\n        /* \"#utility.yul\":18463:18578   */\n    tag_312:\n        /* \"#utility.yul\":18548:18571   */\n      tag_533\n        /* \"#utility.yul\":18565:18570   */\n      dup2\n        /* \"#utility.yul\":18548:18571   */\n      tag_311\n      jump\t// in\n    tag_533:\n        /* \"#utility.yul\":18543:18546   */\n      dup3\n        /* \"#utility.yul\":18536:18572   */\n      mstore\n        /* \"#utility.yul\":18463:18578   */\n      pop\n      pop\n      jump\t// out\n        /* \"#utility.yul\":18584:19232   */\n    tag_177:\n        /* \"#utility.yul\":18781:18785   */\n      0x00\n        /* \"#utility.yul\":18819:18822   */\n      0xa0\n        /* \"#utility.yul\":18808:18817   */\n      dup3\n        /* \"#utility.yul\":18804:18823   */\n      add\n        /* \"#utility.yul\":18796:18823   */\n      swap1\n      pop\n        /* \"#utility.yul\":18833:18904   */\n      tag_535\n        /* \"#utility.yul\":18901:18902   */\n      0x00\n        /* \"#utility.yul\":18890:18899   */\n      dup4\n        /* \"#utility.yul\":18886:18903   */\n      add\n        /* \"#utility.yul\":18877:18883   */\n      dup9\n        /* \"#utility.yul\":18833:18904   */\n      tag_306\n      jump\t// in\n    tag_535:\n        /* \"#utility.yul\":18914:18984   */\n      tag_536\n        /* \"#utility.yul\":18980:18982   */\n      0x20\n        /* \"#utility.yul\":18969:18978   */\n      dup4\n        /* \"#utility.yul\":18965:18983   */\n      add\n        /* \"#utility.yul\":18956:18962   */\n      dup8\n        /* \"#utility.yul\":18914:18984   */\n      tag_308\n      jump\t// in\n    tag_536:\n        /* \"#utility.yul\":18994:19064   */\n      tag_537\n        /* \"#utility.yul\":19060:19062   */\n      0x40\n        /* \"#utility.yul\":19049:19058   */\n      dup4\n        /* \"#utility.yul\":19045:19063   */\n      add\n        /* \"#utility.yul\":19036:19042   */\n      dup7\n        /* \"#utility.yul\":18994:19064   */\n      tag_310\n      jump\t// in\n    tag_537:\n        /* \"#utility.yul\":19074:19144   */\n      tag_538\n        /* \"#utility.yul\":19140:19142   */\n      0x60\n        /* \"#utility.yul\":19129:19138   */\n      dup4\n        /* \"#utility.yul\":19125:19143   */\n      add\n        /* \"#utility.yul\":19116:19122   */\n      dup6\n        /* \"#utility.yul\":19074:19144   */\n      tag_312\n      jump\t// in\n    tag_538:\n        /* \"#utility.yul\":19154:19225   */\n      tag_539\n        /* \"#utility.yul\":19220:19223   */\n      0x80\n        /* \"#utility.yul\":19209:19218   */\n      dup4\n        /* \"#utility.yul\":19205:19224   */\n      add\n        /* \"#utility.yul\":19196:19202   */\n      dup5\n        /* \"#utility.yul\":19154:19225   */\n      tag_312\n      jump\t// in\n    tag_539:\n        /* \"#utility.yul\":18584:19232   */\n      swap7\n      swap6\n      pop\n      pop\n      pop\n      pop\n      pop\n      pop\n      jump\t// out\n        /* \"#utility.yul\":19238:19381   */\n    tag_313:\n        /* \"#utility.yul\":19295:19300   */\n      0x00\n        /* \"#utility.yul\":19326:19332   */\n      dup2\n        /* \"#utility.yul\":19320:19333   */\n      mload\n        /* \"#utility.yul\":19311:19333   */\n      swap1\n      pop\n        /* \"#utility.yul\":19342:19375   */\n      tag_541\n        /* \"#utility.yul\":19369:19374   */\n      dup2\n        /* \"#utility.yul\":19342:19375   */\n      tag_264\n      jump\t// in\n    tag_541:\n        /* \"#utility.yul\":19238:19381   */\n      swap3\n      swap2\n      pop\n      pop\n      jump\t// out\n        /* \"#utility.yul\":19387:19738   */\n    tag_181:\n        /* \"#utility.yul\":19457:19463   */\n      0x00\n        /* \"#utility.yul\":19506:19508   */\n      0x20\n        /* \"#utility.yul\":19494:19503   */\n      dup3\n        /* \"#utility.yul\":19485:19492   */\n      dup5\n        /* \"#utility.yul\":19481:19504   */\n      sub\n        /* \"#utility.yul\":19477:19509   */\n      slt\n        /* \"#utility.yul\":19474:19593   */\n      iszero\n      tag_543\n      jumpi\n        /* \"#utility.yul\":19512:19591   */\n      tag_544\n      tag_262\n      jump\t// in\n    tag_544:\n        /* \"#utility.yul\":19474:19593   */\n    tag_543:\n        /* \"#utility.yul\":19632:19633   */\n      0x00\n        /* \"#utility.yul\":19657:19721   */\n      tag_545\n        /* \"#utility.yul\":19713:19720   */\n      dup5\n        /* \"#utility.yul\":19704:19710   */\n      dup3\n        /* \"#utility.yul\":19693:19702   */\n      dup6\n        /* \"#utility.yul\":19689:19711   */\n      add\n        /* \"#utility.yul\":19657:19721   */\n      tag_313\n      jump\t// in\n    tag_545:\n        /* \"#utility.yul\":19647:19721   */\n      swap2\n      pop\n        /* \"#utility.yul\":19603:19731   */\n      pop\n        /* \"#utility.yul\":19387:19738   */\n      swap3\n      swap2\n      pop\n      pop\n      jump\t// out\n        /* \"#utility.yul\":19744:19891   */\n    tag_314:\n        /* \"#utility.yul\":19845:19856   */\n      0x00\n        /* \"#utility.yul\":19882:19885   */\n      dup2\n        /* \"#utility.yul\":19867:19885   */\n      swap1\n      pop\n        /* \"#utility.yul\":19744:19891   */\n      swap3\n      swap2\n      pop\n      pop\n      jump\t// out\n        /* \"#utility.yul\":19897:20011   */\n    tag_315:\n      pop\n      jump\t// out\n        /* \"#utility.yul\":20017:20415   */\n    tag_316:\n        /* \"#utility.yul\":20176:20179   */\n      0x00\n        /* \"#utility.yul\":20197:20280   */\n      tag_549\n        /* \"#utility.yul\":20278:20279   */\n      0x00\n        /* \"#utility.yul\":20273:20276   */\n      dup4\n        /* \"#utility.yul\":20197:20280   */\n      tag_314\n      jump\t// in\n    tag_549:\n        /* \"#utility.yul\":20190:20280   */\n      swap2\n      pop\n        /* \"#utility.yul\":20289:20382   */\n      tag_550\n        /* \"#utility.yul\":20378:20381   */\n      dup3\n        /* \"#utility.yul\":20289:20382   */\n      tag_315\n      jump\t// in\n    tag_550:\n        /* \"#utility.yul\":20407:20408   */\n      0x00\n        /* \"#utility.yul\":20402:20405   */\n      dup3\n        /* \"#utility.yul\":20398:20409   */\n      add\n        /* \"#utility.yul\":20391:20409   */\n      swap1\n      pop\n        /* \"#utility.yul\":20017:20415   */\n      swap2\n      swap1\n      pop\n      jump\t// out\n        /* \"#utility.yul\":20421:20800   */\n    tag_185:\n        /* \"#utility.yul\":20605:20608   */\n      0x00\n        /* \"#utility.yul\":20627:20774   */\n      tag_552\n        /* \"#utility.yul\":20770:20773   */\n      dup3\n        /* \"#utility.yul\":20627:20774   */\n      tag_316\n      jump\t// in\n    tag_552:\n        /* \"#utility.yul\":20620:20774   */\n      swap2\n      pop\n        /* \"#utility.yul\":20791:20794   */\n      dup2\n        /* \"#utility.yul\":20784:20794   */\n      swap1\n      pop\n        /* \"#utility.yul\":20421:20800   */\n      swap2\n      swap1\n      pop\n      jump\t// out\n        /* \"#utility.yul\":20806:21000   */\n    tag_196:\n        /* \"#utility.yul\":20846:20850   */\n      0x00\n        /* \"#utility.yul\":20866:20886   */\n      tag_554\n        /* \"#utility.yul\":20884:20885   */\n      dup3\n        /* \"#utility.yul\":20866:20886   */\n      tag_255\n      jump\t// in\n    tag_554:\n        /* \"#utility.yul\":20861:20886   */\n      swap2\n      pop\n        /* \"#utility.yul\":20900:20920   */\n      tag_555\n        /* \"#utility.yul\":20918:20919   */\n      dup4\n        /* \"#utility.yul\":20900:20920   */\n      tag_255\n      jump\t// in\n    tag_555:\n        /* \"#utility.yul\":20895:20920   */\n      swap3\n      pop\n        /* \"#utility.yul\":20944:20945   */\n      dup3\n        /* \"#utility.yul\":20941:20942   */\n      dup3\n        /* \"#utility.yul\":20937:20946   */\n      sub\n        /* \"#utility.yul\":20929:20946   */\n      swap1\n      pop\n        /* \"#utility.yul\":20968:20969   */\n      dup2\n        /* \"#utility.yul\":20962:20966   */\n      dup2\n        /* \"#utility.yul\":20959:20970   */\n      gt\n        /* \"#utility.yul\":20956:20993   */\n      iszero\n      tag_556\n      jumpi\n        /* \"#utility.yul\":20973:20991   */\n      tag_557\n      tag_297\n      jump\t// in\n    tag_557:\n        /* \"#utility.yul\":20956:20993   */\n    tag_556:\n        /* \"#utility.yul\":20806:21000   */\n      swap3\n      swap2\n      pop\n      pop\n      jump\t// out\n        /* \"#utility.yul\":21006:21186   */\n    tag_317:\n        /* \"#utility.yul\":21054:21131   */\n      0x4e487b7100000000000000000000000000000000000000000000000000000000\n        /* \"#utility.yul\":21051:21052   */\n      0x00\n        /* \"#utility.yul\":21044:21132   */\n      mstore\n        /* \"#utility.yul\":21151:21155   */\n      0x12\n        /* \"#utility.yul\":21148:21149   */\n      0x04\n        /* \"#utility.yul\":21141:21156   */\n      mstore\n        /* \"#utility.yul\":21175:21179   */\n      0x24\n        /* \"#utility.yul\":21172:21173   */\n      0x00\n        /* \"#utility.yul\":21165:21180   */\n      revert\n        /* \"#utility.yul\":21192:21368   */\n    tag_231:\n        /* \"#utility.yul\":21224:21225   */\n      0x00\n        /* \"#utility.yul\":21241:21261   */\n      tag_560\n        /* \"#utility.yul\":21259:21260   */\n      dup3\n        /* \"#utility.yul\":21241:21261   */\n      tag_255\n      jump\t// in\n    tag_560:\n        /* \"#utility.yul\":21236:21261   */\n      swap2\n      pop\n        /* \"#utility.yul\":21275:21295   */\n      tag_561\n        /* \"#utility.yul\":21293:21294   */\n      dup4\n        /* \"#utility.yul\":21275:21295   */\n      tag_255\n      jump\t// in\n    tag_561:\n        /* \"#utility.yul\":21270:21295   */\n      swap3\n      pop\n        /* \"#utility.yul\":21314:21315   */\n      dup3\n        /* \"#utility.yul\":21304:21339   */\n      tag_562\n      jumpi\n        /* \"#utility.yul\":21319:21337   */\n      tag_563\n      tag_317\n      jump\t// in\n    tag_563:\n        /* \"#utility.yul\":21304:21339   */\n    tag_562:\n        /* \"#utility.yul\":21360:21361   */\n      dup3\n        /* \"#utility.yul\":21357:21358   */\n      dup3\n        /* \"#utility.yul\":21353:21362   */\n      mod\n        /* \"#utility.yul\":21348:21362   */\n      swap1\n      pop\n        /* \"#utility.yul\":21192:21368   */\n      swap3\n      swap2\n      pop\n      pop\n      jump\t// out\n        /* \"#utility.yul\":21374:21434   */\n    tag_318:\n        /* \"#utility.yul\":21402:21405   */\n      0x00\n        /* \"#utility.yul\":21423:21428   */\n      dup2\n        /* \"#utility.yul\":21416:21428   */\n      swap1\n      pop\n        /* \"#utility.yul\":21374:21434   */\n      swap2\n      swap1\n      pop\n      jump\t// out\n        /* \"#utility.yul\":21440:21582   */\n    tag_319:\n        /* \"#utility.yul\":21490:21499   */\n      0x00\n        /* \"#utility.yul\":21523:21576   */\n      tag_566\n        /* \"#utility.yul\":21541:21575   */\n      tag_567\n        /* \"#utility.yul\":21550:21574   */\n      tag_568\n        /* \"#utility.yul\":21568:21573   */\n      dup5\n        /* \"#utility.yul\":21550:21574   */\n      tag_275\n      jump\t// in\n    tag_568:\n        /* \"#utility.yul\":21541:21575   */\n      tag_318\n      jump\t// in\n    tag_567:\n        /* \"#utility.yul\":21523:21576   */\n      tag_275\n      jump\t// in\n    tag_566:\n        /* \"#utility.yul\":21510:21576   */\n      swap1\n      pop\n        /* \"#utility.yul\":21440:21582   */\n      swap2\n      swap1\n      pop\n      jump\t// out\n        /* \"#utility.yul\":21588:21714   */\n    tag_320:\n        /* \"#utility.yul\":21638:21647   */\n      0x00\n        /* \"#utility.yul\":21671:21708   */\n      tag_570\n        /* \"#utility.yul\":21702:21707   */\n      dup3\n        /* \"#utility.yul\":21671:21708   */\n      tag_319\n      jump\t// in\n    tag_570:\n        /* \"#utility.yul\":21658:21708   */\n      swap1\n      pop\n        /* \"#utility.yul\":21588:21714   */\n      swap2\n      swap1\n      pop\n      jump\t// out\n        /* \"#utility.yul\":21720:21854   */\n    tag_321:\n        /* \"#utility.yul\":21778:21787   */\n      0x00\n        /* \"#utility.yul\":21811:21848   */\n      tag_572\n        /* \"#utility.yul\":21842:21847   */\n      dup3\n        /* \"#utility.yul\":21811:21848   */\n      tag_320\n      jump\t// in\n    tag_572:\n        /* \"#utility.yul\":21798:21848   */\n      swap1\n      pop\n        /* \"#utility.yul\":21720:21854   */\n      swap2\n      swap1\n      pop\n      jump\t// out\n        /* \"#utility.yul\":21860:22007   */\n    tag_322:\n        /* \"#utility.yul\":21955:22000   */\n      tag_574\n        /* \"#utility.yul\":21994:21999   */\n      dup2\n        /* \"#utility.yul\":21955:22000   */\n      tag_321\n      jump\t// in\n    tag_574:\n        /* \"#utility.yul\":21950:21953   */\n      dup3\n        /* \"#utility.yul\":21943:22001   */\n      mstore\n        /* \"#utility.yul\":21860:22007   */\n      pop\n      pop\n      jump\t// out\n        /* \"#utility.yul\":22013:22251   */\n    tag_242:\n        /* \"#utility.yul\":22114:22118   */\n      0x00\n        /* \"#utility.yul\":22152:22154   */\n      0x20\n        /* \"#utility.yul\":22141:22150   */\n      dup3\n        /* \"#utility.yul\":22137:22155   */\n      add\n        /* \"#utility.yul\":22129:22155   */\n      swap1\n      pop\n        /* \"#utility.yul\":22165:22244   */\n      tag_576\n        /* \"#utility.yul\":22241:22242   */\n      0x00\n        /* \"#utility.yul\":22230:22239   */\n      dup4\n        /* \"#utility.yul\":22226:22243   */\n      add\n        /* \"#utility.yul\":22217:22223   */\n      dup5\n        /* \"#utility.yul\":22165:22244   */\n      tag_322\n      jump\t// in\n    tag_576:\n        /* \"#utility.yul\":22013:22251   */\n      swap3\n      swap2\n      pop\n      pop\n      jump\t// out\n\n    auxdata: 0xa264697066735822122052001ed521ec0cf8c04d7c961d241dc9f24b57e06688dda5d5f8b18267a4f06664736f6c63430008120033\n}\n",
				"bytecode": {
					"linkReferences": {},
					"object": "610160604052662386f26fc1000060c09081525047600455606460506004546200002a91906200025f565b620000369190620002d9565b6005556064600a6004546200004c91906200025f565b620000589190620002d9565b6006556064600a6004546200006e91906200025f565b6200007a9190620002d9565b6007556000600a553480156200008f57600080fd5b50604051620026de380380620026de8339818101604052810190620000b591906200046d565b838073ffffffffffffffffffffffffffffffffffffffff1660808173ffffffffffffffffffffffffffffffffffffffff1681525050508373ffffffffffffffffffffffffffffffffffffffff166101408173ffffffffffffffffffffffffffffffffffffffff16815250508260e081815250508167ffffffffffffffff166101008167ffffffffffffffff16815250508063ffffffff166101208163ffffffff168152505086600960006101000a81548173ffffffffffffffffffffffffffffffffffffffff021916908373ffffffffffffffffffffffffffffffffffffffff16021790555085600860006101000a81548173ffffffffffffffffffffffffffffffffffffffff021916908373ffffffffffffffffffffffffffffffffffffffff1602179055508460a08181525050426002819055506000600960146101000a81548160ff0219169083600181111562000214576200021362000520565b5b0217905550505050505050506200054f565b6000819050919050565b7f4e487b7100000000000000000000000000000000000000000000000000000000600052601160045260246000fd5b60006200026c8262000226565b9150620002798362000226565b9250828202620002898162000226565b91508282048414831517620002a357620002a262000230565b5b5092915050565b7f4e487b7100000000000000000000000000000000000000000000000000000000600052601260045260246000fd5b6000620002e68262000226565b9150620002f38362000226565b925082620003065762000305620002aa565b5b828204905092915050565b600080fd5b600073ffffffffffffffffffffffffffffffffffffffff82169050919050565b6000620003438262000316565b9050919050565b620003558162000336565b81146200036157600080fd5b50565b60008151905062000375816200034a565b92915050565b620003868162000226565b81146200039257600080fd5b50565b600081519050620003a6816200037b565b92915050565b6000819050919050565b620003c181620003ac565b8114620003cd57600080fd5b50565b600081519050620003e181620003b6565b92915050565b600067ffffffffffffffff82169050919050565b6200040681620003e7565b81146200041257600080fd5b50565b6000815190506200042681620003fb565b92915050565b600063ffffffff82169050919050565b62000447816200042c565b81146200045357600080fd5b50565b60008151905062000467816200043c565b92915050565b600080600080600080600060e0888a0312156200048f576200048e62000311565b5b60006200049f8a828b0162000364565b9750506020620004b28a828b0162000364565b9650506040620004c58a828b0162000395565b9550506060620004d88a828b0162000364565b9450506080620004eb8a828b01620003d0565b93505060a0620004fe8a828b0162000415565b92505060c0620005118a828b0162000456565b91505092959891949750929550565b7f4e487b7100000000000000000000000000000000000000000000000000000000600052602160045260246000fd5b60805160a05160c05160e051610100516101205161014051612118620005c660003960006109fd01526000610a7d01526000610a5a01526000610a390152600081816105b701528181610dc10152611044015260008181610cb50152610d1a0152600081816104f5015261054901526121186000f3fe60806040526004361061012a5760003560e01c80636919207d116100ab578063bc9999601161006f578063bc999960146103c4578063bf6ad320146103ef578063d1c8e7e61461041a578063d2f0be9914610445578063db2cea751461046e578063eefd65e5146104ab5761012a565b80636919207d146102c85780636e04ff0d146102f35780637ea3e6c1146103315780638638b0c61461035c578063ae771f6b146103875761012a565b80632e2bff87116100f25780632e2bff87146101f55780634585e33b146102205780634607a5eb14610249578063476343ee14610286578063634b63f51461029d5761012a565b806313114a9d1461012f5780631865c57d1461015a5780631fe543e314610185578063215198cf146101ae578063238cd5ea146101ca575b600080fd5b34801561013b57600080fd5b506101446104d6565b604051610151919061152e565b60405180910390f35b34801561016657600080fd5b5061016f6104dc565b60405161017c91906115c0565b60405180910390f35b34801561019157600080fd5b506101ac60048036038101906101a79190611774565b6104f3565b005b6101c860048036038101906101c391906118f1565b6105b3565b005b3480156101d657600080fd5b506101df610919565b6040516101ec919061152e565b60405180910390f35b34801561020157600080fd5b5061020a61091f565b6040516102179190611949565b60405180910390f35b34801561022c57600080fd5b50610247600480360381019061024291906119bf565b610945565b005b34801561025557600080fd5b50610270600480360381019061026b9190611a0c565b610b36565b60405161027d919061152e565b60405180910390f35b34801561029257600080fd5b5061029b610b4e565b005b3480156102a957600080fd5b506102b2610cad565b6040516102bf919061152e565b60405180910390f35b3480156102d457600080fd5b506102dd610cb3565b6040516102ea919061152e565b60405180910390f35b3480156102ff57600080fd5b5061031a60048036038101906103159190611aee565b610cd7565b604051610328929190611bd1565b60405180910390f35b34801561033d57600080fd5b50610346610dbf565b604051610353919061152e565b60405180910390f35b34801561036857600080fd5b50610371610de3565b60405161037e9190611949565b60405180910390f35b34801561039357600080fd5b506103ae60048036038101906103a99190611c01565b610e09565b6040516103bb9190611c4f565b60405180910390f35b3480156103d057600080fd5b506103d9610e48565b6040516103e69190611949565b60405180910390f35b3480156103fb57600080fd5b50610404610e6e565b604051610411919061152e565b60405180910390f35b34801561042657600080fd5b5061042f610e74565b60405161043c919061152e565b60405180910390f35b34801561045157600080fd5b5061046c60048036038101906104679190611c01565b610e7a565b005b34801561047a57600080fd5b5061049560048036038101906104909190611a0c565b6110f1565b6040516104a2919061152e565b60405180910390f35b3480156104b757600080fd5b506104c06111cb565b6040516104cd919061152e565b60405180910390f35b60045481565b6000600960149054906101000a900460ff16905090565b7f000000000000000000000000000000000000000000000000000000000000000073ffffffffffffffffffffffffffffffffffffffff163373ffffffffffffffffffffffffffffffffffffffff16146105a557337f00000000000000000000000000000000000000000000000000000000000000006040517f1cf993f400000000000000000000000000000000000000000000000000000000815260040161059c929190611c6a565b60405180910390fd5b6105af82826111d1565b5050565b80517f00000000000000000000000000000000000000000000000000000000000000006105e09190611cc2565b3414610618576040517fd353f6a400000000000000000000000000000000000000000000000000000000815260040160405180910390fd5b600960149054906101000a900460ff16600181111561063a57610639611549565b5b6000600181111561064e5761064d611549565b5b14610685576040517f2127cd5500000000000000000000000000000000000000000000000000000000815260040160405180910390fd5b60005b815181101561072457600073ffffffffffffffffffffffffffffffffffffffff168282815181106106bc576106bb611d04565b5b602002602001015173ffffffffffffffffffffffffffffffffffffffff1603610711576040517f77560d5600000000000000000000000000000000000000000000000000000000815260040160405180910390fd5b808061071c90611d33565b915050610688565b5060005b81518110156107d757600a5460008084848151811061074a57610749611d04565b5b602002602001015173ffffffffffffffffffffffffffffffffffffffff1673ffffffffffffffffffffffffffffffffffffffff16815260200190815260200160002054146107c4576040517f842b545300000000000000000000000000000000000000000000000000000000815260040160405180910390fd5b80806107cf90611d33565b915050610728565b5060005b81518110156108d35760018282815181106107f9576107f8611d04565b5b60200260200101519080600181540180825580915050600190039060005260206000200160009091909190916101000a81548173ffffffffffffffffffffffffffffffffffffffff021916908373ffffffffffffffffffffffffffffffffffffffff160217905550600a5460008084848151811061087a57610879611d04565b5b602002602001015173ffffffffffffffffffffffffffffffffffffffff1673ffffffffffffffffffffffffffffffffffffffff1681526020019081526020016000208190555080806108cb90611d33565b9150506107db565b50806040516108e29190611e33565b60405180910390207ff685cf2eaba0245dbc544c8a6b00be3838e7dde902f5887ad16fd6632161c86c60405160405180910390a250565b60075481565b600860009054906101000a900473ffffffffffffffffffffffffffffffffffffffff1681565b600061095f60405180602001604052806000815250610cd7565b509050806109ce57600960149054906101000a900460ff16600181111561098957610988611549565b5b600180549050476040517f4656b1a60000000000000000000000000000000000000000000000000000000081526004016109c593929190611e4a565b60405180910390fd5b6001600960146101000a81548160ff021916908360018111156109f4576109f3611549565b5b021790555060007f000000000000000000000000000000000000000000000000000000000000000073ffffffffffffffffffffffffffffffffffffffff16635d3b1d307f00000000000000000000000000000000000000000000000000000000000000007f000000000000000000000000000000000000000000000000000000000000000060037f000000000000000000000000000000000000000000000000000000000000000060016040518663ffffffff1660e01b8152600401610abe959493929190611ef9565b6020604051808303816000875af1158015610add573d6000803e3d6000fd5b505050506040513d601f19601f82011682018060405250810190610b019190611f61565b9050807fb005c91021fa8bbab4ff5893f7628abdf096d341ec58455922663e7451cf4a0f60405160405180910390a250505050565b60006020528060005260406000206000915090505481565b600960009054906101000a900473ffffffffffffffffffffffffffffffffffffffff1673ffffffffffffffffffffffffffffffffffffffff163373ffffffffffffffffffffffffffffffffffffffff1614610bd5576040517f1207fbb600000000000000000000000000000000000000000000000000000000815260040160405180910390fd5b6000600754905060006007819055506000600960009054906101000a900473ffffffffffffffffffffffffffffffffffffffff1673ffffffffffffffffffffffffffffffffffffffff1682604051610c2c90611fbf565b60006040518083038185875af1925050503d8060008114610c69576040519150601f19603f3d011682016040523d82523d6000602084013e610c6e565b606091505b5050905080610ca9576040517f84e01dfc00000000000000000000000000000000000000000000000000000000815260040160405180910390fd5b5050565b60025481565b7f000000000000000000000000000000000000000000000000000000000000000081565b600060606000600960149054906101000a900460ff166001811115610cff57610cfe611549565b5b60006001811115610d1357610d12611549565b5b14905060007f000000000000000000000000000000000000000000000000000000000000000060025442610d479190611fd4565b11905060008060018054905011905060008047119050838015610d675750825b8015610d705750815b8015610d795750805b9550856040518060400160405280600381526020017f30783000000000000000000000000000000000000000000000000000000000008152509550955050505050915091565b7f000000000000000000000000000000000000000000000000000000000000000081565b600360009054906101000a900473ffffffffffffffffffffffffffffffffffffffff1681565b60018181548110610e1957600080fd5b906000526020600020016000915054906101000a900473ffffffffffffffffffffffffffffffffffffffff1681565b600960009054906101000a900473ffffffffffffffffffffffffffffffffffffffff1681565b60055481565b60065481565b600060018281548110610e9057610e8f611d04565b5b9060005260206000200160009054906101000a900473ffffffffffffffffffffffffffffffffffffffff1690508073ffffffffffffffffffffffffffffffffffffffff163373ffffffffffffffffffffffffffffffffffffffff1614610f22576040517feaadc70500000000000000000000000000000000000000000000000000000000815260040160405180910390fd5b600073ffffffffffffffffffffffffffffffffffffffff168173ffffffffffffffffffffffffffffffffffffffff1603610f88576040517feaadc70500000000000000000000000000000000000000000000000000000000815260040160405180910390fd5b600060018381548110610f9e57610f9d611d04565b5b9060005260206000200160006101000a81548173ffffffffffffffffffffffffffffffffffffffff021916908373ffffffffffffffffffffffffffffffffffffffff1602179055508073ffffffffffffffffffffffffffffffffffffffff167f69d9a1f7b99f5c0c8416e5e60744f92e2927ca1670a7591a36531f63f2f198e060405160405180910390a260008173ffffffffffffffffffffffffffffffffffffffff167f000000000000000000000000000000000000000000000000000000000000000060405161106f90611fbf565b60006040518083038185875af1925050503d80600081146110ac576040519150601f19603f3d011682016040523d82523d6000602084013e6110b1565b606091505b50509050806110ec576040517f84e01dfc00000000000000000000000000000000000000000000000000000000815260040160405180910390fd5b505050565b600080600090505b600180549050811015611193578273ffffffffffffffffffffffffffffffffffffffff166001828154811061113157611130611d04565b5b9060005260206000200160009054906101000a900473ffffffffffffffffffffffffffffffffffffffff1673ffffffffffffffffffffffffffffffffffffffff160361118057809150506111c6565b808061118b90611d33565b9150506110f9565b506040517f77560d5600000000000000000000000000000000000000000000000000000000815260040160405180910390fd5b919050565b600a5481565b600360009054906101000a900473ffffffffffffffffffffffffffffffffffffffff1673ffffffffffffffffffffffffffffffffffffffff163373ffffffffffffffffffffffffffffffffffffffff1603611258576040517f3f4e0a9600000000000000000000000000000000000000000000000000000000815260040160405180910390fd5b600a600081548092919061126b90611d33565b919050555060006001805490508260008151811061128c5761128b611d04565b5b602002602001015161129e9190612037565b90506000600182815481106112b6576112b5611d04565b5b9060005260206000200160009054906101000a900473ffffffffffffffffffffffffffffffffffffffff16905080600360006101000a81548173ffffffffffffffffffffffffffffffffffffffff021916908373ffffffffffffffffffffffffffffffffffffffff160217905550600067ffffffffffffffff81111561133f5761133e611631565b5b60405190808252806020026020018201604052801561136d5781602001602082028036833780820191505090505b506001908051906020019061138392919061146e565b50426002819055507f2eed469ddbea5cbffbb1087704e72158ac6a0400eaf22fad27fa2d5b0fc43859816040516113ba91906120c7565b60405180910390a160008173ffffffffffffffffffffffffffffffffffffffff166005546040516113ea90611fbf565b60006040518083038185875af1925050503d8060008114611427576040519150601f19603f3d011682016040523d82523d6000602084013e61142c565b606091505b5050905080611467576040517f84e01dfc00000000000000000000000000000000000000000000000000000000815260040160405180910390fd5b5050505050565b8280548282559060005260206000209081019282156114e7579160200282015b828111156114e65782518260006101000a81548173ffffffffffffffffffffffffffffffffffffffff021916908373ffffffffffffffffffffffffffffffffffffffff1602179055509160200191906001019061148e565b5b5090506114f491906114f8565b5090565b5b808211156115115760008160009055506001016114f9565b5090565b6000819050919050565b61152881611515565b82525050565b6000602082019050611543600083018461151f565b92915050565b7f4e487b7100000000000000000000000000000000000000000000000000000000600052602160045260246000fd5b6002811061158957611588611549565b5b50565b600081905061159a82611578565b919050565b60006115aa8261158c565b9050919050565b6115ba8161159f565b82525050565b60006020820190506115d560008301846115b1565b92915050565b6000604051905090565b600080fd5b600080fd5b6115f881611515565b811461160357600080fd5b50565b600081359050611615816115ef565b92915050565b600080fd5b6000601f19601f8301169050919050565b7f4e487b7100000000000000000000000000000000000000000000000000000000600052604160045260246000fd5b61166982611620565b810181811067ffffffffffffffff8211171561168857611687611631565b5b80604052505050565b600061169b6115db565b90506116a78282611660565b919050565b600067ffffffffffffffff8211156116c7576116c6611631565b5b602082029050602081019050919050565b600080fd5b60006116f06116eb846116ac565b611691565b90508083825260208201905060208402830185811115611713576117126116d8565b5b835b8181101561173c57806117288882611606565b845260208401935050602081019050611715565b5050509392505050565b600082601f83011261175b5761175a61161b565b5b813561176b8482602086016116dd565b91505092915050565b6000806040838503121561178b5761178a6115e5565b5b600061179985828601611606565b925050602083013567ffffffffffffffff8111156117ba576117b96115ea565b5b6117c685828601611746565b9150509250929050565b600067ffffffffffffffff8211156117eb576117ea611631565b5b602082029050602081019050919050565b600073ffffffffffffffffffffffffffffffffffffffff82169050919050565b6000611827826117fc565b9050919050565b6118378161181c565b811461184257600080fd5b50565b6000813590506118548161182e565b92915050565b600061186d611868846117d0565b611691565b905080838252602082019050602084028301858111156118905761188f6116d8565b5b835b818110156118b957806118a58882611845565b845260208401935050602081019050611892565b5050509392505050565b600082601f8301126118d8576118d761161b565b5b81356118e884826020860161185a565b91505092915050565b600060208284031215611907576119066115e5565b5b600082013567ffffffffffffffff811115611925576119246115ea565b5b611931848285016118c3565b91505092915050565b6119438161181c565b82525050565b600060208201905061195e600083018461193a565b92915050565b600080fd5b60008083601f84011261197f5761197e61161b565b5b8235905067ffffffffffffffff81111561199c5761199b611964565b5b6020830191508360018202830111156119b8576119b76116d8565b5b9250929050565b600080602083850312156119d6576119d56115e5565b5b600083013567ffffffffffffffff8111156119f4576119f36115ea565b5b611a0085828601611969565b92509250509250929050565b600060208284031215611a2257611a216115e5565b5b6000611a3084828501611845565b91505092915050565b600080fd5b600067ffffffffffffffff821115611a5957611a58611631565b5b611a6282611620565b9050602081019050919050565b82818337600083830152505050565b6000611a91611a8c84611a3e565b611691565b905082815260208101848484011115611aad57611aac611a39565b5b611ab8848285611a6f565b509392505050565b600082601f830112611ad557611ad461161b565b5b8135611ae5848260208601611a7e565b91505092915050565b600060208284031215611b0457611b036115e5565b5b600082013567ffffffffffffffff811115611b2257611b216115ea565b5b611b2e84828501611ac0565b91505092915050565b60008115159050919050565b611b4c81611b37565b82525050565b600081519050919050565b600082825260208201905092915050565b60005b83811015611b8c578082015181840152602081019050611b71565b60008484015250505050565b6000611ba382611b52565b611bad8185611b5d565b9350611bbd818560208601611b6e565b611bc681611620565b840191505092915050565b6000604082019050611be66000830185611b43565b8181036020830152611bf88184611b98565b90509392505050565b600060208284031215611c1757611c166115e5565b5b6000611c2584828501611606565b91505092915050565b6000611c39826117fc565b9050919050565b611c4981611c2e565b82525050565b6000602082019050611c646000830184611c40565b92915050565b6000604082019050611c7f600083018561193a565b611c8c602083018461193a565b9392505050565b7f4e487b7100000000000000000000000000000000000000000000000000000000600052601160045260246000fd5b6000611ccd82611515565b9150611cd883611515565b9250828202611ce681611515565b91508282048414831517611cfd57611cfc611c93565b5b5092915050565b7f4e487b7100000000000000000000000000000000000000000000000000000000600052603260045260246000fd5b6000611d3e82611515565b91507fffffffffffffffffffffffffffffffffffffffffffffffffffffffffffffffff8203611d7057611d6f611c93565b5b600182019050919050565b600081519050919050565b600081905092915050565b6000819050602082019050919050565b611daa8161181c565b82525050565b6000611dbc8383611da1565b60208301905092915050565b6000602082019050919050565b6000611de082611d7b565b611dea8185611d86565b9350611df583611d91565b8060005b83811015611e26578151611e0d8882611db0565b9750611e1883611dc8565b925050600181019050611df9565b5085935050505092915050565b6000611e3f8284611dd5565b915081905092915050565b6000606082019050611e5f600083018661151f565b611e6c602083018561151f565b611e79604083018461151f565b949350505050565b6000819050919050565b611e9481611e81565b82525050565b600067ffffffffffffffff82169050919050565b611eb781611e9a565b82525050565b600061ffff82169050919050565b611ed481611ebd565b82525050565b600063ffffffff82169050919050565b611ef381611eda565b82525050565b600060a082019050611f0e6000830188611e8b565b611f1b6020830187611eae565b611f286040830186611ecb565b611f356060830185611eea565b611f426080830184611eea565b9695505050505050565b600081519050611f5b816115ef565b92915050565b600060208284031215611f7757611f766115e5565b5b6000611f8584828501611f4c565b91505092915050565b600081905092915050565b50565b6000611fa9600083611f8e565b9150611fb482611f99565b600082019050919050565b6000611fca82611f9c565b9150819050919050565b6000611fdf82611515565b9150611fea83611515565b925082820390508181111561200257612001611c93565b5b92915050565b7f4e487b7100000000000000000000000000000000000000000000000000000000600052601260045260246000fd5b600061204282611515565b915061204d83611515565b92508261205d5761205c612008565b5b828206905092915050565b6000819050919050565b600061208d612088612083846117fc565b612068565b6117fc565b9050919050565b600061209f82612072565b9050919050565b60006120b182612094565b9050919050565b6120c1816120a6565b82525050565b60006020820190506120dc60008301846120b8565b9291505056fea264697066735822122052001ed521ec0cf8c04d7c961d241dc9f24b57e06688dda5d5f8b18267a4f06664736f6c63430008120033",
					"opcodes": "PUSH2 0x160 PUSH1 0x40 MSTORE PUSH7 0x2386F26FC10000 PUSH1 0xC0 SWAP1 DUP2 MSTORE POP SELFBALANCE PUSH1 0x4 SSTORE PUSH1 0x64 PUSH1 0x50 PUSH1 0x4 SLOAD PUSH3 0x2A SWAP2 SWAP1 PUSH3 0x25F JUMP JUMPDEST PUSH3 0x36 SWAP2 SWAP1 PUSH3 0x2D9 JUMP JUMPDEST PUSH1 0x5 SSTORE PUSH1 0x64 PUSH1 0xA PUSH1 0x4 SLOAD PUSH3 0x4C SWAP2 SWAP1 PUSH3 0x25F JUMP JUMPDEST PUSH3 0x58 SWAP2 SWAP1 PUSH3 0x2D9 JUMP JUMPDEST PUSH1 0x6 SSTORE PUSH1 0x64 PUSH1 0xA PUSH1 0x4 SLOAD PUSH3 0x6E SWAP2 SWAP1 PUSH3 0x25F JUMP JUMPDEST PUSH3 0x7A SWAP2 SWAP1 PUSH3 0x2D9 JUMP JUMPDEST PUSH1 0x7 SSTORE PUSH1 0x0 PUSH1 0xA SSTORE CALLVALUE DUP1 ISZERO PUSH3 0x8F JUMPI PUSH1 0x0 DUP1 REVERT JUMPDEST POP PUSH1 0x40 MLOAD PUSH3 0x26DE CODESIZE SUB DUP1 PUSH3 0x26DE DUP4 CODECOPY DUP2 DUP2 ADD PUSH1 0x40 MSTORE DUP2 ADD SWAP1 PUSH3 0xB5 SWAP2 SWAP1 PUSH3 0x46D JUMP JUMPDEST DUP4 DUP1 PUSH20 0xFFFFFFFFFFFFFFFFFFFFFFFFFFFFFFFFFFFFFFFF AND PUSH1 0x80 DUP2 PUSH20 0xFFFFFFFFFFFFFFFFFFFFFFFFFFFFFFFFFFFFFFFF AND DUP2 MSTORE POP POP POP DUP4 PUSH20 0xFFFFFFFFFFFFFFFFFFFFFFFFFFFFFFFFFFFFFFFF AND PUSH2 0x140 DUP2 PUSH20 0xFFFFFFFFFFFFFFFFFFFFFFFFFFFFFFFFFFFFFFFF AND DUP2 MSTORE POP POP DUP3 PUSH1 0xE0 DUP2 DUP2 MSTORE POP POP DUP2 PUSH8 0xFFFFFFFFFFFFFFFF AND PUSH2 0x100 DUP2 PUSH8 0xFFFFFFFFFFFFFFFF AND DUP2 MSTORE POP POP DUP1 PUSH4 0xFFFFFFFF AND PUSH2 0x120 DUP2 PUSH4 0xFFFFFFFF AND DUP2 MSTORE POP POP DUP7 PUSH1 0x9 PUSH1 0x0 PUSH2 0x100 EXP DUP2 SLOAD DUP2 PUSH20 0xFFFFFFFFFFFFFFFFFFFFFFFFFFFFFFFFFFFFFFFF MUL NOT AND SWAP1 DUP4 PUSH20 0xFFFFFFFFFFFFFFFFFFFFFFFFFFFFFFFFFFFFFFFF AND MUL OR SWAP1 SSTORE POP DUP6 PUSH1 0x8 PUSH1 0x0 PUSH2 0x100 EXP DUP2 SLOAD DUP2 PUSH20 0xFFFFFFFFFFFFFFFFFFFFFFFFFFFFFFFFFFFFFFFF MUL NOT AND SWAP1 DUP4 PUSH20 0xFFFFFFFFFFFFFFFFFFFFFFFFFFFFFFFFFFFFFFFF AND MUL OR SWAP1 SSTORE POP DUP5 PUSH1 0xA0 DUP2 DUP2 MSTORE POP POP TIMESTAMP PUSH1 0x2 DUP2 SWAP1 SSTORE POP PUSH1 0x0 PUSH1 0x9 PUSH1 0x14 PUSH2 0x100 EXP DUP2 SLOAD DUP2 PUSH1 0xFF MUL NOT AND SWAP1 DUP4 PUSH1 0x1 DUP2 GT ISZERO PUSH3 0x214 JUMPI PUSH3 0x213 PUSH3 0x520 JUMP JUMPDEST JUMPDEST MUL OR SWAP1 SSTORE POP POP POP POP POP POP POP POP PUSH3 0x54F JUMP JUMPDEST PUSH1 0x0 DUP2 SWAP1 POP SWAP2 SWAP1 POP JUMP JUMPDEST PUSH32 0x4E487B7100000000000000000000000000000000000000000000000000000000 PUSH1 0x0 MSTORE PUSH1 0x11 PUSH1 0x4 MSTORE PUSH1 0x24 PUSH1 0x0 REVERT JUMPDEST PUSH1 0x0 PUSH3 0x26C DUP3 PUSH3 0x226 JUMP JUMPDEST SWAP2 POP PUSH3 0x279 DUP4 PUSH3 0x226 JUMP JUMPDEST SWAP3 POP DUP3 DUP3 MUL PUSH3 0x289 DUP2 PUSH3 0x226 JUMP JUMPDEST SWAP2 POP DUP3 DUP3 DIV DUP5 EQ DUP4 ISZERO OR PUSH3 0x2A3 JUMPI PUSH3 0x2A2 PUSH3 0x230 JUMP JUMPDEST JUMPDEST POP SWAP3 SWAP2 POP POP JUMP JUMPDEST PUSH32 0x4E487B7100000000000000000000000000000000000000000000000000000000 PUSH1 0x0 MSTORE PUSH1 0x12 PUSH1 0x4 MSTORE PUSH1 0x24 PUSH1 0x0 REVERT JUMPDEST PUSH1 0x0 PUSH3 0x2E6 DUP3 PUSH3 0x226 JUMP JUMPDEST SWAP2 POP PUSH3 0x2F3 DUP4 PUSH3 0x226 JUMP JUMPDEST SWAP3 POP DUP3 PUSH3 0x306 JUMPI PUSH3 0x305 PUSH3 0x2AA JUMP JUMPDEST JUMPDEST DUP3 DUP3 DIV SWAP1 POP SWAP3 SWAP2 POP POP JUMP JUMPDEST PUSH1 0x0 DUP1 REVERT JUMPDEST PUSH1 0x0 PUSH20 0xFFFFFFFFFFFFFFFFFFFFFFFFFFFFFFFFFFFFFFFF DUP3 AND SWAP1 POP SWAP2 SWAP1 POP JUMP JUMPDEST PUSH1 0x0 PUSH3 0x343 DUP3 PUSH3 0x316 JUMP JUMPDEST SWAP1 POP SWAP2 SWAP1 POP JUMP JUMPDEST PUSH3 0x355 DUP2 PUSH3 0x336 JUMP JUMPDEST DUP2 EQ PUSH3 0x361 JUMPI PUSH1 0x0 DUP1 REVERT JUMPDEST POP JUMP JUMPDEST PUSH1 0x0 DUP2 MLOAD SWAP1 POP PUSH3 0x375 DUP2 PUSH3 0x34A JUMP JUMPDEST SWAP3 SWAP2 POP POP JUMP JUMPDEST PUSH3 0x386 DUP2 PUSH3 0x226 JUMP JUMPDEST DUP2 EQ PUSH3 0x392 JUMPI PUSH1 0x0 DUP1 REVERT JUMPDEST POP JUMP JUMPDEST PUSH1 0x0 DUP2 MLOAD SWAP1 POP PUSH3 0x3A6 DUP2 PUSH3 0x37B JUMP JUMPDEST SWAP3 SWAP2 POP POP JUMP JUMPDEST PUSH1 0x0 DUP2 SWAP1 POP SWAP2 SWAP1 POP JUMP JUMPDEST PUSH3 0x3C1 DUP2 PUSH3 0x3AC JUMP JUMPDEST DUP2 EQ PUSH3 0x3CD JUMPI PUSH1 0x0 DUP1 REVERT JUMPDEST POP JUMP JUMPDEST PUSH1 0x0 DUP2 MLOAD SWAP1 POP PUSH3 0x3E1 DUP2 PUSH3 0x3B6 JUMP JUMPDEST SWAP3 SWAP2 POP POP JUMP JUMPDEST PUSH1 0x0 PUSH8 0xFFFFFFFFFFFFFFFF DUP3 AND SWAP1 POP SWAP2 SWAP1 POP JUMP JUMPDEST PUSH3 0x406 DUP2 PUSH3 0x3E7 JUMP JUMPDEST DUP2 EQ PUSH3 0x412 JUMPI PUSH1 0x0 DUP1 REVERT JUMPDEST POP JUMP JUMPDEST PUSH1 0x0 DUP2 MLOAD SWAP1 POP PUSH3 0x426 DUP2 PUSH3 0x3FB JUMP JUMPDEST SWAP3 SWAP2 POP POP JUMP JUMPDEST PUSH1 0x0 PUSH4 0xFFFFFFFF DUP3 AND SWAP1 POP SWAP2 SWAP1 POP JUMP JUMPDEST PUSH3 0x447 DUP2 PUSH3 0x42C JUMP JUMPDEST DUP2 EQ PUSH3 0x453 JUMPI PUSH1 0x0 DUP1 REVERT JUMPDEST POP JUMP JUMPDEST PUSH1 0x0 DUP2 MLOAD SWAP1 POP PUSH3 0x467 DUP2 PUSH3 0x43C JUMP JUMPDEST SWAP3 SWAP2 POP POP JUMP JUMPDEST PUSH1 0x0 DUP1 PUSH1 0x0 DUP1 PUSH1 0x0 DUP1 PUSH1 0x0 PUSH1 0xE0 DUP9 DUP11 SUB SLT ISZERO PUSH3 0x48F JUMPI PUSH3 0x48E PUSH3 0x311 JUMP JUMPDEST JUMPDEST PUSH1 0x0 PUSH3 0x49F DUP11 DUP3 DUP12 ADD PUSH3 0x364 JUMP JUMPDEST SWAP8 POP POP PUSH1 0x20 PUSH3 0x4B2 DUP11 DUP3 DUP12 ADD PUSH3 0x364 JUMP JUMPDEST SWAP7 POP POP PUSH1 0x40 PUSH3 0x4C5 DUP11 DUP3 DUP12 ADD PUSH3 0x395 JUMP JUMPDEST SWAP6 POP POP PUSH1 0x60 PUSH3 0x4D8 DUP11 DUP3 DUP12 ADD PUSH3 0x364 JUMP JUMPDEST SWAP5 POP POP PUSH1 0x80 PUSH3 0x4EB DUP11 DUP3 DUP12 ADD PUSH3 0x3D0 JUMP JUMPDEST SWAP4 POP POP PUSH1 0xA0 PUSH3 0x4FE DUP11 DUP3 DUP12 ADD PUSH3 0x415 JUMP JUMPDEST SWAP3 POP POP PUSH1 0xC0 PUSH3 0x511 DUP11 DUP3 DUP12 ADD PUSH3 0x456 JUMP JUMPDEST SWAP2 POP POP SWAP3 SWAP6 SWAP9 SWAP2 SWAP5 SWAP8 POP SWAP3 SWAP6 POP JUMP JUMPDEST PUSH32 0x4E487B7100000000000000000000000000000000000000000000000000000000 PUSH1 0x0 MSTORE PUSH1 0x21 PUSH1 0x4 MSTORE PUSH1 0x24 PUSH1 0x0 REVERT JUMPDEST PUSH1 0x80 MLOAD PUSH1 0xA0 MLOAD PUSH1 0xC0 MLOAD PUSH1 0xE0 MLOAD PUSH2 0x100 MLOAD PUSH2 0x120 MLOAD PUSH2 0x140 MLOAD PUSH2 0x2118 PUSH3 0x5C6 PUSH1 0x0 CODECOPY PUSH1 0x0 PUSH2 0x9FD ADD MSTORE PUSH1 0x0 PUSH2 0xA7D ADD MSTORE PUSH1 0x0 PUSH2 0xA5A ADD MSTORE PUSH1 0x0 PUSH2 0xA39 ADD MSTORE PUSH1 0x0 DUP2 DUP2 PUSH2 0x5B7 ADD MSTORE DUP2 DUP2 PUSH2 0xDC1 ADD MSTORE PUSH2 0x1044 ADD MSTORE PUSH1 0x0 DUP2 DUP2 PUSH2 0xCB5 ADD MSTORE PUSH2 0xD1A ADD MSTORE PUSH1 0x0 DUP2 DUP2 PUSH2 0x4F5 ADD MSTORE PUSH2 0x549 ADD MSTORE PUSH2 0x2118 PUSH1 0x0 RETURN INVALID PUSH1 0x80 PUSH1 0x40 MSTORE PUSH1 0x4 CALLDATASIZE LT PUSH2 0x12A JUMPI PUSH1 0x0 CALLDATALOAD PUSH1 0xE0 SHR DUP1 PUSH4 0x6919207D GT PUSH2 0xAB JUMPI DUP1 PUSH4 0xBC999960 GT PUSH2 0x6F JUMPI DUP1 PUSH4 0xBC999960 EQ PUSH2 0x3C4 JUMPI DUP1 PUSH4 0xBF6AD320 EQ PUSH2 0x3EF JUMPI DUP1 PUSH4 0xD1C8E7E6 EQ PUSH2 0x41A JUMPI DUP1 PUSH4 0xD2F0BE99 EQ PUSH2 0x445 JUMPI DUP1 PUSH4 0xDB2CEA75 EQ PUSH2 0x46E JUMPI DUP1 PUSH4 0xEEFD65E5 EQ PUSH2 0x4AB JUMPI PUSH2 0x12A JUMP JUMPDEST DUP1 PUSH4 0x6919207D EQ PUSH2 0x2C8 JUMPI DUP1 PUSH4 0x6E04FF0D EQ PUSH2 0x2F3 JUMPI DUP1 PUSH4 0x7EA3E6C1 EQ PUSH2 0x331 JUMPI DUP1 PUSH4 0x8638B0C6 EQ PUSH2 0x35C JUMPI DUP1 PUSH4 0xAE771F6B EQ PUSH2 0x387 JUMPI PUSH2 0x12A JUMP JUMPDEST DUP1 PUSH4 0x2E2BFF87 GT PUSH2 0xF2 JUMPI DUP1 PUSH4 0x2E2BFF87 EQ PUSH2 0x1F5 JUMPI DUP1 PUSH4 0x4585E33B EQ PUSH2 0x220 JUMPI DUP1 PUSH4 0x4607A5EB EQ PUSH2 0x249 JUMPI DUP1 PUSH4 0x476343EE EQ PUSH2 0x286 JUMPI DUP1 PUSH4 0x634B63F5 EQ PUSH2 0x29D JUMPI PUSH2 0x12A JUMP JUMPDEST DUP1 PUSH4 0x13114A9D EQ PUSH2 0x12F JUMPI DUP1 PUSH4 0x1865C57D EQ PUSH2 0x15A JUMPI DUP1 PUSH4 0x1FE543E3 EQ PUSH2 0x185 JUMPI DUP1 PUSH4 0x215198CF EQ PUSH2 0x1AE JUMPI DUP1 PUSH4 0x238CD5EA EQ PUSH2 0x1CA JUMPI JUMPDEST PUSH1 0x0 DUP1 REVERT JUMPDEST CALLVALUE DUP1 ISZERO PUSH2 0x13B JUMPI PUSH1 0x0 DUP1 REVERT JUMPDEST POP PUSH2 0x144 PUSH2 0x4D6 JUMP JUMPDEST PUSH1 0x40 MLOAD PUSH2 0x151 SWAP2 SWAP1 PUSH2 0x152E JUMP JUMPDEST PUSH1 0x40 MLOAD DUP1 SWAP2 SUB SWAP1 RETURN JUMPDEST CALLVALUE DUP1 ISZERO PUSH2 0x166 JUMPI PUSH1 0x0 DUP1 REVERT JUMPDEST POP PUSH2 0x16F PUSH2 0x4DC JUMP JUMPDEST PUSH1 0x40 MLOAD PUSH2 0x17C SWAP2 SWAP1 PUSH2 0x15C0 JUMP JUMPDEST PUSH1 0x40 MLOAD DUP1 SWAP2 SUB SWAP1 RETURN JUMPDEST CALLVALUE DUP1 ISZERO PUSH2 0x191 JUMPI PUSH1 0x0 DUP1 REVERT JUMPDEST POP PUSH2 0x1AC PUSH1 0x4 DUP1 CALLDATASIZE SUB DUP2 ADD SWAP1 PUSH2 0x1A7 SWAP2 SWAP1 PUSH2 0x1774 JUMP JUMPDEST PUSH2 0x4F3 JUMP JUMPDEST STOP JUMPDEST PUSH2 0x1C8 PUSH1 0x4 DUP1 CALLDATASIZE SUB DUP2 ADD SWAP1 PUSH2 0x1C3 SWAP2 SWAP1 PUSH2 0x18F1 JUMP JUMPDEST PUSH2 0x5B3 JUMP JUMPDEST STOP JUMPDEST CALLVALUE DUP1 ISZERO PUSH2 0x1D6 JUMPI PUSH1 0x0 DUP1 REVERT JUMPDEST POP PUSH2 0x1DF PUSH2 0x919 JUMP JUMPDEST PUSH1 0x40 MLOAD PUSH2 0x1EC SWAP2 SWAP1 PUSH2 0x152E JUMP JUMPDEST PUSH1 0x40 MLOAD DUP1 SWAP2 SUB SWAP1 RETURN JUMPDEST CALLVALUE DUP1 ISZERO PUSH2 0x201 JUMPI PUSH1 0x0 DUP1 REVERT JUMPDEST POP PUSH2 0x20A PUSH2 0x91F JUMP JUMPDEST PUSH1 0x40 MLOAD PUSH2 0x217 SWAP2 SWAP1 PUSH2 0x1949 JUMP JUMPDEST PUSH1 0x40 MLOAD DUP1 SWAP2 SUB SWAP1 RETURN JUMPDEST CALLVALUE DUP1 ISZERO PUSH2 0x22C JUMPI PUSH1 0x0 DUP1 REVERT JUMPDEST POP PUSH2 0x247 PUSH1 0x4 DUP1 CALLDATASIZE SUB DUP2 ADD SWAP1 PUSH2 0x242 SWAP2 SWAP1 PUSH2 0x19BF JUMP JUMPDEST PUSH2 0x945 JUMP JUMPDEST STOP JUMPDEST CALLVALUE DUP1 ISZERO PUSH2 0x255 JUMPI PUSH1 0x0 DUP1 REVERT JUMPDEST POP PUSH2 0x270 PUSH1 0x4 DUP1 CALLDATASIZE SUB DUP2 ADD SWAP1 PUSH2 0x26B SWAP2 SWAP1 PUSH2 0x1A0C JUMP JUMPDEST PUSH2 0xB36 JUMP JUMPDEST PUSH1 0x40 MLOAD PUSH2 0x27D SWAP2 SWAP1 PUSH2 0x152E JUMP JUMPDEST PUSH1 0x40 MLOAD DUP1 SWAP2 SUB SWAP1 RETURN JUMPDEST CALLVALUE DUP1 ISZERO PUSH2 0x292 JUMPI PUSH1 0x0 DUP1 REVERT JUMPDEST POP PUSH2 0x29B PUSH2 0xB4E JUMP JUMPDEST STOP JUMPDEST CALLVALUE DUP1 ISZERO PUSH2 0x2A9 JUMPI PUSH1 0x0 DUP1 REVERT JUMPDEST POP PUSH2 0x2B2 PUSH2 0xCAD JUMP JUMPDEST PUSH1 0x40 MLOAD PUSH2 0x2BF SWAP2 SWAP1 PUSH2 0x152E JUMP JUMPDEST PUSH1 0x40 MLOAD DUP1 SWAP2 SUB SWAP1 RETURN JUMPDEST CALLVALUE DUP1 ISZERO PUSH2 0x2D4 JUMPI PUSH1 0x0 DUP1 REVERT JUMPDEST POP PUSH2 0x2DD PUSH2 0xCB3 JUMP JUMPDEST PUSH1 0x40 MLOAD PUSH2 0x2EA SWAP2 SWAP1 PUSH2 0x152E JUMP JUMPDEST PUSH1 0x40 MLOAD DUP1 SWAP2 SUB SWAP1 RETURN JUMPDEST CALLVALUE DUP1 ISZERO PUSH2 0x2FF JUMPI PUSH1 0x0 DUP1 REVERT JUMPDEST POP PUSH2 0x31A PUSH1 0x4 DUP1 CALLDATASIZE SUB DUP2 ADD SWAP1 PUSH2 0x315 SWAP2 SWAP1 PUSH2 0x1AEE JUMP JUMPDEST PUSH2 0xCD7 JUMP JUMPDEST PUSH1 0x40 MLOAD PUSH2 0x328 SWAP3 SWAP2 SWAP1 PUSH2 0x1BD1 JUMP JUMPDEST PUSH1 0x40 MLOAD DUP1 SWAP2 SUB SWAP1 RETURN JUMPDEST CALLVALUE DUP1 ISZERO PUSH2 0x33D JUMPI PUSH1 0x0 DUP1 REVERT JUMPDEST POP PUSH2 0x346 PUSH2 0xDBF JUMP JUMPDEST PUSH1 0x40 MLOAD PUSH2 0x353 SWAP2 SWAP1 PUSH2 0x152E JUMP JUMPDEST PUSH1 0x40 MLOAD DUP1 SWAP2 SUB SWAP1 RETURN JUMPDEST CALLVALUE DUP1 ISZERO PUSH2 0x368 JUMPI PUSH1 0x0 DUP1 REVERT JUMPDEST POP PUSH2 0x371 PUSH2 0xDE3 JUMP JUMPDEST PUSH1 0x40 MLOAD PUSH2 0x37E SWAP2 SWAP1 PUSH2 0x1949 JUMP JUMPDEST PUSH1 0x40 MLOAD DUP1 SWAP2 SUB SWAP1 RETURN JUMPDEST CALLVALUE DUP1 ISZERO PUSH2 0x393 JUMPI PUSH1 0x0 DUP1 REVERT JUMPDEST POP PUSH2 0x3AE PUSH1 0x4 DUP1 CALLDATASIZE SUB DUP2 ADD SWAP1 PUSH2 0x3A9 SWAP2 SWAP1 PUSH2 0x1C01 JUMP JUMPDEST PUSH2 0xE09 JUMP JUMPDEST PUSH1 0x40 MLOAD PUSH2 0x3BB SWAP2 SWAP1 PUSH2 0x1C4F JUMP JUMPDEST PUSH1 0x40 MLOAD DUP1 SWAP2 SUB SWAP1 RETURN JUMPDEST CALLVALUE DUP1 ISZERO PUSH2 0x3D0 JUMPI PUSH1 0x0 DUP1 REVERT JUMPDEST POP PUSH2 0x3D9 PUSH2 0xE48 JUMP JUMPDEST PUSH1 0x40 MLOAD PUSH2 0x3E6 SWAP2 SWAP1 PUSH2 0x1949 JUMP JUMPDEST PUSH1 0x40 MLOAD DUP1 SWAP2 SUB SWAP1 RETURN JUMPDEST CALLVALUE DUP1 ISZERO PUSH2 0x3FB JUMPI PUSH1 0x0 DUP1 REVERT JUMPDEST POP PUSH2 0x404 PUSH2 0xE6E JUMP JUMPDEST PUSH1 0x40 MLOAD PUSH2 0x411 SWAP2 SWAP1 PUSH2 0x152E JUMP JUMPDEST PUSH1 0x40 MLOAD DUP1 SWAP2 SUB SWAP1 RETURN JUMPDEST CALLVALUE DUP1 ISZERO PUSH2 0x426 JUMPI PUSH1 0x0 DUP1 REVERT JUMPDEST POP PUSH2 0x42F PUSH2 0xE74 JUMP JUMPDEST PUSH1 0x40 MLOAD PUSH2 0x43C SWAP2 SWAP1 PUSH2 0x152E JUMP JUMPDEST PUSH1 0x40 MLOAD DUP1 SWAP2 SUB SWAP1 RETURN JUMPDEST CALLVALUE DUP1 ISZERO PUSH2 0x451 JUMPI PUSH1 0x0 DUP1 REVERT JUMPDEST POP PUSH2 0x46C PUSH1 0x4 DUP1 CALLDATASIZE SUB DUP2 ADD SWAP1 PUSH2 0x467 SWAP2 SWAP1 PUSH2 0x1C01 JUMP JUMPDEST PUSH2 0xE7A JUMP JUMPDEST STOP JUMPDEST CALLVALUE DUP1 ISZERO PUSH2 0x47A JUMPI PUSH1 0x0 DUP1 REVERT JUMPDEST POP PUSH2 0x495 PUSH1 0x4 DUP1 CALLDATASIZE SUB DUP2 ADD SWAP1 PUSH2 0x490 SWAP2 SWAP1 PUSH2 0x1A0C JUMP JUMPDEST PUSH2 0x10F1 JUMP JUMPDEST PUSH1 0x40 MLOAD PUSH2 0x4A2 SWAP2 SWAP1 PUSH2 0x152E JUMP JUMPDEST PUSH1 0x40 MLOAD DUP1 SWAP2 SUB SWAP1 RETURN JUMPDEST CALLVALUE DUP1 ISZERO PUSH2 0x4B7 JUMPI PUSH1 0x0 DUP1 REVERT JUMPDEST POP PUSH2 0x4C0 PUSH2 0x11CB JUMP JUMPDEST PUSH1 0x40 MLOAD PUSH2 0x4CD SWAP2 SWAP1 PUSH2 0x152E JUMP JUMPDEST PUSH1 0x40 MLOAD DUP1 SWAP2 SUB SWAP1 RETURN JUMPDEST PUSH1 0x4 SLOAD DUP2 JUMP JUMPDEST PUSH1 0x0 PUSH1 0x9 PUSH1 0x14 SWAP1 SLOAD SWAP1 PUSH2 0x100 EXP SWAP1 DIV PUSH1 0xFF AND SWAP1 POP SWAP1 JUMP JUMPDEST PUSH32 0x0 PUSH20 0xFFFFFFFFFFFFFFFFFFFFFFFFFFFFFFFFFFFFFFFF AND CALLER PUSH20 0xFFFFFFFFFFFFFFFFFFFFFFFFFFFFFFFFFFFFFFFF AND EQ PUSH2 0x5A5 JUMPI CALLER PUSH32 0x0 PUSH1 0x40 MLOAD PUSH32 0x1CF993F400000000000000000000000000000000000000000000000000000000 DUP2 MSTORE PUSH1 0x4 ADD PUSH2 0x59C SWAP3 SWAP2 SWAP1 PUSH2 0x1C6A JUMP JUMPDEST PUSH1 0x40 MLOAD DUP1 SWAP2 SUB SWAP1 REVERT JUMPDEST PUSH2 0x5AF DUP3 DUP3 PUSH2 0x11D1 JUMP JUMPDEST POP POP JUMP JUMPDEST DUP1 MLOAD PUSH32 0x0 PUSH2 0x5E0 SWAP2 SWAP1 PUSH2 0x1CC2 JUMP JUMPDEST CALLVALUE EQ PUSH2 0x618 JUMPI PUSH1 0x40 MLOAD PUSH32 0xD353F6A400000000000000000000000000000000000000000000000000000000 DUP2 MSTORE PUSH1 0x4 ADD PUSH1 0x40 MLOAD DUP1 SWAP2 SUB SWAP1 REVERT JUMPDEST PUSH1 0x9 PUSH1 0x14 SWAP1 SLOAD SWAP1 PUSH2 0x100 EXP SWAP1 DIV PUSH1 0xFF AND PUSH1 0x1 DUP2 GT ISZERO PUSH2 0x63A JUMPI PUSH2 0x639 PUSH2 0x1549 JUMP JUMPDEST JUMPDEST PUSH1 0x0 PUSH1 0x1 DUP2 GT ISZERO PUSH2 0x64E JUMPI PUSH2 0x64D PUSH2 0x1549 JUMP JUMPDEST JUMPDEST EQ PUSH2 0x685 JUMPI PUSH1 0x40 MLOAD PUSH32 0x2127CD5500000000000000000000000000000000000000000000000000000000 DUP2 MSTORE PUSH1 0x4 ADD PUSH1 0x40 MLOAD DUP1 SWAP2 SUB SWAP1 REVERT JUMPDEST PUSH1 0x0 JUMPDEST DUP2 MLOAD DUP2 LT ISZERO PUSH2 0x724 JUMPI PUSH1 0x0 PUSH20 0xFFFFFFFFFFFFFFFFFFFFFFFFFFFFFFFFFFFFFFFF AND DUP3 DUP3 DUP2 MLOAD DUP2 LT PUSH2 0x6BC JUMPI PUSH2 0x6BB PUSH2 0x1D04 JUMP JUMPDEST JUMPDEST PUSH1 0x20 MUL PUSH1 0x20 ADD ADD MLOAD PUSH20 0xFFFFFFFFFFFFFFFFFFFFFFFFFFFFFFFFFFFFFFFF AND SUB PUSH2 0x711 JUMPI PUSH1 0x40 MLOAD PUSH32 0x77560D5600000000000000000000000000000000000000000000000000000000 DUP2 MSTORE PUSH1 0x4 ADD PUSH1 0x40 MLOAD DUP1 SWAP2 SUB SWAP1 REVERT JUMPDEST DUP1 DUP1 PUSH2 0x71C SWAP1 PUSH2 0x1D33 JUMP JUMPDEST SWAP2 POP POP PUSH2 0x688 JUMP JUMPDEST POP PUSH1 0x0 JUMPDEST DUP2 MLOAD DUP2 LT ISZERO PUSH2 0x7D7 JUMPI PUSH1 0xA SLOAD PUSH1 0x0 DUP1 DUP5 DUP5 DUP2 MLOAD DUP2 LT PUSH2 0x74A JUMPI PUSH2 0x749 PUSH2 0x1D04 JUMP JUMPDEST JUMPDEST PUSH1 0x20 MUL PUSH1 0x20 ADD ADD MLOAD PUSH20 0xFFFFFFFFFFFFFFFFFFFFFFFFFFFFFFFFFFFFFFFF AND PUSH20 0xFFFFFFFFFFFFFFFFFFFFFFFFFFFFFFFFFFFFFFFF AND DUP2 MSTORE PUSH1 0x20 ADD SWAP1 DUP2 MSTORE PUSH1 0x20 ADD PUSH1 0x0 KECCAK256 SLOAD EQ PUSH2 0x7C4 JUMPI PUSH1 0x40 MLOAD PUSH32 0x842B545300000000000000000000000000000000000000000000000000000000 DUP2 MSTORE PUSH1 0x4 ADD PUSH1 0x40 MLOAD DUP1 SWAP2 SUB SWAP1 REVERT JUMPDEST DUP1 DUP1 PUSH2 0x7CF SWAP1 PUSH2 0x1D33 JUMP JUMPDEST SWAP2 POP POP PUSH2 0x728 JUMP JUMPDEST POP PUSH1 0x0 JUMPDEST DUP2 MLOAD DUP2 LT ISZERO PUSH2 0x8D3 JUMPI PUSH1 0x1 DUP3 DUP3 DUP2 MLOAD DUP2 LT PUSH2 0x7F9 JUMPI PUSH2 0x7F8 PUSH2 0x1D04 JUMP JUMPDEST JUMPDEST PUSH1 0x20 MUL PUSH1 0x20 ADD ADD MLOAD SWAP1 DUP1 PUSH1 0x1 DUP2 SLOAD ADD DUP1 DUP3 SSTORE DUP1 SWAP2 POP POP PUSH1 0x1 SWAP1 SUB SWAP1 PUSH1 0x0 MSTORE PUSH1 0x20 PUSH1 0x0 KECCAK256 ADD PUSH1 0x0 SWAP1 SWAP2 SWAP1 SWAP2 SWAP1 SWAP2 PUSH2 0x100 EXP DUP2 SLOAD DUP2 PUSH20 0xFFFFFFFFFFFFFFFFFFFFFFFFFFFFFFFFFFFFFFFF MUL NOT AND SWAP1 DUP4 PUSH20 0xFFFFFFFFFFFFFFFFFFFFFFFFFFFFFFFFFFFFFFFF AND MUL OR SWAP1 SSTORE POP PUSH1 0xA SLOAD PUSH1 0x0 DUP1 DUP5 DUP5 DUP2 MLOAD DUP2 LT PUSH2 0x87A JUMPI PUSH2 0x879 PUSH2 0x1D04 JUMP JUMPDEST JUMPDEST PUSH1 0x20 MUL PUSH1 0x20 ADD ADD MLOAD PUSH20 0xFFFFFFFFFFFFFFFFFFFFFFFFFFFFFFFFFFFFFFFF AND PUSH20 0xFFFFFFFFFFFFFFFFFFFFFFFFFFFFFFFFFFFFFFFF AND DUP2 MSTORE PUSH1 0x20 ADD SWAP1 DUP2 MSTORE PUSH1 0x20 ADD PUSH1 0x0 KECCAK256 DUP2 SWAP1 SSTORE POP DUP1 DUP1 PUSH2 0x8CB SWAP1 PUSH2 0x1D33 JUMP JUMPDEST SWAP2 POP POP PUSH2 0x7DB JUMP JUMPDEST POP DUP1 PUSH1 0x40 MLOAD PUSH2 0x8E2 SWAP2 SWAP1 PUSH2 0x1E33 JUMP JUMPDEST PUSH1 0x40 MLOAD DUP1 SWAP2 SUB SWAP1 KECCAK256 PUSH32 0xF685CF2EABA0245DBC544C8A6B00BE3838E7DDE902F5887AD16FD6632161C86C PUSH1 0x40 MLOAD PUSH1 0x40 MLOAD DUP1 SWAP2 SUB SWAP1 LOG2 POP JUMP JUMPDEST PUSH1 0x7 SLOAD DUP2 JUMP JUMPDEST PUSH1 0x8 PUSH1 0x0 SWAP1 SLOAD SWAP1 PUSH2 0x100 EXP SWAP1 DIV PUSH20 0xFFFFFFFFFFFFFFFFFFFFFFFFFFFFFFFFFFFFFFFF AND DUP2 JUMP JUMPDEST PUSH1 0x0 PUSH2 0x95F PUSH1 0x40 MLOAD DUP1 PUSH1 0x20 ADD PUSH1 0x40 MSTORE DUP1 PUSH1 0x0 DUP2 MSTORE POP PUSH2 0xCD7 JUMP JUMPDEST POP SWAP1 POP DUP1 PUSH2 0x9CE JUMPI PUSH1 0x9 PUSH1 0x14 SWAP1 SLOAD SWAP1 PUSH2 0x100 EXP SWAP1 DIV PUSH1 0xFF AND PUSH1 0x1 DUP2 GT ISZERO PUSH2 0x989 JUMPI PUSH2 0x988 PUSH2 0x1549 JUMP JUMPDEST JUMPDEST PUSH1 0x1 DUP1 SLOAD SWAP1 POP SELFBALANCE PUSH1 0x40 MLOAD PUSH32 0x4656B1A600000000000000000000000000000000000000000000000000000000 DUP2 MSTORE PUSH1 0x4 ADD PUSH2 0x9C5 SWAP4 SWAP3 SWAP2 SWAP1 PUSH2 0x1E4A JUMP JUMPDEST PUSH1 0x40 MLOAD DUP1 SWAP2 SUB SWAP1 REVERT JUMPDEST PUSH1 0x1 PUSH1 0x9 PUSH1 0x14 PUSH2 0x100 EXP DUP2 SLOAD DUP2 PUSH1 0xFF MUL NOT AND SWAP1 DUP4 PUSH1 0x1 DUP2 GT ISZERO PUSH2 0x9F4 JUMPI PUSH2 0x9F3 PUSH2 0x1549 JUMP JUMPDEST JUMPDEST MUL OR SWAP1 SSTORE POP PUSH1 0x0 PUSH32 0x0 PUSH20 0xFFFFFFFFFFFFFFFFFFFFFFFFFFFFFFFFFFFFFFFF AND PUSH4 0x5D3B1D30 PUSH32 0x0 PUSH32 0x0 PUSH1 0x3 PUSH32 0x0 PUSH1 0x1 PUSH1 0x40 MLOAD DUP7 PUSH4 0xFFFFFFFF AND PUSH1 0xE0 SHL DUP2 MSTORE PUSH1 0x4 ADD PUSH2 0xABE SWAP6 SWAP5 SWAP4 SWAP3 SWAP2 SWAP1 PUSH2 0x1EF9 JUMP JUMPDEST PUSH1 0x20 PUSH1 0x40 MLOAD DUP1 DUP4 SUB DUP2 PUSH1 0x0 DUP8 GAS CALL ISZERO DUP1 ISZERO PUSH2 0xADD JUMPI RETURNDATASIZE PUSH1 0x0 DUP1 RETURNDATACOPY RETURNDATASIZE PUSH1 0x0 REVERT JUMPDEST POP POP POP POP PUSH1 0x40 MLOAD RETURNDATASIZE PUSH1 0x1F NOT PUSH1 0x1F DUP3 ADD AND DUP3 ADD DUP1 PUSH1 0x40 MSTORE POP DUP2 ADD SWAP1 PUSH2 0xB01 SWAP2 SWAP1 PUSH2 0x1F61 JUMP JUMPDEST SWAP1 POP DUP1 PUSH32 0xB005C91021FA8BBAB4FF5893F7628ABDF096D341EC58455922663E7451CF4A0F PUSH1 0x40 MLOAD PUSH1 0x40 MLOAD DUP1 SWAP2 SUB SWAP1 LOG2 POP POP POP POP JUMP JUMPDEST PUSH1 0x0 PUSH1 0x20 MSTORE DUP1 PUSH1 0x0 MSTORE PUSH1 0x40 PUSH1 0x0 KECCAK256 PUSH1 0x0 SWAP2 POP SWAP1 POP SLOAD DUP2 JUMP JUMPDEST PUSH1 0x9 PUSH1 0x0 SWAP1 SLOAD SWAP1 PUSH2 0x100 EXP SWAP1 DIV PUSH20 0xFFFFFFFFFFFFFFFFFFFFFFFFFFFFFFFFFFFFFFFF AND PUSH20 0xFFFFFFFFFFFFFFFFFFFFFFFFFFFFFFFFFFFFFFFF AND CALLER PUSH20 0xFFFFFFFFFFFFFFFFFFFFFFFFFFFFFFFFFFFFFFFF AND EQ PUSH2 0xBD5 JUMPI PUSH1 0x40 MLOAD PUSH32 0x1207FBB600000000000000000000000000000000000000000000000000000000 DUP2 MSTORE PUSH1 0x4 ADD PUSH1 0x40 MLOAD DUP1 SWAP2 SUB SWAP1 REVERT JUMPDEST PUSH1 0x0 PUSH1 0x7 SLOAD SWAP1 POP PUSH1 0x0 PUSH1 0x7 DUP2 SWAP1 SSTORE POP PUSH1 0x0 PUSH1 0x9 PUSH1 0x0 SWAP1 SLOAD SWAP1 PUSH2 0x100 EXP SWAP1 DIV PUSH20 0xFFFFFFFFFFFFFFFFFFFFFFFFFFFFFFFFFFFFFFFF AND PUSH20 0xFFFFFFFFFFFFFFFFFFFFFFFFFFFFFFFFFFFFFFFF AND DUP3 PUSH1 0x40 MLOAD PUSH2 0xC2C SWAP1 PUSH2 0x1FBF JUMP JUMPDEST PUSH1 0x0 PUSH1 0x40 MLOAD DUP1 DUP4 SUB DUP2 DUP6 DUP8 GAS CALL SWAP3 POP POP POP RETURNDATASIZE DUP1 PUSH1 0x0 DUP2 EQ PUSH2 0xC69 JUMPI PUSH1 0x40 MLOAD SWAP2 POP PUSH1 0x1F NOT PUSH1 0x3F RETURNDATASIZE ADD AND DUP3 ADD PUSH1 0x40 MSTORE RETURNDATASIZE DUP3 MSTORE RETURNDATASIZE PUSH1 0x0 PUSH1 0x20 DUP5 ADD RETURNDATACOPY PUSH2 0xC6E JUMP JUMPDEST PUSH1 0x60 SWAP2 POP JUMPDEST POP POP SWAP1 POP DUP1 PUSH2 0xCA9 JUMPI PUSH1 0x40 MLOAD PUSH32 0x84E01DFC00000000000000000000000000000000000000000000000000000000 DUP2 MSTORE PUSH1 0x4 ADD PUSH1 0x40 MLOAD DUP1 SWAP2 SUB SWAP1 REVERT JUMPDEST POP POP JUMP JUMPDEST PUSH1 0x2 SLOAD DUP2 JUMP JUMPDEST PUSH32 0x0 DUP2 JUMP JUMPDEST PUSH1 0x0 PUSH1 0x60 PUSH1 0x0 PUSH1 0x9 PUSH1 0x14 SWAP1 SLOAD SWAP1 PUSH2 0x100 EXP SWAP1 DIV PUSH1 0xFF AND PUSH1 0x1 DUP2 GT ISZERO PUSH2 0xCFF JUMPI PUSH2 0xCFE PUSH2 0x1549 JUMP JUMPDEST JUMPDEST PUSH1 0x0 PUSH1 0x1 DUP2 GT ISZERO PUSH2 0xD13 JUMPI PUSH2 0xD12 PUSH2 0x1549 JUMP JUMPDEST JUMPDEST EQ SWAP1 POP PUSH1 0x0 PUSH32 0x0 PUSH1 0x2 SLOAD TIMESTAMP PUSH2 0xD47 SWAP2 SWAP1 PUSH2 0x1FD4 JUMP JUMPDEST GT SWAP1 POP PUSH1 0x0 DUP1 PUSH1 0x1 DUP1 SLOAD SWAP1 POP GT SWAP1 POP PUSH1 0x0 DUP1 SELFBALANCE GT SWAP1 POP DUP4 DUP1 ISZERO PUSH2 0xD67 JUMPI POP DUP3 JUMPDEST DUP1 ISZERO PUSH2 0xD70 JUMPI POP DUP2 JUMPDEST DUP1 ISZERO PUSH2 0xD79 JUMPI POP DUP1 JUMPDEST SWAP6 POP DUP6 PUSH1 0x40 MLOAD DUP1 PUSH1 0x40 ADD PUSH1 0x40 MSTORE DUP1 PUSH1 0x3 DUP2 MSTORE PUSH1 0x20 ADD PUSH32 0x3078300000000000000000000000000000000000000000000000000000000000 DUP2 MSTORE POP SWAP6 POP SWAP6 POP POP POP POP POP SWAP2 POP SWAP2 JUMP JUMPDEST PUSH32 0x0 DUP2 JUMP JUMPDEST PUSH1 0x3 PUSH1 0x0 SWAP1 SLOAD SWAP1 PUSH2 0x100 EXP SWAP1 DIV PUSH20 0xFFFFFFFFFFFFFFFFFFFFFFFFFFFFFFFFFFFFFFFF AND DUP2 JUMP JUMPDEST PUSH1 0x1 DUP2 DUP2 SLOAD DUP2 LT PUSH2 0xE19 JUMPI PUSH1 0x0 DUP1 REVERT JUMPDEST SWAP1 PUSH1 0x0 MSTORE PUSH1 0x20 PUSH1 0x0 KECCAK256 ADD PUSH1 0x0 SWAP2 POP SLOAD SWAP1 PUSH2 0x100 EXP SWAP1 DIV PUSH20 0xFFFFFFFFFFFFFFFFFFFFFFFFFFFFFFFFFFFFFFFF AND DUP2 JUMP JUMPDEST PUSH1 0x9 PUSH1 0x0 SWAP1 SLOAD SWAP1 PUSH2 0x100 EXP SWAP1 DIV PUSH20 0xFFFFFFFFFFFFFFFFFFFFFFFFFFFFFFFFFFFFFFFF AND DUP2 JUMP JUMPDEST PUSH1 0x5 SLOAD DUP2 JUMP JUMPDEST PUSH1 0x6 SLOAD DUP2 JUMP JUMPDEST PUSH1 0x0 PUSH1 0x1 DUP3 DUP2 SLOAD DUP2 LT PUSH2 0xE90 JUMPI PUSH2 0xE8F PUSH2 0x1D04 JUMP JUMPDEST JUMPDEST SWAP1 PUSH1 0x0 MSTORE PUSH1 0x20 PUSH1 0x0 KECCAK256 ADD PUSH1 0x0 SWAP1 SLOAD SWAP1 PUSH2 0x100 EXP SWAP1 DIV PUSH20 0xFFFFFFFFFFFFFFFFFFFFFFFFFFFFFFFFFFFFFFFF AND SWAP1 POP DUP1 PUSH20 0xFFFFFFFFFFFFFFFFFFFFFFFFFFFFFFFFFFFFFFFF AND CALLER PUSH20 0xFFFFFFFFFFFFFFFFFFFFFFFFFFFFFFFFFFFFFFFF AND EQ PUSH2 0xF22 JUMPI PUSH1 0x40 MLOAD PUSH32 0xEAADC70500000000000000000000000000000000000000000000000000000000 DUP2 MSTORE PUSH1 0x4 ADD PUSH1 0x40 MLOAD DUP1 SWAP2 SUB SWAP1 REVERT JUMPDEST PUSH1 0x0 PUSH20 0xFFFFFFFFFFFFFFFFFFFFFFFFFFFFFFFFFFFFFFFF AND DUP2 PUSH20 0xFFFFFFFFFFFFFFFFFFFFFFFFFFFFFFFFFFFFFFFF AND SUB PUSH2 0xF88 JUMPI PUSH1 0x40 MLOAD PUSH32 0xEAADC70500000000000000000000000000000000000000000000000000000000 DUP2 MSTORE PUSH1 0x4 ADD PUSH1 0x40 MLOAD DUP1 SWAP2 SUB SWAP1 REVERT JUMPDEST PUSH1 0x0 PUSH1 0x1 DUP4 DUP2 SLOAD DUP2 LT PUSH2 0xF9E JUMPI PUSH2 0xF9D PUSH2 0x1D04 JUMP JUMPDEST JUMPDEST SWAP1 PUSH1 0x0 MSTORE PUSH1 0x20 PUSH1 0x0 KECCAK256 ADD PUSH1 0x0 PUSH2 0x100 EXP DUP2 SLOAD DUP2 PUSH20 0xFFFFFFFFFFFFFFFFFFFFFFFFFFFFFFFFFFFFFFFF MUL NOT AND SWAP1 DUP4 PUSH20 0xFFFFFFFFFFFFFFFFFFFFFFFFFFFFFFFFFFFFFFFF AND MUL OR SWAP1 SSTORE POP DUP1 PUSH20 0xFFFFFFFFFFFFFFFFFFFFFFFFFFFFFFFFFFFFFFFF AND PUSH32 0x69D9A1F7B99F5C0C8416E5E60744F92E2927CA1670A7591A36531F63F2F198E0 PUSH1 0x40 MLOAD PUSH1 0x40 MLOAD DUP1 SWAP2 SUB SWAP1 LOG2 PUSH1 0x0 DUP2 PUSH20 0xFFFFFFFFFFFFFFFFFFFFFFFFFFFFFFFFFFFFFFFF AND PUSH32 0x0 PUSH1 0x40 MLOAD PUSH2 0x106F SWAP1 PUSH2 0x1FBF JUMP JUMPDEST PUSH1 0x0 PUSH1 0x40 MLOAD DUP1 DUP4 SUB DUP2 DUP6 DUP8 GAS CALL SWAP3 POP POP POP RETURNDATASIZE DUP1 PUSH1 0x0 DUP2 EQ PUSH2 0x10AC JUMPI PUSH1 0x40 MLOAD SWAP2 POP PUSH1 0x1F NOT PUSH1 0x3F RETURNDATASIZE ADD AND DUP3 ADD PUSH1 0x40 MSTORE RETURNDATASIZE DUP3 MSTORE RETURNDATASIZE PUSH1 0x0 PUSH1 0x20 DUP5 ADD RETURNDATACOPY PUSH2 0x10B1 JUMP JUMPDEST PUSH1 0x60 SWAP2 POP JUMPDEST POP POP SWAP1 POP DUP1 PUSH2 0x10EC JUMPI PUSH1 0x40 MLOAD PUSH32 0x84E01DFC00000000000000000000000000000000000000000000000000000000 DUP2 MSTORE PUSH1 0x4 ADD PUSH1 0x40 MLOAD DUP1 SWAP2 SUB SWAP1 REVERT JUMPDEST POP POP POP JUMP JUMPDEST PUSH1 0x0 DUP1 PUSH1 0x0 SWAP1 POP JUMPDEST PUSH1 0x1 DUP1 SLOAD SWAP1 POP DUP2 LT ISZERO PUSH2 0x1193 JUMPI DUP3 PUSH20 0xFFFFFFFFFFFFFFFFFFFFFFFFFFFFFFFFFFFFFFFF AND PUSH1 0x1 DUP3 DUP2 SLOAD DUP2 LT PUSH2 0x1131 JUMPI PUSH2 0x1130 PUSH2 0x1D04 JUMP JUMPDEST JUMPDEST SWAP1 PUSH1 0x0 MSTORE PUSH1 0x20 PUSH1 0x0 KECCAK256 ADD PUSH1 0x0 SWAP1 SLOAD SWAP1 PUSH2 0x100 EXP SWAP1 DIV PUSH20 0xFFFFFFFFFFFFFFFFFFFFFFFFFFFFFFFFFFFFFFFF AND PUSH20 0xFFFFFFFFFFFFFFFFFFFFFFFFFFFFFFFFFFFFFFFF AND SUB PUSH2 0x1180 JUMPI DUP1 SWAP2 POP POP PUSH2 0x11C6 JUMP JUMPDEST DUP1 DUP1 PUSH2 0x118B SWAP1 PUSH2 0x1D33 JUMP JUMPDEST SWAP2 POP POP PUSH2 0x10F9 JUMP JUMPDEST POP PUSH1 0x40 MLOAD PUSH32 0x77560D5600000000000000000000000000000000000000000000000000000000 DUP2 MSTORE PUSH1 0x4 ADD PUSH1 0x40 MLOAD DUP1 SWAP2 SUB SWAP1 REVERT JUMPDEST SWAP2 SWAP1 POP JUMP JUMPDEST PUSH1 0xA SLOAD DUP2 JUMP JUMPDEST PUSH1 0x3 PUSH1 0x0 SWAP1 SLOAD SWAP1 PUSH2 0x100 EXP SWAP1 DIV PUSH20 0xFFFFFFFFFFFFFFFFFFFFFFFFFFFFFFFFFFFFFFFF AND PUSH20 0xFFFFFFFFFFFFFFFFFFFFFFFFFFFFFFFFFFFFFFFF AND CALLER PUSH20 0xFFFFFFFFFFFFFFFFFFFFFFFFFFFFFFFFFFFFFFFF AND SUB PUSH2 0x1258 JUMPI PUSH1 0x40 MLOAD PUSH32 0x3F4E0A9600000000000000000000000000000000000000000000000000000000 DUP2 MSTORE PUSH1 0x4 ADD PUSH1 0x40 MLOAD DUP1 SWAP2 SUB SWAP1 REVERT JUMPDEST PUSH1 0xA PUSH1 0x0 DUP2 SLOAD DUP1 SWAP3 SWAP2 SWAP1 PUSH2 0x126B SWAP1 PUSH2 0x1D33 JUMP JUMPDEST SWAP2 SWAP1 POP SSTORE POP PUSH1 0x0 PUSH1 0x1 DUP1 SLOAD SWAP1 POP DUP3 PUSH1 0x0 DUP2 MLOAD DUP2 LT PUSH2 0x128C JUMPI PUSH2 0x128B PUSH2 0x1D04 JUMP JUMPDEST JUMPDEST PUSH1 0x20 MUL PUSH1 0x20 ADD ADD MLOAD PUSH2 0x129E SWAP2 SWAP1 PUSH2 0x2037 JUMP JUMPDEST SWAP1 POP PUSH1 0x0 PUSH1 0x1 DUP3 DUP2 SLOAD DUP2 LT PUSH2 0x12B6 JUMPI PUSH2 0x12B5 PUSH2 0x1D04 JUMP JUMPDEST JUMPDEST SWAP1 PUSH1 0x0 MSTORE PUSH1 0x20 PUSH1 0x0 KECCAK256 ADD PUSH1 0x0 SWAP1 SLOAD SWAP1 PUSH2 0x100 EXP SWAP1 DIV PUSH20 0xFFFFFFFFFFFFFFFFFFFFFFFFFFFFFFFFFFFFFFFF AND SWAP1 POP DUP1 PUSH1 0x3 PUSH1 0x0 PUSH2 0x100 EXP DUP2 SLOAD DUP2 PUSH20 0xFFFFFFFFFFFFFFFFFFFFFFFFFFFFFFFFFFFFFFFF MUL NOT AND SWAP1 DUP4 PUSH20 0xFFFFFFFFFFFFFFFFFFFFFFFFFFFFFFFFFFFFFFFF AND MUL OR SWAP1 SSTORE POP PUSH1 0x0 PUSH8 0xFFFFFFFFFFFFFFFF DUP2 GT ISZERO PUSH2 0x133F JUMPI PUSH2 0x133E PUSH2 0x1631 JUMP JUMPDEST JUMPDEST PUSH1 0x40 MLOAD SWAP1 DUP1 DUP3 MSTORE DUP1 PUSH1 0x20 MUL PUSH1 0x20 ADD DUP3 ADD PUSH1 0x40 MSTORE DUP1 ISZERO PUSH2 0x136D JUMPI DUP2 PUSH1 0x20 ADD PUSH1 0x20 DUP3 MUL DUP1 CALLDATASIZE DUP4 CALLDATACOPY DUP1 DUP3 ADD SWAP2 POP POP SWAP1 POP JUMPDEST POP PUSH1 0x1 SWAP1 DUP1 MLOAD SWAP1 PUSH1 0x20 ADD SWAP1 PUSH2 0x1383 SWAP3 SWAP2 SWAP1 PUSH2 0x146E JUMP JUMPDEST POP TIMESTAMP PUSH1 0x2 DUP2 SWAP1 SSTORE POP PUSH32 0x2EED469DDBEA5CBFFBB1087704E72158AC6A0400EAF22FAD27FA2D5B0FC43859 DUP2 PUSH1 0x40 MLOAD PUSH2 0x13BA SWAP2 SWAP1 PUSH2 0x20C7 JUMP JUMPDEST PUSH1 0x40 MLOAD DUP1 SWAP2 SUB SWAP1 LOG1 PUSH1 0x0 DUP2 PUSH20 0xFFFFFFFFFFFFFFFFFFFFFFFFFFFFFFFFFFFFFFFF AND PUSH1 0x5 SLOAD PUSH1 0x40 MLOAD PUSH2 0x13EA SWAP1 PUSH2 0x1FBF JUMP JUMPDEST PUSH1 0x0 PUSH1 0x40 MLOAD DUP1 DUP4 SUB DUP2 DUP6 DUP8 GAS CALL SWAP3 POP POP POP RETURNDATASIZE DUP1 PUSH1 0x0 DUP2 EQ PUSH2 0x1427 JUMPI PUSH1 0x40 MLOAD SWAP2 POP PUSH1 0x1F NOT PUSH1 0x3F RETURNDATASIZE ADD AND DUP3 ADD PUSH1 0x40 MSTORE RETURNDATASIZE DUP3 MSTORE RETURNDATASIZE PUSH1 0x0 PUSH1 0x20 DUP5 ADD RETURNDATACOPY PUSH2 0x142C JUMP JUMPDEST PUSH1 0x60 SWAP2 POP JUMPDEST POP POP SWAP1 POP DUP1 PUSH2 0x1467 JUMPI PUSH1 0x40 MLOAD PUSH32 0x84E01DFC00000000000000000000000000000000000000000000000000000000 DUP2 MSTORE PUSH1 0x4 ADD PUSH1 0x40 MLOAD DUP1 SWAP2 SUB SWAP1 REVERT JUMPDEST POP POP POP POP POP JUMP JUMPDEST DUP3 DUP1 SLOAD DUP3 DUP3 SSTORE SWAP1 PUSH1 0x0 MSTORE PUSH1 0x20 PUSH1 0x0 KECCAK256 SWAP1 DUP2 ADD SWAP3 DUP3 ISZERO PUSH2 0x14E7 JUMPI SWAP2 PUSH1 0x20 MUL DUP3 ADD JUMPDEST DUP3 DUP2 GT ISZERO PUSH2 0x14E6 JUMPI DUP3 MLOAD DUP3 PUSH1 0x0 PUSH2 0x100 EXP DUP2 SLOAD DUP2 PUSH20 0xFFFFFFFFFFFFFFFFFFFFFFFFFFFFFFFFFFFFFFFF MUL NOT AND SWAP1 DUP4 PUSH20 0xFFFFFFFFFFFFFFFFFFFFFFFFFFFFFFFFFFFFFFFF AND MUL OR SWAP1 SSTORE POP SWAP2 PUSH1 0x20 ADD SWAP2 SWAP1 PUSH1 0x1 ADD SWAP1 PUSH2 0x148E JUMP JUMPDEST JUMPDEST POP SWAP1 POP PUSH2 0x14F4 SWAP2 SWAP1 PUSH2 0x14F8 JUMP JUMPDEST POP SWAP1 JUMP JUMPDEST JUMPDEST DUP1 DUP3 GT ISZERO PUSH2 0x1511 JUMPI PUSH1 0x0 DUP2 PUSH1 0x0 SWAP1 SSTORE POP PUSH1 0x1 ADD PUSH2 0x14F9 JUMP JUMPDEST POP SWAP1 JUMP JUMPDEST PUSH1 0x0 DUP2 SWAP1 POP SWAP2 SWAP1 POP JUMP JUMPDEST PUSH2 0x1528 DUP2 PUSH2 0x1515 JUMP JUMPDEST DUP3 MSTORE POP POP JUMP JUMPDEST PUSH1 0x0 PUSH1 0x20 DUP3 ADD SWAP1 POP PUSH2 0x1543 PUSH1 0x0 DUP4 ADD DUP5 PUSH2 0x151F JUMP JUMPDEST SWAP3 SWAP2 POP POP JUMP JUMPDEST PUSH32 0x4E487B7100000000000000000000000000000000000000000000000000000000 PUSH1 0x0 MSTORE PUSH1 0x21 PUSH1 0x4 MSTORE PUSH1 0x24 PUSH1 0x0 REVERT JUMPDEST PUSH1 0x2 DUP2 LT PUSH2 0x1589 JUMPI PUSH2 0x1588 PUSH2 0x1549 JUMP JUMPDEST JUMPDEST POP JUMP JUMPDEST PUSH1 0x0 DUP2 SWAP1 POP PUSH2 0x159A DUP3 PUSH2 0x1578 JUMP JUMPDEST SWAP2 SWAP1 POP JUMP JUMPDEST PUSH1 0x0 PUSH2 0x15AA DUP3 PUSH2 0x158C JUMP JUMPDEST SWAP1 POP SWAP2 SWAP1 POP JUMP JUMPDEST PUSH2 0x15BA DUP2 PUSH2 0x159F JUMP JUMPDEST DUP3 MSTORE POP POP JUMP JUMPDEST PUSH1 0x0 PUSH1 0x20 DUP3 ADD SWAP1 POP PUSH2 0x15D5 PUSH1 0x0 DUP4 ADD DUP5 PUSH2 0x15B1 JUMP JUMPDEST SWAP3 SWAP2 POP POP JUMP JUMPDEST PUSH1 0x0 PUSH1 0x40 MLOAD SWAP1 POP SWAP1 JUMP JUMPDEST PUSH1 0x0 DUP1 REVERT JUMPDEST PUSH1 0x0 DUP1 REVERT JUMPDEST PUSH2 0x15F8 DUP2 PUSH2 0x1515 JUMP JUMPDEST DUP2 EQ PUSH2 0x1603 JUMPI PUSH1 0x0 DUP1 REVERT JUMPDEST POP JUMP JUMPDEST PUSH1 0x0 DUP2 CALLDATALOAD SWAP1 POP PUSH2 0x1615 DUP2 PUSH2 0x15EF JUMP JUMPDEST SWAP3 SWAP2 POP POP JUMP JUMPDEST PUSH1 0x0 DUP1 REVERT JUMPDEST PUSH1 0x0 PUSH1 0x1F NOT PUSH1 0x1F DUP4 ADD AND SWAP1 POP SWAP2 SWAP1 POP JUMP JUMPDEST PUSH32 0x4E487B7100000000000000000000000000000000000000000000000000000000 PUSH1 0x0 MSTORE PUSH1 0x41 PUSH1 0x4 MSTORE PUSH1 0x24 PUSH1 0x0 REVERT JUMPDEST PUSH2 0x1669 DUP3 PUSH2 0x1620 JUMP JUMPDEST DUP2 ADD DUP2 DUP2 LT PUSH8 0xFFFFFFFFFFFFFFFF DUP3 GT OR ISZERO PUSH2 0x1688 JUMPI PUSH2 0x1687 PUSH2 0x1631 JUMP JUMPDEST JUMPDEST DUP1 PUSH1 0x40 MSTORE POP POP POP JUMP JUMPDEST PUSH1 0x0 PUSH2 0x169B PUSH2 0x15DB JUMP JUMPDEST SWAP1 POP PUSH2 0x16A7 DUP3 DUP3 PUSH2 0x1660 JUMP JUMPDEST SWAP2 SWAP1 POP JUMP JUMPDEST PUSH1 0x0 PUSH8 0xFFFFFFFFFFFFFFFF DUP3 GT ISZERO PUSH2 0x16C7 JUMPI PUSH2 0x16C6 PUSH2 0x1631 JUMP JUMPDEST JUMPDEST PUSH1 0x20 DUP3 MUL SWAP1 POP PUSH1 0x20 DUP2 ADD SWAP1 POP SWAP2 SWAP1 POP JUMP JUMPDEST PUSH1 0x0 DUP1 REVERT JUMPDEST PUSH1 0x0 PUSH2 0x16F0 PUSH2 0x16EB DUP5 PUSH2 0x16AC JUMP JUMPDEST PUSH2 0x1691 JUMP JUMPDEST SWAP1 POP DUP1 DUP4 DUP3 MSTORE PUSH1 0x20 DUP3 ADD SWAP1 POP PUSH1 0x20 DUP5 MUL DUP4 ADD DUP6 DUP2 GT ISZERO PUSH2 0x1713 JUMPI PUSH2 0x1712 PUSH2 0x16D8 JUMP JUMPDEST JUMPDEST DUP4 JUMPDEST DUP2 DUP2 LT ISZERO PUSH2 0x173C JUMPI DUP1 PUSH2 0x1728 DUP9 DUP3 PUSH2 0x1606 JUMP JUMPDEST DUP5 MSTORE PUSH1 0x20 DUP5 ADD SWAP4 POP POP PUSH1 0x20 DUP2 ADD SWAP1 POP PUSH2 0x1715 JUMP JUMPDEST POP POP POP SWAP4 SWAP3 POP POP POP JUMP JUMPDEST PUSH1 0x0 DUP3 PUSH1 0x1F DUP4 ADD SLT PUSH2 0x175B JUMPI PUSH2 0x175A PUSH2 0x161B JUMP JUMPDEST JUMPDEST DUP2 CALLDATALOAD PUSH2 0x176B DUP5 DUP3 PUSH1 0x20 DUP7 ADD PUSH2 0x16DD JUMP JUMPDEST SWAP2 POP POP SWAP3 SWAP2 POP POP JUMP JUMPDEST PUSH1 0x0 DUP1 PUSH1 0x40 DUP4 DUP6 SUB SLT ISZERO PUSH2 0x178B JUMPI PUSH2 0x178A PUSH2 0x15E5 JUMP JUMPDEST JUMPDEST PUSH1 0x0 PUSH2 0x1799 DUP6 DUP3 DUP7 ADD PUSH2 0x1606 JUMP JUMPDEST SWAP3 POP POP PUSH1 0x20 DUP4 ADD CALLDATALOAD PUSH8 0xFFFFFFFFFFFFFFFF DUP2 GT ISZERO PUSH2 0x17BA JUMPI PUSH2 0x17B9 PUSH2 0x15EA JUMP JUMPDEST JUMPDEST PUSH2 0x17C6 DUP6 DUP3 DUP7 ADD PUSH2 0x1746 JUMP JUMPDEST SWAP2 POP POP SWAP3 POP SWAP3 SWAP1 POP JUMP JUMPDEST PUSH1 0x0 PUSH8 0xFFFFFFFFFFFFFFFF DUP3 GT ISZERO PUSH2 0x17EB JUMPI PUSH2 0x17EA PUSH2 0x1631 JUMP JUMPDEST JUMPDEST PUSH1 0x20 DUP3 MUL SWAP1 POP PUSH1 0x20 DUP2 ADD SWAP1 POP SWAP2 SWAP1 POP JUMP JUMPDEST PUSH1 0x0 PUSH20 0xFFFFFFFFFFFFFFFFFFFFFFFFFFFFFFFFFFFFFFFF DUP3 AND SWAP1 POP SWAP2 SWAP1 POP JUMP JUMPDEST PUSH1 0x0 PUSH2 0x1827 DUP3 PUSH2 0x17FC JUMP JUMPDEST SWAP1 POP SWAP2 SWAP1 POP JUMP JUMPDEST PUSH2 0x1837 DUP2 PUSH2 0x181C JUMP JUMPDEST DUP2 EQ PUSH2 0x1842 JUMPI PUSH1 0x0 DUP1 REVERT JUMPDEST POP JUMP JUMPDEST PUSH1 0x0 DUP2 CALLDATALOAD SWAP1 POP PUSH2 0x1854 DUP2 PUSH2 0x182E JUMP JUMPDEST SWAP3 SWAP2 POP POP JUMP JUMPDEST PUSH1 0x0 PUSH2 0x186D PUSH2 0x1868 DUP5 PUSH2 0x17D0 JUMP JUMPDEST PUSH2 0x1691 JUMP JUMPDEST SWAP1 POP DUP1 DUP4 DUP3 MSTORE PUSH1 0x20 DUP3 ADD SWAP1 POP PUSH1 0x20 DUP5 MUL DUP4 ADD DUP6 DUP2 GT ISZERO PUSH2 0x1890 JUMPI PUSH2 0x188F PUSH2 0x16D8 JUMP JUMPDEST JUMPDEST DUP4 JUMPDEST DUP2 DUP2 LT ISZERO PUSH2 0x18B9 JUMPI DUP1 PUSH2 0x18A5 DUP9 DUP3 PUSH2 0x1845 JUMP JUMPDEST DUP5 MSTORE PUSH1 0x20 DUP5 ADD SWAP4 POP POP PUSH1 0x20 DUP2 ADD SWAP1 POP PUSH2 0x1892 JUMP JUMPDEST POP POP POP SWAP4 SWAP3 POP POP POP JUMP JUMPDEST PUSH1 0x0 DUP3 PUSH1 0x1F DUP4 ADD SLT PUSH2 0x18D8 JUMPI PUSH2 0x18D7 PUSH2 0x161B JUMP JUMPDEST JUMPDEST DUP2 CALLDATALOAD PUSH2 0x18E8 DUP5 DUP3 PUSH1 0x20 DUP7 ADD PUSH2 0x185A JUMP JUMPDEST SWAP2 POP POP SWAP3 SWAP2 POP POP JUMP JUMPDEST PUSH1 0x0 PUSH1 0x20 DUP3 DUP5 SUB SLT ISZERO PUSH2 0x1907 JUMPI PUSH2 0x1906 PUSH2 0x15E5 JUMP JUMPDEST JUMPDEST PUSH1 0x0 DUP3 ADD CALLDATALOAD PUSH8 0xFFFFFFFFFFFFFFFF DUP2 GT ISZERO PUSH2 0x1925 JUMPI PUSH2 0x1924 PUSH2 0x15EA JUMP JUMPDEST JUMPDEST PUSH2 0x1931 DUP5 DUP3 DUP6 ADD PUSH2 0x18C3 JUMP JUMPDEST SWAP2 POP POP SWAP3 SWAP2 POP POP JUMP JUMPDEST PUSH2 0x1943 DUP2 PUSH2 0x181C JUMP JUMPDEST DUP3 MSTORE POP POP JUMP JUMPDEST PUSH1 0x0 PUSH1 0x20 DUP3 ADD SWAP1 POP PUSH2 0x195E PUSH1 0x0 DUP4 ADD DUP5 PUSH2 0x193A JUMP JUMPDEST SWAP3 SWAP2 POP POP JUMP JUMPDEST PUSH1 0x0 DUP1 REVERT JUMPDEST PUSH1 0x0 DUP1 DUP4 PUSH1 0x1F DUP5 ADD SLT PUSH2 0x197F JUMPI PUSH2 0x197E PUSH2 0x161B JUMP JUMPDEST JUMPDEST DUP3 CALLDATALOAD SWAP1 POP PUSH8 0xFFFFFFFFFFFFFFFF DUP2 GT ISZERO PUSH2 0x199C JUMPI PUSH2 0x199B PUSH2 0x1964 JUMP JUMPDEST JUMPDEST PUSH1 0x20 DUP4 ADD SWAP2 POP DUP4 PUSH1 0x1 DUP3 MUL DUP4 ADD GT ISZERO PUSH2 0x19B8 JUMPI PUSH2 0x19B7 PUSH2 0x16D8 JUMP JUMPDEST JUMPDEST SWAP3 POP SWAP3 SWAP1 POP JUMP JUMPDEST PUSH1 0x0 DUP1 PUSH1 0x20 DUP4 DUP6 SUB SLT ISZERO PUSH2 0x19D6 JUMPI PUSH2 0x19D5 PUSH2 0x15E5 JUMP JUMPDEST JUMPDEST PUSH1 0x0 DUP4 ADD CALLDATALOAD PUSH8 0xFFFFFFFFFFFFFFFF DUP2 GT ISZERO PUSH2 0x19F4 JUMPI PUSH2 0x19F3 PUSH2 0x15EA JUMP JUMPDEST JUMPDEST PUSH2 0x1A00 DUP6 DUP3 DUP7 ADD PUSH2 0x1969 JUMP JUMPDEST SWAP3 POP SWAP3 POP POP SWAP3 POP SWAP3 SWAP1 POP JUMP JUMPDEST PUSH1 0x0 PUSH1 0x20 DUP3 DUP5 SUB SLT ISZERO PUSH2 0x1A22 JUMPI PUSH2 0x1A21 PUSH2 0x15E5 JUMP JUMPDEST JUMPDEST PUSH1 0x0 PUSH2 0x1A30 DUP5 DUP3 DUP6 ADD PUSH2 0x1845 JUMP JUMPDEST SWAP2 POP POP SWAP3 SWAP2 POP POP JUMP JUMPDEST PUSH1 0x0 DUP1 REVERT JUMPDEST PUSH1 0x0 PUSH8 0xFFFFFFFFFFFFFFFF DUP3 GT ISZERO PUSH2 0x1A59 JUMPI PUSH2 0x1A58 PUSH2 0x1631 JUMP JUMPDEST JUMPDEST PUSH2 0x1A62 DUP3 PUSH2 0x1620 JUMP JUMPDEST SWAP1 POP PUSH1 0x20 DUP2 ADD SWAP1 POP SWAP2 SWAP1 POP JUMP JUMPDEST DUP3 DUP2 DUP4 CALLDATACOPY PUSH1 0x0 DUP4 DUP4 ADD MSTORE POP POP POP JUMP JUMPDEST PUSH1 0x0 PUSH2 0x1A91 PUSH2 0x1A8C DUP5 PUSH2 0x1A3E JUMP JUMPDEST PUSH2 0x1691 JUMP JUMPDEST SWAP1 POP DUP3 DUP2 MSTORE PUSH1 0x20 DUP2 ADD DUP5 DUP5 DUP5 ADD GT ISZERO PUSH2 0x1AAD JUMPI PUSH2 0x1AAC PUSH2 0x1A39 JUMP JUMPDEST JUMPDEST PUSH2 0x1AB8 DUP5 DUP3 DUP6 PUSH2 0x1A6F JUMP JUMPDEST POP SWAP4 SWAP3 POP POP POP JUMP JUMPDEST PUSH1 0x0 DUP3 PUSH1 0x1F DUP4 ADD SLT PUSH2 0x1AD5 JUMPI PUSH2 0x1AD4 PUSH2 0x161B JUMP JUMPDEST JUMPDEST DUP2 CALLDATALOAD PUSH2 0x1AE5 DUP5 DUP3 PUSH1 0x20 DUP7 ADD PUSH2 0x1A7E JUMP JUMPDEST SWAP2 POP POP SWAP3 SWAP2 POP POP JUMP JUMPDEST PUSH1 0x0 PUSH1 0x20 DUP3 DUP5 SUB SLT ISZERO PUSH2 0x1B04 JUMPI PUSH2 0x1B03 PUSH2 0x15E5 JUMP JUMPDEST JUMPDEST PUSH1 0x0 DUP3 ADD CALLDATALOAD PUSH8 0xFFFFFFFFFFFFFFFF DUP2 GT ISZERO PUSH2 0x1B22 JUMPI PUSH2 0x1B21 PUSH2 0x15EA JUMP JUMPDEST JUMPDEST PUSH2 0x1B2E DUP5 DUP3 DUP6 ADD PUSH2 0x1AC0 JUMP JUMPDEST SWAP2 POP POP SWAP3 SWAP2 POP POP JUMP JUMPDEST PUSH1 0x0 DUP2 ISZERO ISZERO SWAP1 POP SWAP2 SWAP1 POP JUMP JUMPDEST PUSH2 0x1B4C DUP2 PUSH2 0x1B37 JUMP JUMPDEST DUP3 MSTORE POP POP JUMP JUMPDEST PUSH1 0x0 DUP2 MLOAD SWAP1 POP SWAP2 SWAP1 POP JUMP JUMPDEST PUSH1 0x0 DUP3 DUP3 MSTORE PUSH1 0x20 DUP3 ADD SWAP1 POP SWAP3 SWAP2 POP POP JUMP JUMPDEST PUSH1 0x0 JUMPDEST DUP4 DUP2 LT ISZERO PUSH2 0x1B8C JUMPI DUP1 DUP3 ADD MLOAD DUP2 DUP5 ADD MSTORE PUSH1 0x20 DUP2 ADD SWAP1 POP PUSH2 0x1B71 JUMP JUMPDEST PUSH1 0x0 DUP5 DUP5 ADD MSTORE POP POP POP POP JUMP JUMPDEST PUSH1 0x0 PUSH2 0x1BA3 DUP3 PUSH2 0x1B52 JUMP JUMPDEST PUSH2 0x1BAD DUP2 DUP6 PUSH2 0x1B5D JUMP JUMPDEST SWAP4 POP PUSH2 0x1BBD DUP2 DUP6 PUSH1 0x20 DUP7 ADD PUSH2 0x1B6E JUMP JUMPDEST PUSH2 0x1BC6 DUP2 PUSH2 0x1620 JUMP JUMPDEST DUP5 ADD SWAP2 POP POP SWAP3 SWAP2 POP POP JUMP JUMPDEST PUSH1 0x0 PUSH1 0x40 DUP3 ADD SWAP1 POP PUSH2 0x1BE6 PUSH1 0x0 DUP4 ADD DUP6 PUSH2 0x1B43 JUMP JUMPDEST DUP2 DUP2 SUB PUSH1 0x20 DUP4 ADD MSTORE PUSH2 0x1BF8 DUP2 DUP5 PUSH2 0x1B98 JUMP JUMPDEST SWAP1 POP SWAP4 SWAP3 POP POP POP JUMP JUMPDEST PUSH1 0x0 PUSH1 0x20 DUP3 DUP5 SUB SLT ISZERO PUSH2 0x1C17 JUMPI PUSH2 0x1C16 PUSH2 0x15E5 JUMP JUMPDEST JUMPDEST PUSH1 0x0 PUSH2 0x1C25 DUP5 DUP3 DUP6 ADD PUSH2 0x1606 JUMP JUMPDEST SWAP2 POP POP SWAP3 SWAP2 POP POP JUMP JUMPDEST PUSH1 0x0 PUSH2 0x1C39 DUP3 PUSH2 0x17FC JUMP JUMPDEST SWAP1 POP SWAP2 SWAP1 POP JUMP JUMPDEST PUSH2 0x1C49 DUP2 PUSH2 0x1C2E JUMP JUMPDEST DUP3 MSTORE POP POP JUMP JUMPDEST PUSH1 0x0 PUSH1 0x20 DUP3 ADD SWAP1 POP PUSH2 0x1C64 PUSH1 0x0 DUP4 ADD DUP5 PUSH2 0x1C40 JUMP JUMPDEST SWAP3 SWAP2 POP POP JUMP JUMPDEST PUSH1 0x0 PUSH1 0x40 DUP3 ADD SWAP1 POP PUSH2 0x1C7F PUSH1 0x0 DUP4 ADD DUP6 PUSH2 0x193A JUMP JUMPDEST PUSH2 0x1C8C PUSH1 0x20 DUP4 ADD DUP5 PUSH2 0x193A JUMP JUMPDEST SWAP4 SWAP3 POP POP POP JUMP JUMPDEST PUSH32 0x4E487B7100000000000000000000000000000000000000000000000000000000 PUSH1 0x0 MSTORE PUSH1 0x11 PUSH1 0x4 MSTORE PUSH1 0x24 PUSH1 0x0 REVERT JUMPDEST PUSH1 0x0 PUSH2 0x1CCD DUP3 PUSH2 0x1515 JUMP JUMPDEST SWAP2 POP PUSH2 0x1CD8 DUP4 PUSH2 0x1515 JUMP JUMPDEST SWAP3 POP DUP3 DUP3 MUL PUSH2 0x1CE6 DUP2 PUSH2 0x1515 JUMP JUMPDEST SWAP2 POP DUP3 DUP3 DIV DUP5 EQ DUP4 ISZERO OR PUSH2 0x1CFD JUMPI PUSH2 0x1CFC PUSH2 0x1C93 JUMP JUMPDEST JUMPDEST POP SWAP3 SWAP2 POP POP JUMP JUMPDEST PUSH32 0x4E487B7100000000000000000000000000000000000000000000000000000000 PUSH1 0x0 MSTORE PUSH1 0x32 PUSH1 0x4 MSTORE PUSH1 0x24 PUSH1 0x0 REVERT JUMPDEST PUSH1 0x0 PUSH2 0x1D3E DUP3 PUSH2 0x1515 JUMP JUMPDEST SWAP2 POP PUSH32 0xFFFFFFFFFFFFFFFFFFFFFFFFFFFFFFFFFFFFFFFFFFFFFFFFFFFFFFFFFFFFFFFF DUP3 SUB PUSH2 0x1D70 JUMPI PUSH2 0x1D6F PUSH2 0x1C93 JUMP JUMPDEST JUMPDEST PUSH1 0x1 DUP3 ADD SWAP1 POP SWAP2 SWAP1 POP JUMP JUMPDEST PUSH1 0x0 DUP2 MLOAD SWAP1 POP SWAP2 SWAP1 POP JUMP JUMPDEST PUSH1 0x0 DUP2 SWAP1 POP SWAP3 SWAP2 POP POP JUMP JUMPDEST PUSH1 0x0 DUP2 SWAP1 POP PUSH1 0x20 DUP3 ADD SWAP1 POP SWAP2 SWAP1 POP JUMP JUMPDEST PUSH2 0x1DAA DUP2 PUSH2 0x181C JUMP JUMPDEST DUP3 MSTORE POP POP JUMP JUMPDEST PUSH1 0x0 PUSH2 0x1DBC DUP4 DUP4 PUSH2 0x1DA1 JUMP JUMPDEST PUSH1 0x20 DUP4 ADD SWAP1 POP SWAP3 SWAP2 POP POP JUMP JUMPDEST PUSH1 0x0 PUSH1 0x20 DUP3 ADD SWAP1 POP SWAP2 SWAP1 POP JUMP JUMPDEST PUSH1 0x0 PUSH2 0x1DE0 DUP3 PUSH2 0x1D7B JUMP JUMPDEST PUSH2 0x1DEA DUP2 DUP6 PUSH2 0x1D86 JUMP JUMPDEST SWAP4 POP PUSH2 0x1DF5 DUP4 PUSH2 0x1D91 JUMP JUMPDEST DUP1 PUSH1 0x0 JUMPDEST DUP4 DUP2 LT ISZERO PUSH2 0x1E26 JUMPI DUP2 MLOAD PUSH2 0x1E0D DUP9 DUP3 PUSH2 0x1DB0 JUMP JUMPDEST SWAP8 POP PUSH2 0x1E18 DUP4 PUSH2 0x1DC8 JUMP JUMPDEST SWAP3 POP POP PUSH1 0x1 DUP2 ADD SWAP1 POP PUSH2 0x1DF9 JUMP JUMPDEST POP DUP6 SWAP4 POP POP POP POP SWAP3 SWAP2 POP POP JUMP JUMPDEST PUSH1 0x0 PUSH2 0x1E3F DUP3 DUP5 PUSH2 0x1DD5 JUMP JUMPDEST SWAP2 POP DUP2 SWAP1 POP SWAP3 SWAP2 POP POP JUMP JUMPDEST PUSH1 0x0 PUSH1 0x60 DUP3 ADD SWAP1 POP PUSH2 0x1E5F PUSH1 0x0 DUP4 ADD DUP7 PUSH2 0x151F JUMP JUMPDEST PUSH2 0x1E6C PUSH1 0x20 DUP4 ADD DUP6 PUSH2 0x151F JUMP JUMPDEST PUSH2 0x1E79 PUSH1 0x40 DUP4 ADD DUP5 PUSH2 0x151F JUMP JUMPDEST SWAP5 SWAP4 POP POP POP POP JUMP JUMPDEST PUSH1 0x0 DUP2 SWAP1 POP SWAP2 SWAP1 POP JUMP JUMPDEST PUSH2 0x1E94 DUP2 PUSH2 0x1E81 JUMP JUMPDEST DUP3 MSTORE POP POP JUMP JUMPDEST PUSH1 0x0 PUSH8 0xFFFFFFFFFFFFFFFF DUP3 AND SWAP1 POP SWAP2 SWAP1 POP JUMP JUMPDEST PUSH2 0x1EB7 DUP2 PUSH2 0x1E9A JUMP JUMPDEST DUP3 MSTORE POP POP JUMP JUMPDEST PUSH1 0x0 PUSH2 0xFFFF DUP3 AND SWAP1 POP SWAP2 SWAP1 POP JUMP JUMPDEST PUSH2 0x1ED4 DUP2 PUSH2 0x1EBD JUMP JUMPDEST DUP3 MSTORE POP POP JUMP JUMPDEST PUSH1 0x0 PUSH4 0xFFFFFFFF DUP3 AND SWAP1 POP SWAP2 SWAP1 POP JUMP JUMPDEST PUSH2 0x1EF3 DUP2 PUSH2 0x1EDA JUMP JUMPDEST DUP3 MSTORE POP POP JUMP JUMPDEST PUSH1 0x0 PUSH1 0xA0 DUP3 ADD SWAP1 POP PUSH2 0x1F0E PUSH1 0x0 DUP4 ADD DUP9 PUSH2 0x1E8B JUMP JUMPDEST PUSH2 0x1F1B PUSH1 0x20 DUP4 ADD DUP8 PUSH2 0x1EAE JUMP JUMPDEST PUSH2 0x1F28 PUSH1 0x40 DUP4 ADD DUP7 PUSH2 0x1ECB JUMP JUMPDEST PUSH2 0x1F35 PUSH1 0x60 DUP4 ADD DUP6 PUSH2 0x1EEA JUMP JUMPDEST PUSH2 0x1F42 PUSH1 0x80 DUP4 ADD DUP5 PUSH2 0x1EEA JUMP JUMPDEST SWAP7 SWAP6 POP POP POP POP POP POP JUMP JUMPDEST PUSH1 0x0 DUP2 MLOAD SWAP1 POP PUSH2 0x1F5B DUP2 PUSH2 0x15EF JUMP JUMPDEST SWAP3 SWAP2 POP POP JUMP JUMPDEST PUSH1 0x0 PUSH1 0x20 DUP3 DUP5 SUB SLT ISZERO PUSH2 0x1F77 JUMPI PUSH2 0x1F76 PUSH2 0x15E5 JUMP JUMPDEST JUMPDEST PUSH1 0x0 PUSH2 0x1F85 DUP5 DUP3 DUP6 ADD PUSH2 0x1F4C JUMP JUMPDEST SWAP2 POP POP SWAP3 SWAP2 POP POP JUMP JUMPDEST PUSH1 0x0 DUP2 SWAP1 POP SWAP3 SWAP2 POP POP JUMP JUMPDEST POP JUMP JUMPDEST PUSH1 0x0 PUSH2 0x1FA9 PUSH1 0x0 DUP4 PUSH2 0x1F8E JUMP JUMPDEST SWAP2 POP PUSH2 0x1FB4 DUP3 PUSH2 0x1F99 JUMP JUMPDEST PUSH1 0x0 DUP3 ADD SWAP1 POP SWAP2 SWAP1 POP JUMP JUMPDEST PUSH1 0x0 PUSH2 0x1FCA DUP3 PUSH2 0x1F9C JUMP JUMPDEST SWAP2 POP DUP2 SWAP1 POP SWAP2 SWAP1 POP JUMP JUMPDEST PUSH1 0x0 PUSH2 0x1FDF DUP3 PUSH2 0x1515 JUMP JUMPDEST SWAP2 POP PUSH2 0x1FEA DUP4 PUSH2 0x1515 JUMP JUMPDEST SWAP3 POP DUP3 DUP3 SUB SWAP1 POP DUP2 DUP2 GT ISZERO PUSH2 0x2002 JUMPI PUSH2 0x2001 PUSH2 0x1C93 JUMP JUMPDEST JUMPDEST SWAP3 SWAP2 POP POP JUMP JUMPDEST PUSH32 0x4E487B7100000000000000000000000000000000000000000000000000000000 PUSH1 0x0 MSTORE PUSH1 0x12 PUSH1 0x4 MSTORE PUSH1 0x24 PUSH1 0x0 REVERT JUMPDEST PUSH1 0x0 PUSH2 0x2042 DUP3 PUSH2 0x1515 JUMP JUMPDEST SWAP2 POP PUSH2 0x204D DUP4 PUSH2 0x1515 JUMP JUMPDEST SWAP3 POP DUP3 PUSH2 0x205D JUMPI PUSH2 0x205C PUSH2 0x2008 JUMP JUMPDEST JUMPDEST DUP3 DUP3 MOD SWAP1 POP SWAP3 SWAP2 POP POP JUMP JUMPDEST PUSH1 0x0 DUP2 SWAP1 POP SWAP2 SWAP1 POP JUMP JUMPDEST PUSH1 0x0 PUSH2 0x208D PUSH2 0x2088 PUSH2 0x2083 DUP5 PUSH2 0x17FC JUMP JUMPDEST PUSH2 0x2068 JUMP JUMPDEST PUSH2 0x17FC JUMP JUMPDEST SWAP1 POP SWAP2 SWAP1 POP JUMP JUMPDEST PUSH1 0x0 PUSH2 0x209F DUP3 PUSH2 0x2072 JUMP JUMPDEST SWAP1 POP SWAP2 SWAP1 POP JUMP JUMPDEST PUSH1 0x0 PUSH2 0x20B1 DUP3 PUSH2 0x2094 JUMP JUMPDEST SWAP1 POP SWAP2 SWAP1 POP JUMP JUMPDEST PUSH2 0x20C1 DUP2 PUSH2 0x20A6 JUMP JUMPDEST DUP3 MSTORE POP POP JUMP JUMPDEST PUSH1 0x0 PUSH1 0x20 DUP3 ADD SWAP1 POP PUSH2 0x20DC PUSH1 0x0 DUP4 ADD DUP5 PUSH2 0x20B8 JUMP JUMPDEST SWAP3 SWAP2 POP POP JUMP INVALID LOG2 PUSH5 0x6970667358 0x22 SLT KECCAK256 MSTORE STOP 0x1E 0xD5 0x21 0xEC 0xC 0xF8 0xC0 0x4D PUSH29 0x961D241DC9F24B57E06688DDA5D5F8B18267A4F06664736F6C63430008 SLT STOP CALLER "
				},
				"gasEstimates": {
					"creation": {
						"codeDepositCost": "1694400",
						"executionCost": "infinite",
						"totalCost": "infinite"
					},
					"external": {
						"addressToSweepsatkeId(address)": "2881",
						"charityDonation()": "2495",
						"checkUpkeep(bytes)": "infinite",
						"enterSweepstake(address[])": "infinite",
						"getActivePlayerIndex(address)": "infinite",
						"getRefund(uint256)": "infinite",
						"getState()": "2664",
						"i_entranceFee()": "infinite",
						"i_interval()": "infinite",
						"performUpkeep(bytes)": "infinite",
						"protocolMaintainance()": "2541",
						"rawFulfillRandomWords(uint256,uint256[])": "infinite",
						"s_ProtocolMaintainanceFeeAddress()": "2536",
						"s_charityDonationFeeAddress()": "2537",
						"s_players(uint256)": "5067",
						"s_recentWinner()": "2603",
						"s_sweepstakeStartTime()": "2540",
						"sweepstakeId()": "2561",
						"totalFees()": "2453",
						"winnerPrice()": "2473",
						"withdrawFees()": "infinite"
					},
					"internal": {
						"fulfillRandomWords(uint256,uint256[] memory)": "infinite"
					}
				},
				"methodIdentifiers": {
					"addressToSweepsatkeId(address)": "4607a5eb",
					"charityDonation()": "d1c8e7e6",
					"checkUpkeep(bytes)": "6e04ff0d",
					"enterSweepstake(address[])": "215198cf",
					"getActivePlayerIndex(address)": "db2cea75",
					"getRefund(uint256)": "d2f0be99",
					"getState()": "1865c57d",
					"i_entranceFee()": "7ea3e6c1",
					"i_interval()": "6919207d",
					"performUpkeep(bytes)": "4585e33b",
					"protocolMaintainance()": "238cd5ea",
					"rawFulfillRandomWords(uint256,uint256[])": "1fe543e3",
					"s_ProtocolMaintainanceFeeAddress()": "bc999960",
					"s_charityDonationFeeAddress()": "2e2bff87",
					"s_players(uint256)": "ae771f6b",
					"s_recentWinner()": "8638b0c6",
					"s_sweepstakeStartTime()": "634b63f5",
					"sweepstakeId()": "eefd65e5",
					"totalFees()": "13114a9d",
					"winnerPrice()": "bf6ad320",
					"withdrawFees()": "476343ee"
				}
			},
			"storageLayout": {
				"storage": [
					{
						"astId": 220,
						"contract": "Sweepstake.sol:Sweepstake",
						"label": "addressToSweepsatkeId",
						"offset": 0,
						"slot": "0",
						"type": "t_mapping(t_address,t_uint256)"
					},
					{
						"astId": 223,
						"contract": "Sweepstake.sol:Sweepstake",
						"label": "s_players",
						"offset": 0,
						"slot": "1",
						"type": "t_array(t_address_payable)dyn_storage"
					},
					{
						"astId": 227,
						"contract": "Sweepstake.sol:Sweepstake",
						"label": "s_sweepstakeStartTime",
						"offset": 0,
						"slot": "2",
						"type": "t_uint256"
					},
					{
						"astId": 229,
						"contract": "Sweepstake.sol:Sweepstake",
						"label": "s_recentWinner",
						"offset": 0,
						"slot": "3",
						"type": "t_address"
					},
					{
						"astId": 239,
						"contract": "Sweepstake.sol:Sweepstake",
						"label": "totalFees",
						"offset": 0,
						"slot": "4",
						"type": "t_uint256"
					},
					{
						"astId": 247,
						"contract": "Sweepstake.sol:Sweepstake",
						"label": "winnerPrice",
						"offset": 0,
						"slot": "5",
						"type": "t_uint256"
					},
					{
						"astId": 255,
						"contract": "Sweepstake.sol:Sweepstake",
						"label": "charityDonation",
						"offset": 0,
						"slot": "6",
						"type": "t_uint256"
					},
					{
						"astId": 263,
						"contract": "Sweepstake.sol:Sweepstake",
						"label": "protocolMaintainance",
						"offset": 0,
						"slot": "7",
						"type": "t_uint256"
					},
					{
						"astId": 265,
						"contract": "Sweepstake.sol:Sweepstake",
						"label": "s_charityDonationFeeAddress",
						"offset": 0,
						"slot": "8",
						"type": "t_address"
					},
					{
						"astId": 267,
						"contract": "Sweepstake.sol:Sweepstake",
						"label": "s_ProtocolMaintainanceFeeAddress",
						"offset": 0,
						"slot": "9",
						"type": "t_address"
					},
					{
						"astId": 270,
						"contract": "Sweepstake.sol:Sweepstake",
						"label": "s_sweepstakeState",
						"offset": 20,
						"slot": "9",
						"type": "t_enum(SweepstakeState)216"
					},
					{
						"astId": 273,
						"contract": "Sweepstake.sol:Sweepstake",
						"label": "sweepstakeId",
						"offset": 0,
						"slot": "10",
						"type": "t_uint256"
					}
				],
				"types": {
					"t_address": {
						"encoding": "inplace",
						"label": "address",
						"numberOfBytes": "20"
					},
					"t_address_payable": {
						"encoding": "inplace",
						"label": "address payable",
						"numberOfBytes": "20"
					},
					"t_array(t_address_payable)dyn_storage": {
						"base": "t_address_payable",
						"encoding": "dynamic_array",
						"label": "address payable[]",
						"numberOfBytes": "32"
					},
					"t_enum(SweepstakeState)216": {
						"encoding": "inplace",
						"label": "enum Sweepstake.SweepstakeState",
						"numberOfBytes": "1"
					},
					"t_mapping(t_address,t_uint256)": {
						"encoding": "mapping",
						"key": "t_address",
						"label": "mapping(address => uint256)",
						"numberOfBytes": "32",
						"value": "t_uint256"
					},
					"t_uint256": {
						"encoding": "inplace",
						"label": "uint256",
						"numberOfBytes": "32"
					}
				}
			},
			"userdoc": {
				"kind": "user",
				"methods": {},
				"notice": "This contract is defining Sweepstaking contract. The protocol should do the following: 1. Enter Sweepstake function to enter the Sweepstake to win the prize pool. 2. Duplicate address's are not allowed 3. Users are allowed to get a refund of their ticket & value if they call the `refund` function 4. Every X seconds, the Sweepstake will be able to draw a winner and and send the winning prize pool to the winner. 5. The Prize pool will be 90% of the total value of the Sweepstake and rest will be the fees for the protocol's owner. 6. The owner of the protocol will set a fee. 7. ETH/USDC will be used as the currency for the Sweepstake. 8. small element to charity donate 9. What if a person using 100 different address entered into the Sweepstake then have more than 50% chance to win the Sweepstake. 10. Using chailink VRF, Automation and Agreegator for random number, automatic winner selection and Price Conversion respectivily.",
				"version": 1
			}
		}
	}
}